:020000040000fa
:080000000001040000000000f3
:020000040000fa
:0400080042030000af
:020000040000fa
:04000c0042030000ab
:020000040000fa
:0400100042030000a7
:020000040000fa
:0400140042030000a3
:020000040000fa
:04001800420300009f
:020000040000fa
:04001c00420300009b
:020000040000fa
:040020004203000097
:020000040000fa
:040024004203000093
:020000040000fa
:04002800420300008f
:020000040000fa
:04002c00420300008b
:020000040000fa
:040030004203000087
:020000040000fa
:04003400c8020000fe
:020000040000fa
:04003800420300007f
:020000040000fa
:04003c00420300007b
:020000040000fa
:040040003003000089
:020000040000fa
:04004400c8010000ef
:020000040000fa
:04004800420300006f
:020000040000fa
:04004c00420300006b
:020000040000fa
:040050004203000067
:020000040000fa
:040054004203000063
:020000040000fa
:04005800420300005f
:020000040000fa
:04005c00420300005b
:020000040000fa
:040060004203000057
:020000040000fa
:04006400ea010000ad
:020000040000fa
:04006800420300004f
:020000040000fa
:04006c00420300004b
:020000040000fa
:040070004203000047
:020000040000fa
:040074004203000043
:020000040000fa
:04007800420300003f
:020000040000fa
:04007c00420300003b
:020000040000fa
:040080004203000037
:020000040000fa
:040084004203000033
:020000040000fa
:04008800420300002f
:020000040000fa
:04008c00420300002b
:020000040000fa
:040090004203000027
:020000040000fa
:040094004203000023
:020000040000fa
:04009800420300001f
:020000040000fa
:04009c00420300001b
:020000040000fa
:0400a0004203000017
:020000040000fa
:0400a4004203000013
:020000040000fa
:0400a800420300000f
:020000040000fa
:0400ac00420300000b
:020000040000fa
:0400b0004203000007
:020000040000fa
:0400b4004203000003
:020000040000fa
:0400b80042030000ff
:020000040000fa
:0400bc0042030000fb
:020000040000fa
:0400c00042030000f7
:020000040000fa
:0400c40042030000f3
:020000040000fa
:0400c80042030000ef
:020000040000fa
:0400cc0042030000eb
:020000040000fa
:0400d00042030000e7
:020000040000fa
:0400d40042030000e3
:020000040000fa
:0400d80042030000df
:020000040000fa
:0401080042030000ae
:020000040000fa
:04010c0042030000aa
:020000040000fa
:0401100042030000a6
:020000040000fa
:0401140042030000a2
:020000040000fa
:04011800420300009e
:020000040000fa
:04011c00420300009a
:020000040000fa
:040120004203000096
:020000040000fa
:040124004203000092
:020000040000fa
:04012800420300008e
:020000040000fa
:04012c00420300008a
:020000040000fa
:040130004203000086
:020000040000fa
:04013400c8020000fd
:020000040000fa
:04013800420300007e
:020000040000fa
:04013c00420300007a
:020000040000fa
:040140003003000088
:020000040000fa
:04014400c8010000ee
:020000040000fa
:04014800420300006e
:020000040000fa
:04014c00420300006a
:020000040000fa
:040150004203000066
:020000040000fa
:040154004203000062
:020000040000fa
:04015800420300005e
:020000040000fa
:04015c00420300005a
:020000040000fa
:040160004203000056
:020000040000fa
:04016400ea010000ac
:020000040000fa
:04016800420300004e
:020000040000fa
:04016c00420300004a
:020000040000fa
:040170004203000046
:020000040000fa
:040174004203000042
:020000040000fa
:04017800420300003e
:020000040000fa
:04017c00420300003a
:020000040000fa
:040180004203000036
:020000040000fa
:040184004203000032
:020000040000fa
:04018800420300002e
:020000040000fa
:04018c00420300002a
:020000040000fa
:040190004203000026
:020000040000fa
:040194004203000022
:020000040000fa
:04019800420300001e
:020000040000fa
:04019c00420300001a
:020000040000fa
:0401a0004203000016
:020000040000fa
:0401a4004203000012
:020000040000fa
:0401a800420300000e
:020000040000fa
:0401ac00420300000a
:020000040000fa
:0401b0004203000006
:020000040000fa
:0401b4004203000002
:020000040000fa
:0401b80042030000fe
:020000040000fa
:0401bc0042030000fa
:020000040000fa
:0401c00042030000f6
:020000040000fa
:0401c40042030000f2
:020000040000fa
:0401c80042030000ee
:020000040000fa
:0401cc0042030000ea
:020000040000fa
:0401d00042030000e6
:020000040000fa
:0401d40042030000e2
:020000040000fa
:0401d80042030000de
:020000040000fa
:10020000cf8020000eff20000e01880000000000bb
:10021000000020000000e000020032000001200089
:100220002002880014000700180107000000e00009
:1002300003003a0040712100010020000200370055
:100240000000200001002000810f7000010032003a
:1002500014000700000020000000e000020032004f
:100260000000020000000000de1402000000000098
:100270000040da000000fe004440a900e027200012
:100280000000e0000300320000002000a001880010
:100290004440a800000006008a1f78008b1f7800e9
:1002a0000000060091018800800478000000eb0047
:1002b0001a003700e284440032a0b4009905ba0065
:1002c000e284440032a0b4009906ba00e2844400fb
:1002d00032a0b4000006eb00476fde00fd07b2005d
:1002e000636ce10003003a00ebff07000000eb0045
:1002f0000a003700606ce10004003a00005deb008a
:100300008b05e900fdff3e00040037006168e10055
:10031000010032000086eb000b00070019c7ba008d
:100320001905ba000e04e00003003a000a00e000dc
:10033000e0ff3a0000000600fe07b2009e018800c0
:100340008a047800f5ff3700395dba008b05e900b3
:100350000c003200295dba008b05e900080032006c
:100360000c00e00003003a00e284440032a0b40034
:10037000f5ff370019ddba008b05e900faff3a00f6
:100380008904e800e184440032a0b40000000600c3
:10039000809fbe000000fa004016800000407800f8
:1003a0006140600000c0ea00614060000080fb0026
:1003b00061006000411680000100a1000100700092
:1003c0004016880084e0a9000080fa004f00be00bb
:1003d000004006003600f800809fbe00829fbe00ed
:1003e000849fbe00869fbe003400f80000002000fd
:1003f000a00188000000fa0010002000120707008a
:100400000000e0000d003200004080001001780084
:10041000f1f32f00810061000160a0000108780065
:100420000040800010017800c1ff2f0081006100b2
:100430000100a000010878000e0037001000200025
:10044000010707000000e0000a003a0000408000b9
:1004500010017800f1f32f0081006100010878009d
:100460000040800010017800c1ff2f008100610072
:100470000108780020002000f30607000000e000db
:100480000d0032000040800010017800f1cf2f00f5
:10049000810061000180a000010878000040800018
:1004a0001001780031ff2f00810061000120a000c1
:1004b000010878000e00370020002000e206070047
:1004c0000000e0000a003a000040800010017800bf
:1004d000f1cf2f008100610001087800004080000a
:1004e0001001780031ff2f008100610001087800c1
:1004f00030002000d40607000000e0000d003200ac
:100500000040800010017800f13f2f008100610061
:1005100001a0a000010878000040800010017800d0
:10052000f1fc2f00810061000140a000010878006b
:100530000e00370030002000c30607000000e00076
:100540000a003a000040800010017800f13f2f00bf
:1005500081006100010878000040800010017800ef
:10056000f1fc2f00810061000108780085e0a900fe
:100570000080fa003400f9004f03be004f02be00b5
:100580004f01be004f00be003600f90000400600db
:10059000809fbe003400f80000002000a001880009
:1005a0000000fa00304080000000e000200035002c
:1005b00041408000304080000088de00004078002c
:1005c0006140600061406000614060000080fb00ad
:1005d000610060004400dd00d11680000140a100f0
:1005e00001007000d0168800314080005055250071
:1005f0000180de00004078006140600061406000e2
:10060000614060000080fb00610060004300dd008d
:10061000d11680000130a10001007000d0168800c2
:10062000304080000000e9003040880007003700bb
:100630008c60a900da82a900da62a90010c0b300b8
:1006400004e8b700f0002000304088008460a90072
:100650000080fa003400f9004f00be0000400600a0
:10066000801f78000000fa00504080000000e80081
:100670005040880084c0a9000080fa004f00780034
:10068000004006000040da000000fe000000050007
:100690000001be001f0007000470a70003f0a100c6
:1006a0006509b100160032000d0035006828e10030
:1006b00006003500f0ff2f00f1ff27000300e000e7
:1006c00013003b000100280000000500000040006e
:1006d000818048008502e900fcff3a0008003700ed
:1006e000f88f420002003c008000eb000000050093
:1006f0008100d1000080d3008502e800fcff3a00b1
:100700000300e00002003b0060001000e0801800e1
:1007100000000600c70ade00f107b200f50fb200c4
:1007200008003200e1cf4200020032000170a00058
:1007300024000500810f700001003200040805004c
:1007400044000500810f700002003a00140005000b
:100750008502e9000000400081c04800fcff3b002a
:100760000170a00024000500811f78000100e00056
:1007700002003d0060001000e08018000300e0006f
:1007800002003d0060011100e08119000500070032
:100790004f00e00002003b0060001000e080180005
:1007a00000000600040107000400be00000006006f
:1007b000038368000700280007036300470ade0080
:1007c0000480a100c71ade000580a100f70f2000f9
:1007d0000720e100420032000728e100400032001b
:1007e000889fbe008a9fbe008c1f7800f107b20070
:1007f000f307b2000400e000640032000170a000c2
:100800000500e000680032000370a000850542008a
:10081000eb07b1000204b8000302b800848444006e
:1008200060854a00020ab800848444000a854a00b0
:10083000030ab80004054500040033000804d00092
:100840008984d2000a85d2008b05e9006158e10055
:100850003d0035000210200009016100030820005e
:1008600089816100f7072000878364000886730090
:10087000c84cde00c853dd00878474004855de0094
:100880000300e0000600320082037600040032001c
:100890008904e80060054d000a88a3000c003a00b6
:1008a000f70f20000758e10044003d000a70a10046
:1008b000c75ddd000a8575008a00730009007800b5
:1008c0004f0678004f05be004f04be000000060032
:1008d0000a05d1008984d3008b05e800f0ff3700ba
:1008e000881f78000604780090000700070278004f
:1008f0000001fd008101fd008c00070087027800e7
:10090000850372000778a300050032000001fd0096
:100910008101fd009f0007004f04780000000600e1
:10092000850372000748a30003003200f0ff2f0088
:10093000f1ff2700f8ff37000000200001f8270032
:1009400088807000f4ff3700880178004848dd0097
:10095000808171004848de00c850dd000100700051
:10096000c850de00060478000b017800160007006e
:1009700088807000d2ff37000500e00005003200db
:10098000170020003a0007009dff37008103700028
:10099000f9ff3a00860078004f0678004f05be0048
:1009a0004f04be000000050083037100f9ff320010
:1009b000270020002e00070094ff370001f82700d1
:1009c00086807000f4ff37000100e000260032004e
:1009d000610111007810e10023003c006022b800a2
:1009e0007010e100040035008002780001007800fa
:1009f0008000eb00700151000200e00009003400ab
:100a000070031100062add00822ade008603dd0065
:100a1000878272000200de00860bdd000700700096
:100a20008208de0084817100f4ff270004826200e6
:100a300084817100040028008482620061026000e9
:100a400005f0a600000006000482710007003200d5
:100a50000000e800e0804800000006000002be0040
:100a60006000b800efff37006000b800000006002b
:100a7000889fbe000004eb006138e10016003a00d8
:100a80000100e00008003a00c800de004800dd0078
:100a9000880020000100e00003003a00c800de00ea
:100aa0004800dd00680444008184cf00e9845400dc
:100ab000060034008908dd00f08314008703de009f
:100ac000878070000900dd00090444006102140001
:100ad0004f04be00000006000300e00008003a00da
:100ae000c811de004811dd00880020000300e0008e
:100af00003003a00c811de004811dd00680444001c
:100b00008384cf00e9845400060034008919dd0095
:100b1000f08314008713de00878171000911dd0066
:100b200009044400e1021400e9ff37002700200017
:100b300001f0a70017002000470bde00f60fb200ff
:100b4000040032000643e8000a0032004702b30006
:100b50000000060001037800f607b20006037000eb
:100b600002003a000703b300000006008702b3004a
:100b70000000060001037800f607b20006037000cb
:100b8000020032000770a000000006000760a0000d
:100b9000000006000478a300040032000578a300da
:100ba000030032000168a30001003a000200be0009
:100bb0000160a000000006006022b80006022000cc
:100bc0000000d0008180d2000482d2008582d20051
:100bd0000000a0000202520083825a00030031008c
:100be0000202420083824a000000a1000603e900dd
:080bf000f3ff3a0000000600cb
:020000040000fa
:100bf800585800005858000058580000585800002d
:100c0800585800005858000058580000585800001c
:100c1800005800005858000058580000204d0000a7
:100c2800656e0000752000005858000058580000f4
:100c3800580000003e41000063740000696f000026
:100c48006e73000000200000506100007261000017
:100c58006d650000747200006573000000200000dc
:100c680041660000662e0000204500007461000007
:100c7800740000002041000063740000696f0000e8
:100c88006e730000003e00005061000072610000b9
:100c98006d6500007472000065730000003e00007e
:100ca80041660000662e00002045000074610000c7
:100cb800740000003e4d000061720000636800008f
:100cc800652000004c6500006e740000650000009f
:100cd800204d00006172000063680000652000007c
:100ce8005261000070690000646500000020000087
:100cf8004d6f000064650000204d0000616e00002b
:100d0800756500006c000000204d00006172000055
:100d180063680000652000004c6500006e740000e8
:100d2800650000003e4d000061720000636800002d
:100d380065200000526100007069000064650000d1
:100d4800003e00004d6f000064650000204d00006b
:100d5800616e0000756500006c0000003e440000f4
:100d68006574000065630000746900006f6e000020
:100d7800204f000062730000002000005265000050
:100d8800676c0000616700006520000050490000a2
:100d980044000000205600006974000065730000dc
:100da80073650000002000004465000074650000c1
:100db80063740000696f00006e2000004f6200003d
:100dc800730000003e520000656700006c6100007f
:100dd800676500002050000049440000003e000004
:100de8005669000074650000737300006500000018
:100df8005b440000657400006563000074690000ce
:100e08006f6e0000204f0000627300005d0000005c
:100e180044690000733a000020000000456e00009d
:100e280074650000723a00002052000065740000ea
:100e38006f75000072000000215700006172000009
:100e48006e6900006e670000204e00006f200000f1
:100e58004e650000672100000020000020210000ee
:100e680021210000566100006c75000065730000c8
:100e78002121000021200000200000002020000087
:100e8800202000002020000020200000202000005a
:100e98002020000020200000202000000044000046
:100ea80069730000746100006e6300006520000033
:100eb8006f62000073000000446900007374000052
:100ec8003a200000004500006e74000065720000c2
:100ed8003a200000457800006974000000560000c0
:100ee800697400002e2000004d6f0000746500003a
:100ef8007572000073000000473a000020200000cf
:100f080025200000443a00002020000025000000b1
:100f1800436f00006d2e0000204d00006f7400002c
:100f280065750000727300000043000061700000e6
:100f3800746500007572000020490000520000002e
:100f48003030000058300000302000003a20000007
:100f58002b30000030000000204300006f6e0000be
:100f6800666900006775000072610000746900001e
:100f78006f6e00007320000000200000204d00006c
:100f8800697300006573000020610000204a0000ba
:100f98006f75000072200000200000005858000003
:100fa8005858000058580000585800005858000079
:100fb80058580000585800005858000000580000c1
:100fc80058200000446500006d6100007272000046
:100fd80061670000652100002058000058000000eb
:100fe80042750000747400006f6e0000203100002c
:100ff800203d000020310000005800005858000033
:101008005858000058580000580000004275000069
:10101800747400006f6e000020320000203d000054
:10102800203100000042000075740000746f000059
:101038006e200000332000003d2000003100000039
:1010480042750000747400006f6e000020330000c9
:10105800203d0000203200000042000075740000ae
:10106800746f00006e200000312000003d20000059
:101078003000000042750000747400006f6e0000bc
:1010880020320000203d0000203000000042000017
:1010980075740000746f00006e200000332000009b
:1010a8003d20000030000000204300006f6e00006b
:1010b80066690000677500007261000074690000cd
:1010c8006f6e00007320000000200000204d00001b
:1010d800697300006573000020610000204a000069
:0c10e8006f750000722000002000000066
:020000040000fa
:1010f4007c00fa00a10720008e8040008008780060
:10110400100707000000eb00000f78008000eb00e0
:101114000e80e80001087800900c200001002000f7
:10112400640147000089be008000eb0068004700ae
:1011340001087800f6004700310009008018eb0030
:1011440001c3b300760047000148780011c3b3001f
:10115400770047000148780021c3b30078004700b6
:101164000148780031c3b300790047000148780092
:1011740041c3b3007a0047000148780051c3b3006b
:101184007b0047000148780061c3b3007c0047003e
:101194000148780071c3b3007d004700014878001e
:1011a40081c3b3007e0047000148780091c3b300b7
:1011b4007f004700014878008000eb006a00470088
:1011c40001087800411f200010c0b3004c0507003f
:1011d4008000eb000000eb00af050700c05f2800b3
:1011e400970507008000eb0010002000aa05070007
:1011f400d0602800920507008000eb00200020004a
:10120400a5050700c05f28008d0507000000200029
:1012140001f82300ac030700411f200010c0b300f5
:10122400370507008000eb006c00470001087800d8
:101234008000eb000e80e80001087800a007200081
:101244000e004000100078009000780000c02000dc
:101254008080600000402000808f500005003a002c
:101264001e0fe800d0cc2c00c1e423009603070035
:1012740073003700a00720000e0040001000780023
:101284009000780000302000808060000010200072
:10129400808f50000a003a00640047001000be002e
:1012a40061004000e0804800640147000089be00fe
:1012b400d0cc2c00c1e42300830307006000370076
:1012c400a00720000e004000100078009000780075
:1012d400000c20008080600000042000808f5000fb
:1012e4000a003a00640047001000be00610050008c
:1012f400e0805800640147000089be00d0cc2c0077
:10130400c1e42300700307004d0037006400470068
:101314001000be00320020000300200011fd070071
:10132400e00f5000e08f580010003a008000eb00fe
:101334000000eb0058050700e061280040050700a5
:101344008000eb00100020005305070070622800a5
:101354003b0507008000eb00200020004e0507003d
:101364003063280036050700350037006400470065
:101374001000be003200200003002000f9fc07002a
:101384000001be001000200001002000800f510069
:10139400818f590010003a008000eb000000eb0040
:1013a4003d050700e0632800250507008000eb00e9
:1013b400100020003805070070642800200507008d
:1013c4008000eb0020002000330507003063280074
:1013d4001b0507001a003700640047001000be0018
:1013e4003200200003002000defc07000001be00e4
:1013f4002000200001002000800f5100818f59003f
:101404000f003a008000eb000000eb00220507000b
:10141400e06328000a0507008000eb0010002000ac
:101424001d05070070622800050507008000eb0019
:10143400200020001805070030652800000507007b
:101444001e0078000000e0007cff3200411f2000f5
:1014540010c0b300aa040700640047001000be00d7
:101464003200200003002000befc0700e00f500003
:10147400e08f5800a1003a00900c200001002000e9
:10148400640147000089be00a00720000e00400050
:10149400100078009000780000c020008080600078
:1014a40000402000808f500002003a001e0fe80028
:1014b40073003700a00720000e00400010007800e1
:1014c4009000780000302000808060000010200030
:1014d400808f50000a003a00640047001000be00ec
:1014e40061004000e0804800640147000089be00bc
:1014f400d0cc2c00c1e42300f302070060003700c5
:10150400a00720000e004000100078009000780032
:10151400000c20008080600000042000808f5000b8
:101524000a003a00640047001000be006100500049
:10153400e0805800640147000089be00d0cc2c0034
:10154400c1e42300e00207004d00370064004700b7
:101554001000be00320020000300200081fc0700c0
:10156400e00f5000e08f580010003a008000eb00bc
:101574000000eb00c8040700e0652800b004070081
:101584008000eb0010002000c3040700c0662800a0
:10159400ab0407008000eb0020002000be0407001d
:1015a400b0672800a6040700350037006400470030
:1015b4001000be00320020000300200069fc070078
:1015c4000001be001000200001002000800f510027
:1015d400818f590010003a008000eb000000eb00fe
:1015e400ad04070080682800950407008000eb0024
:1015f40010002000a8040700606928009004070078
:101604008000eb0020002000a3040700b06728003e
:101614008b0407001a003700640047001000be0066
:1016240032002000030020004efc07000001be0031
:101634002000200001002000800f5100818f5900fc
:101644000f003a008000eb000000eb00920407005a
:10165400806828007a0407008000eb001000200056
:101664008d040700c0662800750407008000eb00a5
:101674002000200088040700506a28007004070036
:10168400a00720000e0040001000780090007800b1
:10169400000c20008080600000042000808f500037
:1016a40012003a00a00720000e004000100078004d
:1016b400900078000030200080806000001020003e
:1016c400808f500009003a001e0fe9001e007800c8
:1016d4000000e00002003a000000eb00000f780078
:1016e400411f200010c0b300050407001e0078004d
:1016f400e10f500064ff32004302370064004700ea
:101704001000be00320020000300200015fc07007a
:101714000001be001000200001002000800f5100d5
:10172400818f590052013a00900c200001002000e2
:10173400640147000089be00a00720000e0040009d
:10174400100078009000780000c0200080806000c5
:1017540000402000808f500005003a001e0fe80072
:10176400d0cc2c00c1e423005702070073003700db
:10177400a00720000e0040001000780090007800c0
:10178400003020008080600000102000808f500016
:101794000a003a00640047001000be0061004000e7
:1017a400e0804800640147000089be00d0cc2c00d2
:1017b400c1e423004402070060003700a0072000b2
:1017c4000e0040001000780090007800000c20000b
:1017d4008080600000042000808f50000a003a00de
:1017e400640047001000be0061005000e080580013
:1017f400640147000089be00d0cc2c00c1e4230062
:10180400310207004d003700640047001000be009d
:101814003200200003002000d2fb0700e00f50003c
:10182400e08f580010003a008000eb000000eb004d
:1018340019040700206b2800010407008000eb0056
:101844001000200014040700106c2800fc0307009b
:101854008000eb00200020000f040700e06c28004b
:10186400f703070035003700640047001000be008e
:101874003200200003002000bafb07000001be0074
:101884001000200001002000800f5100818f5900ba
:1018940010003a008000eb000000eb00fe0307009c
:1018a400706d2800e60307008000eb0010002000a4
:1018b400f9030700606e2800e10307008000eb00d5
:1018c40020002000f4030700e06c2800dc0307007c
:1018d4001a003700640047001000be0032002000e8
:1018e400030020009ffb07000001be002000200031
:1018f40001002000800f5100818f59000f003a0031
:101904008000eb000000eb00e3030700706d28008b
:10191400cb0307008000eb0010002000de0307006b
:10192400106c2800c60307008000eb002000200094
:10193400d9030700306f2800c1030700a007200067
:101944000e0040001000780090007800000c200089
:101954008080600000042000808f500012003a0054
:10196400a00720000e0040001000780090007800ce
:10197400003020008080600000102000808f500024
:1019840009003a001e0fe9001e0078000000e00084
:1019940002003a000000eb00000f7800411f200015
:1019a40010c0b300560307001e007800e10f50007a
:1019b40061ff3200900c2000010020006401470008
:1019c4000089be00411f200010c0b3004c03070073
:1019d400640047001000be00320020000300200015
:1019e40060fb0700e00f5000e08f580086013a00ca
:1019f400a00720000e00400010007800900078003e
:101a040000c020008080600000402000808f5000d3
:101a140005003a001e0fe800d0cc2c00c1e42300de
:101a2400a901070023003700a00720000e00400092
:101a34001000780090007800003020008080600062
:101a440000102000808f500009003a006a0047000f
:101a5400100078008000e8006a0047000108780060
:101a6400d0cc2c00c1e423009701070011003700fb
:101a7400a00720000e0040001000780090007800bd
:101a8400000c20008080600000042000808f500043
:101a940008003a006a004700100078008000e9005e
:101aa4006a00470001087800d0cc2c00c1e4230070
:101ab400850107006a00470010007800e90f500014
:101ac40016003c008000eb000000eb0072030700ee
:101ad400c06f28005a0307008000eb0010002000ac
:101ae4006d030700c0702800550307007600470007
:101af400ea0047009100780001004000104078009f
:101b04003b0307008000eb00200020006203070075
:101b1400207128004a030700510037006a0047007b
:101b2400100078000000e00016003d008000eb008b
:101b34000000eb0058030700007228004003070070
:101b44008000eb00100020005303070010732800ee
:101b54003b0307008000eb00200020004e03070039
:101b640020742800360307000000200001fc230035
:101b7400550107008000eb006a0047000108780067
:101b8400370037006a00470010007800e90f500062
:101b9400330034008000eb000000eb003e0307003c
:101ba400c06f2800260307008000eb00100020000f
:101bb40039030700c0702800210307006a004700aa
:101bc400e8004700110878006a0047001001780017
:101bd400706626000090b900c288de004f90de00d7
:101be40080805000680047000108780076004700b4
:101bf400e8004700910078000100400010407800a0
:101c0400fb0207006a004700100078007166260096
:101c14000181b9004299de00cf80de0081005100cd
:101c24006a09b90082007800810050006a00470008
:101c34000108780076004700ea0047009100780028
:101c44000100400010407800e90207008000eb002a
:101c5400200020001003070020712800f80207006c
:101c64001e007800e20f500061ff3200e6003700ea
:101c7400640047001000be00320020000300200072
:101c8400b8fa07000001be00200020000100200077
:101c9400800f5100818f5900db003a000e80e8006c
:101ca400100078000000e00032003a008000eb00f1
:101cb4000000eb00f802070030752800e00207007e
:101cc4008000eb0010002000f302070000762800db
:101cd400db0207008000eb0020002000ee0207007a
:101ce40070762800d60207000e80e8001000780005
:101cf4008000e8000e80e800010878001c0407005a
:101d0400800078006e004700010878000e0037005c
:101d1400a00720000e00400010007800900078001a
:101d240000c020008080600000402000808f5000b0
:101d340005003a000000eb00000f7800a10020002d
:101d44000e80e80001087800017d20006e00470045
:101d5400100078000a0407000004a2000004e00058
:101d6400ebff3a00411f200010c0b30064020700db
:101d7400a20037000e80e80010007800e10f500048
:101d840032003a008000eb000000eb00c2020700c2
:101d940030772800aa0207008000eb001000200022
:101da400bd02070000782800a50207008000eb00b0
:101db40020002000b802070070762800a002070067
:101dc4000e80e800100078008000e8000e80e80033
:101dd40001087800e60307008000780070004700df
:101de400010878000e003700a00720000e00400014
:101df400100078009000780000c02000808060000f
:101e040000402000808f500005003a000000eb00e5
:101e1400000f7800a10020000e80e800010878007f
:101e2400017d20007000470010007800d4030700f3
:101e34000004a2000004e000ebff3a00411f200070
:101e440010c0b3002e0207006c0037000e80e800bb
:101e540010007800e20f500032003a008000eb00de
:101e64000000eb008c020700c07828007402070011
:101e74008000eb0010002000870207000078280093
:101e84006f0207008000eb002000200082020700a0
:101e9400707628006a0207000e80e80010007800bf
:101ea4008000e8000e80e80001087800b003070015
:101eb4008000780072004700010878000e003700a7
:101ec400a00720000e004000100078009000780069
:101ed40000c020008080600000402000808f5000ff
:101ee40005003a000000eb00000f7800a10020007c
:101ef4000e80e80001087800017d20007200470090
:101f0400100078009e0307000004a2000004e00013
:101f1400ebff3a00411f200010c0b300f801070096
:101f2400360037000e80e80010007800e30f500000
:101f340030003a008000eb000000eb00560207007e
:101f4400907928003e0207008000eb00100020007a
:101f540051020700407a2800390207008000eb0094
:101f6400200020004c02070070762800340207008d
:101f74008000eb000e80e800010878007c03070075
:101f84008000780074004700010878000e003700d4
:101f9400a00720000e004000100078009000780098
:101fa40000c020008080600000402000808f50002e
:101fb40005003a000000eb00000f7800a1002000ab
:101fc4000e80e80001087800017d200074004700bd
:101fd400100078006a0307000004a2000004e00077
:101fe400ebff3a00411f200010c0b300c4010700fa
:101ff400020037000000eb00000f78001e0078009c
:10200400e10f500025ff32001e007800e20f50005f
:1020140087fc3400411f200010c0b300b801070042
:10202400007b2800060207008000eb00100020005f
:1020340019020700107c2800010207000080fa0042
:10204400000006000200fa00000f78001e0078006d
:10205400e20f50000b003200e30f5000100032007a
:10206400e10f500015003a00401680006100600046
:1020740000f0a7000000ea000000e9004f00de00c5
:102084000f003700401680006200600000f0a700d7
:102094000000ea000000e9004f00de0008003700fd
:1020a400401680006400600000f0a7000000ea0011
:1020b4000000e9004f00de00010037000000eb00e3
:1020c4000080fa00000006000800fa0064014700de
:1020d4000089be006400470002002000a3472400da
:1020e4001000be00b1f9070068f907000e81e8008e
:1020f400000978000000eb00000f780003003700af
:10210400400620003c0107001e0fe8000e80e80096
:10211400100078009e007800808f5000f8ff350092
:102124000080fa00000006000000fa000080eb00c6
:1021340040158800aa22ef00800e200000158800b8
:10214400a222ef00f0f3210020158800a622ef0060
:102154008560a9008d60a900a1e2a8000080fa00b2
:10216400000006000000fa00e0ff2f004015880080
:10217400aa22ef00800e200000158800a222ef00a2
:10218400f0f3210020158800a622ef008560a90045
:102194008d60a900a1e2a8000080fa0000000600fa
:1021a4000000fa00c0ff2f0040158800aa22ef00ab
:1021b400800e2000001588000030200010158800d3
:1021c400f0f3210020158800a622ef008560a90005
:1021d4008d60a900a1e2a8000080fa0000000600ba
:1021e4000000fa0000ff2f0040158800aa22ef002b
:1021f400800e200000158800003020001015880093
:10220400f0f32100201588003030200030158800bc
:102214008560a9008d60a900a1e2a8000080fa00f1
:10222400000006000000fa00f0fc2f0040158800b2
:10223400aa22ef00800e2000001588000030200044
:1022440010158800f0f321002015880000022200f8
:10225400301588008560a9008d60a900a1e2a8005e
:102264000080fa00000006000000fa0000fe2f00c3
:1022740040158800f001200050158800000e200051
:10228400001588004041200010158800f0f321005b
:1022940020158800a622ef008560a9008d60a900a2
:1022a400a1e2a8000080fa00000006000000fa0085
:1022b40000fc2f0040158800f00320005015880012
:1022c400000e2000001588004041200010158800f1
:1022d400f0f3210020158800a622ef008560a900f4
:1022e4008d60a900a1e2a8000080fa0000000600a9
:1022f4000200fa00004f78001e407800e54f5000bd
:102304000200360050c0b300004f78001e80fb006e
:10231400110020000008dd000080ea00401588005c
:102324009e4078006fc060000080fb006f0060007a
:102334003215800001ff2f00810061000100700050
:1023440030158800a022a8000000000000158000bd
:10235400610060000000e000fcff32000014800017
:102364000080fa00000006000200fa00000f780066
:10237400a022a80000000000001580006100600099
:102384000000e000fcff3200011480001e00780011
:10239400010878000080fa00000006000400fa003a
:1023a400000f78000e80e80001087800a022a80041
:1023b4000000000000158000610060000000e000e3
:1023c400fcff3200111480001e0078000108780020
:1023d400211480000e80e8001000780001087800c5
:1023e4000080fa00000006000800fa00000f7800e0
:1023f4000e80e800010878006400470002087800b5
:102404006600470003087800a022a800000000002e
:1024140000158000610060000000e000fcff320055
:10242400111480001e007800010878002114800037
:102434000e80e80010007800010878003114800054
:10244400640047001000780001087800011480003f
:102454006600470010007800010878000080fa0048
:10246400000006000400fa00000f78000e80e80067
:1024740001087800a022a8000000000000158000d8
:10248400610060000000e000fcff320021148000c5
:102494001e00780001087800311480000e80e800e6
:1024a40010007800010878000080fa00000006009f
:1024b4000a00fa00000f78000e80e8000108780096
:1024c40064004700020878006600470003087800ab
:1024d4006800470004087800a042a800000000003b
:1024e40000158000610060000000e000fcff320085
:1024f400a042a900011480001e00780001087800a1
:10250400111480000e80e8001000780001087800a3
:10251400211480006400470010007800010878004e
:10252400311480006600470010007800010878002c
:10253400411480006800470010007800010878000a
:102544000080fa00000006000c00fa00000f78007a
:102554000e80e80001087800640047000208780053
:102564006600470003087800680047000408780004
:102574006a00470005087800a042a8000000000097
:1025840000158000610060000000e000fcff3200e4
:10259400a042a900011480001e0078000108780000
:1025a400111480000e80e800100078000108780003
:1025b40021148000640047001000780001087800ae
:1025c400311480006600470010007800010878008c
:1025d400411480006800470010007800010878006a
:1025e400511480006a004700100078000108780048
:1025f4000080fa00000006000400fa008e80e80063
:10260400800878000000eb00000f7800030037001a
:1026140027010900000000001e0fe8009e0078005a
:102624000e80e80010007800808f5000f8ff390019
:102634000080fa00000006000000fa000421ef0008
:102644000021ef00102e200010088800da62a90093
:10265400da82a900c116800070fe2f00008060009d
:10266400c016880005e1a8000080fa0000000600fa
:102674000400fa008e80e800804878000828ef0003
:102684000000eb00000f780011003700404080008c
:102694004200dd00404088000e80e80010407800d1
:1026a4008000fb00720020001e0051000088de0044
:1026b40061006000004078000004e0000300320084
:1026c400404080003000b300404088001e0fe80006
:1026d4001e007800e70f5000ecff34000468ef00a0
:1026e4000021ef008c60a8000080fa0000000600c2
:1026f4000000fa0004c8bf000080fa0000000600d1
:102704000400fa00004f78000e80e8000108780009
:10271400da22a90050002000b7ff0700da02a9005e
:1027240050002000b4ff07001e407800d0ff0700cf
:1027340000000000eeff07000004a2000004e00017
:10274400fcff3a000e80e80010007800aaff0700a2
:10275400da22a8000080fa00000006000000fa0057
:10276400d802a900d822a900d842a900b2ff0700c4
:102774009101200090c3b300e1ff07009101200004
:1027840090c3b300deff070091012000d0c1b30065
:10279400dbff07009101200070c7b300d8ff0700da
:1027a4009101200020c5b300d5ff070081bb2000a4
:1027b40090c6b300d2ff0700411f200010c0b30031
:1027c400cfff070091012000c0c0b300ccff070079
:1027d4009101200060c0b300c9ff0700411f200021
:1027e40020c0b300c6ff07000080fa000000060006
:1027f4000200fa00004f7800da22a90050002000fd
:102804007dff0700da02a800500020007aff0700cd
:102814001e40780096ff070000000000b4ff070088
:102824000004a2000004e000fcff3a009001200034
:1028340071ff0700da22a8000080fa0000000600f9
:102844000400fa008e80e800800878000000eb00a5
:10285400000f7800070037009e0078000e80e80023
:102864001000780001004000104078001e0fe800be
:10287400dfff07009e0078000e80e800100078005b
:1028840001004000104078000004e000f2ff3a002c
:102894000080fa00000006000400fa00000f78002f
:1028a4000e80e800010878001e007800e20f500056
:1028b4000f003e000e80e80010007800ef0f50007b
:1028c4000d003e001e00780000407800c400dd00ca
:1028d4000e80e800100078000040780000c040003e
:1028e4000074a0009101200085ff07000300370059
:1028f4000000000001003700000000000080fa0022
:10290400000006000200fa00000f7800f003200027
:102914009e007800808f500010003e001e0078005a
:102924004400de0000407800e340600000c5b300ce
:1029340000c070009101200071ff07001e007800a4
:1029440000407800ef40600000c7b30000c0700092
:10295400910120006aff0700010037000000000019
:102964000080fa00000006000000fa00c040a80041
:10297400c060a800c080a8000080fa000000060023
:102984000000fa0085e0a9008de0a8000080fa00ac
:10299400000006000000fa00c602a800c622a80033
:1029a400c642a800c440a800c460a800c480a8000f
:1029b4000080fa00000006000400fa000080eb002a
:1029c40040158800e00f200030168800c822ef0070
:1029d400dc000700efff070060ff07009101200003
:1029e400c0c0b30046ff070080022000c5ff0700f7
:1029f4008000eb000000eb00a7ff0700207d28000b
:102a04008fff07008000eb0010002000a2ff0700ea
:102a1400307e28008aff07008000eb0020002000a1
:102a24009dff0700207d280085ff0700000020008f
:102a340001f82300a4fd070010002000000f780017
:102a4400c9ff070085e0a900cdff07002080200012
:102a54000040880000408000a5f90700411f2000c5
:102a640010c0b30026ff0700c100070080007800f3
:102a74000e80e80001087800050037008000eb00b4
:102a84000000eb0084ff0700407f28006cff070074
:102a9400004080009000780000c02000808060002a
:102aa40000402000808f5000f4ff32000f003700f8
:102ab4008000eb000000eb0077ff07001080280087
:102ac4005fff07008000eb001000200072ff07008a
:102ad400108028005aff07008000eb00200020002f
:102ae4006dff07001080280055ff0700004080009c
:102af40090007800000c200080806000000420001a
:102b0400808f50000e003a00004080009000780052
:102b1400003020008080600000102000808f500072
:102b2400e3ff3200070037008000eb0010002000b4
:102b340059ff0700a080280041ff0700010037006b
:102b44000000000000408000900078000030200069
:102b54008080600000102000808f5000f2ff32005f
:102b6400150037008000eb00200020004aff07001a
:102b74007081280032ff0700050037008000eb0059
:102b84002000200044ff0700408228002cff07009b
:102b9400017d20000e80e800100078007800070016
:102ba4000004e000040032001000200025fd0700ae
:102bb4000000e000f1ff3a0000408000900078003f
:102bc400000c20008080600000042000808f5000f2
:102bd400e4ff32000f0037008000eb000000eb0040
:102be4002dff07001083280015ff07008000eb006d
:102bf4001000200028ff0700e083280010ff0700d2
:102c04008000eb002000200023ff0700b084280090
:102c14000bff070000408000900078000030200087
:102c2400008060000000e0000c003a0000408000da
:102c340090007800000c2000008060000000e0009c
:102c440006003a00004080009000780000c0200098
:102c5400008060000000e000dfff32001e0078000a
:102c6400e10f500080ff3200411f200010c0b3006c
:102c7400a3fe070080852800f1fe07008000eb001a
:102c84001000200004ff070090862800ecfe0700d7
:102c9400ffff37000600fa00000f78000e80e800fe
:102ca4000288be00c0002000000e88009e0078004c
:102cb400210e88000e80e800100078000080ea00f1
:102cc400400e8800ca21ef00cc21ef00d021ef0094
:102cd4000080fa00000006000200fa00000f7800ed
:102ce4001e00780000407800614060000080fb0016
:102cf4004f00dd00010e800001f0a1000100700012
:102d0400000e88000080fa00000006000200fa00ad
:102d1400000f78001e00780000004000b00e88000c
:102d24000080fa00000006000200fa00000f78009c
:102d34001e00780000004000c00e88000080fa00e9
:102d4400000006000000fa000a28ef000621ef0048
:102d540000332700600888001021ef0084c0a90018
:102d64008cc0a80011e1a8000080fa000000060051
:102d74000000fa00504080000080fa0000000600c5
:102d84000400fa00000f78000e80e80001087800c3
:102d9400504080001e0050008000780010c0b30036
:102da4000e81e80012017800828f500001003e007d
:102db4000040eb000080fa00000006000400fa0066
:102dc400008fbe001221ef001021ef000621ef005a
:102dd4000a21ef001e00be004008de00000078005b
:102de400700888001e007800600888001061a80040
:102df4000080fa00000006000000fa00b104800020
:102e0400f0ff28000080600000c0a000b00488002b
:102e140084e0a9008ce0a80011e1a8000080fa0079
:042e240000000600a4
:020000040000fa
:102e2800000800000400000000000000080800007e
:102e38000200000000000000040800000400000078
:102e48000200000001000f00000000000a08000056
:0c2e58000200000000000000000000006c
:020000040000fa
:0200000401f009
:04000000f7bf000046
:020000040000fa
:0200000401f009
:04000400ff7f00007a
:020000040000fa
:0200000401f009
:04000800ffff0000f6
:020000040000fa
:0200000401f009
:04001400ffffff00eb
:020000040000fa
:0200000401f009
:04001800ffff0000e6
:00000001FF
