:020000040000fa
:080000000001040000000000f3
:020000040000fa
:04000800a202000050
:020000040000fa
:04000c00a20200004c
:020000040000fa
:04001000a202000048
:020000040000fa
:04001400a202000044
:020000040000fa
:04001800a202000040
:020000040000fa
:04001c00a20200003c
:020000040000fa
:04002000a202000038
:020000040000fa
:04002400a202000034
:020000040000fa
:04002800a202000030
:020000040000fa
:04002c00a20200002c
:020000040000fa
:04003000a202000028
:020000040000fa
:040034003a0200008c
:020000040000fa
:04003800a202000020
:020000040000fa
:04003c00a20200001c
:020000040000fa
:04004000a202000018
:020000040000fa
:04004400c8010000ef
:020000040000fa
:04004800a202000010
:020000040000fa
:04004c00a20200000c
:020000040000fa
:04005000a202000008
:020000040000fa
:04005400a202000004
:020000040000fa
:04005800a202000000
:020000040000fa
:04005c00a2020000fc
:020000040000fa
:04006000a2020000f8
:020000040000fa
:04006400ea010000ad
:020000040000fa
:04006800a2020000f0
:020000040000fa
:04006c00a2020000ec
:020000040000fa
:04007000a2020000e8
:020000040000fa
:04007400a2020000e4
:020000040000fa
:04007800a2020000e0
:020000040000fa
:04007c00a2020000dc
:020000040000fa
:04008000a2020000d8
:020000040000fa
:04008400a2020000d4
:020000040000fa
:04008800a2020000d0
:020000040000fa
:04008c00a2020000cc
:020000040000fa
:04009000a2020000c8
:020000040000fa
:04009400a2020000c4
:020000040000fa
:04009800a2020000c0
:020000040000fa
:04009c00a2020000bc
:020000040000fa
:0400a000a2020000b8
:020000040000fa
:0400a400a2020000b4
:020000040000fa
:0400a800a2020000b0
:020000040000fa
:0400ac00a2020000ac
:020000040000fa
:0400b000a2020000a8
:020000040000fa
:0400b400a2020000a4
:020000040000fa
:0400b800a2020000a0
:020000040000fa
:0400bc00a20200009c
:020000040000fa
:0400c000a202000098
:020000040000fa
:0400c400a202000094
:020000040000fa
:0400c800a202000090
:020000040000fa
:0400cc00a20200008c
:020000040000fa
:0400d000a202000088
:020000040000fa
:0400d400a202000084
:020000040000fa
:0400d800a202000080
:020000040000fa
:04010800a20200004f
:020000040000fa
:04010c00a20200004b
:020000040000fa
:04011000a202000047
:020000040000fa
:04011400a202000043
:020000040000fa
:04011800a20200003f
:020000040000fa
:04011c00a20200003b
:020000040000fa
:04012000a202000037
:020000040000fa
:04012400a202000033
:020000040000fa
:04012800a20200002f
:020000040000fa
:04012c00a20200002b
:020000040000fa
:04013000a202000027
:020000040000fa
:040134003a0200008b
:020000040000fa
:04013800a20200001f
:020000040000fa
:04013c00a20200001b
:020000040000fa
:04014000a202000017
:020000040000fa
:04014400c8010000ee
:020000040000fa
:04014800a20200000f
:020000040000fa
:04014c00a20200000b
:020000040000fa
:04015000a202000007
:020000040000fa
:04015400a202000003
:020000040000fa
:04015800a2020000ff
:020000040000fa
:04015c00a2020000fb
:020000040000fa
:04016000a2020000f7
:020000040000fa
:04016400ea010000ac
:020000040000fa
:04016800a2020000ef
:020000040000fa
:04016c00a2020000eb
:020000040000fa
:04017000a2020000e7
:020000040000fa
:04017400a2020000e3
:020000040000fa
:04017800a2020000df
:020000040000fa
:04017c00a2020000db
:020000040000fa
:04018000a2020000d7
:020000040000fa
:04018400a2020000d3
:020000040000fa
:04018800a2020000cf
:020000040000fa
:04018c00a2020000cb
:020000040000fa
:04019000a2020000c7
:020000040000fa
:04019400a2020000c3
:020000040000fa
:04019800a2020000bf
:020000040000fa
:04019c00a2020000bb
:020000040000fa
:0401a000a2020000b7
:020000040000fa
:0401a400a2020000b3
:020000040000fa
:0401a800a2020000af
:020000040000fa
:0401ac00a2020000ab
:020000040000fa
:0401b000a2020000a7
:020000040000fa
:0401b400a2020000a3
:020000040000fa
:0401b800a20200009f
:020000040000fa
:0401bc00a20200009b
:020000040000fa
:0401c000a202000097
:020000040000fa
:0401c400a202000093
:020000040000fa
:0401c800a20200008f
:020000040000fa
:0401cc00a20200008b
:020000040000fa
:0401d000a202000087
:020000040000fa
:0401d400a202000083
:020000040000fa
:0401d800a20200007f
:020000040000fa
:10020000cf8020000eff20000e01880000000000bb
:10021000000020000000e000020032000001200089
:100220002002880014000700c80007000000e0005a
:1002300003003a0040f920000100200002003700ce
:100240000000200001002000810f7000010032003a
:1002500014000700000020000000e000020032004f
:100260000000020000000000100e0200000000006c
:100270000040da000000fe004440a9000018200001
:100280000000e0000300320000002000a001880010
:100290004440a800000006008a1f78008b1f7800e9
:1002a0000000060091018800800478000000eb0047
:1002b0001a003700e284440032a0b4009905ba0065
:1002c000e284440032a0b4009906ba00e2844400fb
:1002d00032a0b4000006eb00476fde00fd07b2005d
:1002e000636ce10003003a00ebff07000000eb0045
:1002f0000a003700606ce10004003a00005deb008a
:100300008b05e900fdff3e00040037006168e10055
:10031000010032000086eb000b00070019c7ba008d
:100320001905ba000e04e00003003a000a00e000dc
:10033000e0ff3a0000000600fe07b2009e018800c0
:100340008a047800f5ff3700395dba008b05e900b3
:100350000c003200295dba008b05e900080032006c
:100360000c00e00003003a00e284440032a0b40034
:10037000f5ff370019ddba008b05e900faff3a00f6
:100380008904e800e184440032a0b40000000600c3
:10039000809fbe000000fa004016800000407800f8
:1003a0006140600000c0ea00614060000080fb0026
:1003b00061006000411680000100a1000100700092
:1003c0004016880084e0a9000080fa004f00be00bb
:1003d000004006003600f800809fbe00829fbe00ed
:1003e000849fbe00869fbe003400f80000002000fd
:1003f000a00188000000fa00100020008c03070014
:100400000000e0000200320010c0b30002e8b700b4
:1004100020002000860307000000e00002003200f8
:1004200010c0b30001e8b7003000200080030700cf
:100430000000e0000300320010c0b30000e8b70085
:10044000030037000268ef000168ef000068ef006a
:1004500085e0a9000080fa003400f9004f03be00d7
:100460004f02be004f01be004f00be003600f90033
:1004700000400600809fbe003400f800000020000d
:10048000a00188000000fa00304080000000e00079
:100490002000350051408000304080000088de00a0
:1004a0000040780061406000614060006140600091
:1004b0000080fb00610060004400dd00d116800078
:1004c0000140a10001007000d0168800314080007a
:1004d000505525000180de0000407800614060003a
:1004e00061406000614060000080fb0061006000ce
:1004f0004300dd00d11680000130a1000100700032
:10050000d0168800304080000000e90030408800ac
:10051000070037008c60a900da82a900da62a9001e
:1005200010c0b30004e8b700f0002000304088009d
:100530008460a9000080fa003400f9004f00be007a
:10054000004006000040da000000fe000000050048
:100550000001be001f0007000470a70003f0a10007
:100560006509b100160032000d0035006828e10071
:1005700006003500f0ff2f00f1ff27000300e00028
:1005800013003b00010028000000050000004000af
:10059000818048008502e900fcff3a00080037002e
:1005a000f88f420002003c008000eb0000000500d4
:1005b0008100d1000080d3008502e800fcff3a00f2
:1005c0000300e00002003b0060001000e080180023
:1005d00000000600c70ade00f107b200f50fb20006
:1005e00008003200e1cf4200020032000170a0009a
:1005f00024000500810f700001003200040805008e
:1006000044000500810f700002003a00140005004c
:100610008502e9000000400081c04800fcff3b006b
:100620000170a00024000500038368000700280073
:1006300007036300470ade000480a100c71ade003a
:100640000580a100f70f20000720e10042003200e2
:100650000728e10040003200889fbe008a9fbe004c
:100660008c1f7800f107b200f307b2000400e0002d
:10067000640032000170a0000500e0006800320054
:100680000370a00085054200eb07b1000204b8002a
:100690000302b8008484440060854a00020ab8005e
:1006a000848444000a854a00030ab8000405450012
:1006b000040033000804d0008984d2000a85d200e7
:1006c0008b05e9006158e1003d0035000210200073
:1006d000090161000308200089816100f7072000fb
:1006e0008783640008867300c84cde00c853dd00b1
:1006f000878474004855de000300e00006003200e5
:1007000082037600040032008904e80060054d0091
:100710000a88a3000c003a00f70f20000758e100f8
:1007200044003d000a70a100c75ddd000a85750028
:100730008a007300090078004f0678004f05be005c
:100740004f04be00000006000a05d1008984d300d2
:100750008b05e800f0ff3700881f7800060478005a
:1007600090000700070278000001fd008101fd00f4
:100770008c00070087027800850372000778a300c9
:10078000050032000001fd008101fd009f0007000f
:100790004f04780000000600850372000748a3009c
:1007a00003003200f0ff2f00f1ff2700f8ff3700b1
:1007b0000000200001f8270088807000f4ff370057
:1007c000880178004848dd00808171004848de00db
:1007d000c850dd0001007000c850de00060478003b
:1007e0000b0178001600070088807000d2ff3700e8
:1007f0000500e00005003200170020003a00070065
:100800009dff370081037000f9ff3a0086007800f1
:100810004f0678004f05be004f04be0000000500e3
:1008200083037100f9ff3200270020002e0007002b
:1008300094ff370001f8270086807000f4ff37002e
:100840000100e00026003200610111007810e10093
:1008500023003c006022b8007010e1000400350065
:1008600080027800010078008000eb0070015100e8
:100870000200e0000900340070031100062add00c8
:10088000822ade008603dd00878272000200de001d
:10089000860bdd00070070008208de008481710095
:1008a000f4ff2700048262008481710004002800a4
:1008b000848262006102600005f0a600000006006c
:1008c00004827100070032000000e800e080480068
:1008d000000006000002be006000b800efff370015
:1008e0006000b80000000600889fbe000004eb0016
:1008f0006138e10016003a000100e00008003a000b
:10090000c800de004800dd00880020000100e00093
:1009100003003a00c800de004800dd00680444001f
:100920008184cf00e9845400060034008908dd008a
:10093000f08314008703de00878070000900dd006b
:1009400009044400610214004f04be0000000600c8
:100950000300e00008003a00c811de004811dd0085
:10096000880020000300e00003003a00c811de0008
:100970004811dd00680444008384cf00e9845400fa
:10098000060034008919dd00f08314008713de00af
:10099000878171000911dd0009044400e10214009f
:1009a000e9ff37002700200001f0a7001700200012
:1009b000470bde00f60fb200040032000643e800e9
:1009c0000a0032004702b30000000600010378006d
:1009d000f607b2000603700002003a000703b300f6
:1009e000000006008702b300000006000103780043
:1009f000f607b20006037000020032000770a00084
:100a0000000006000760a000000006000478a300b4
:100a1000040032000578a300030032000168a3003f
:100a200001003a000200be000160a00000000600c4
:020000040000fa
:100a300058580000585800005858000058580000f6
:100a400058580000585800005858000058580000e6
:100a5000005800005858000058580000204d000071
:100a6000454e00005520000058580000585800001e
:100a700058000000312e00004c7500006d69000028
:100a80006e6f000073690000746500002020000094
:100a900020580000003200002e5400006573000052
:100aa00074200000426f0000757400006f6e00003b
:100ab0002020000020000000423100003d4f0000d7
:100ac0004b2f0000423200003d2d00002f4200005d
:100ad000333d00002b200000003100002e4c0000b0
:100ae000756d0000696e00006f730000697400008e
:100af000652000002020000020000000322e0000b1
:100b00005465000073740000204200006f750000ff
:100b1000746f00006e2000002058000000420000aa
:100b200075740000746f00006e200000312000001a
:100b30003d20000058000000427500007474000061
:100b40006f6e000020320000203d000020580000a1
:100b50000042000075740000746f00006e200000f9
:100b6000332000003d2000005800000042750000c6
:100b7000747400006f6e000020310000203d000002
:100b8000203000000042000075740000746f000007
:100b90006e200000322000003d20000030000000e8
:100ba00042750000747400006f6e00002033000076
:100bb000203d000020300000004c0000756d00005a
:100bc000696e00006f73000069740000650000002a
:100bd0005858000058580000585800005858000055
:100be00058580000585800005800000042310000da
:100bf0003d4f00004b2f0000423200003d2d000011
:100c00002f420000333d00002b0000005858000028
:100c10005858000058580000585800005858000014
:100c2000585800005858000058580000005800005c
:100c300058200000446500006d61000072720000e1
:100c40006167000065210000205800005800000086
:100c500042750000747400006f6e000020310000c7
:100c6000203d000020580000004200007574000084
:100c7000746f00006e200000322000003d20000054
:100c80005800000042750000747400006f6e000090
:100c900020330000203d00002058000000420000ea
:100ca00075740000746f00006e2000003120000099
:100cb0003d20000030000000427500007474000008
:100cc0006f6e000020320000203d00002030000048
:100cd0000042000075740000746f00006e20000078
:100ce000332000003d2000003000000020430000c1
:100cf0006f6e000066690000677500007261000099
:100d0000746900006f6e0000732000000020000076
:100d1000204d000069730000657300002061000031
:100d2000204a00006f7500007220000020000000c3
:020000040000fa
:100d30000e00fa00ec004700800878000000eb008d
:100d4000000f78008000eb000e80e80001087800ba
:100d50006c00470010007800900078006a0047009f
:100d6000010878008000eb0064004700010878006b
:100d70004106200066004700010878006600470031
:100d80009000780010002800008060000000e00063
:100d900004003d000000e900e1ff2f00008070002a
:100da0000000e800e800470080087800411f2000ac
:100db00010c0b300ec020700805128003a0307007e
:100dc0008000eb00100020004d0307009052280027
:100dd000350307008000eb002000200048030700d7
:100de00080512800300307000000200001f8230094
:100df0004f010700411f200010c0b300da020700b6
:100e0000200020000a0107000000e0000800320076
:100e100030002000060107000000e000040032005e
:100e20003100200064004700010878005a003700b4
:100e300010002000fe0007000000e0000500320066
:100e40000e80e800100078008000e8000e80e800c6
:100e50000108780020002000f50007000000e000f5
:100e600008003200411f200010c0b300be0207007e
:100e700066004700100078008000e9006600470027
:100e80000108780030002000e90007000000e000c1
:100e900008003200411f200010c0b300b20207005a
:100ea00066004700100078008000e80066004700f8
:100eb00001087800660047001000780061006000bb
:100ec0000000e00012003a008000eb000000eb00a0
:100ed0000b030700a0532800f30207008000eb007b
:100ee0001000200006030700b0542800ee0207009f
:100ef0008000eb002000200001030700c0552800ff
:100f0000e902070011002000640047000108780092
:100f10006600470090007800100028000080600004
:100f20000000e00004003d000000e900e1ff2f00a8
:100f3000008070000000e800e10f500012003a004d
:100f40008000eb000000eb00ed020700d056280007
:100f5000d50207008000eb0010002000e802070027
:100f6000e0572800d00207008000eb00200020009e
:100f7000e3020700c0552800cb0207002100200033
:100f800064004700010878000e80e8001000780037
:100f90000000e0009aff3400411f200010c0b300a1
:100fa000710207006400470010007800e20f500053
:100fb00052003a00100020009d0007000000e000f1
:100fc00008003a0020002000990007000000e0001f
:100fd00004003a0030002000950007000000e00007
:100fe0001c00320010002000910007000000e0000b
:100ff000050032008000eb000000eb00c00207009b
:10100000f0582800a80207002000200088000700f0
:101010000000e000050032008000eb00100020001e
:10102000b7020700c05928009f02070030002000c7
:101030007f0007000000e000240032008000eb0089
:1010400020002000ae020700905a280096020700f8
:101050001e00370010002000750007000000e000af
:101060000800320020002000710007000000e000ae
:1010700004003200300020006d0007000000e00096
:1010800012003a00411f200010c0b30036020700d2
:101090008000eb000000eb0099020700605b280075
:1010a000810207008000eb0010002000940207007e
:1010b000305c28007c0207008000eb00200020004c
:1010c0008f020700005d2800770207001000200053
:1010d000570007000000e000080032002000200058
:1010e000530007000000e000040032003000200040
:1010f0004f0007000000e000aeff3a006400470028
:1011000010007800e10f50003e003a00411f20001f
:1011100010c0b300140207008000eb000000eb00d9
:1011200077020700d05d28005f0207008000eb0017
:101130001000200072020700805e28005a0207009b
:101140008000eb00200020006d020700605f280097
:101150005502070030002000350007000000e000c5
:101160000f0032006a00470010007800e4004000e1
:101170006a004700010878006a0047009000780084
:1011800000042000808f5000030034000104200080
:101190006a004700010878006a0047004500070020
:1011a00020002000220007000000e0000e003200b6
:1011b0006a00470010007800e40050006a00470011
:1011c000010878006a004700100078000000e00085
:1011d00003003d008000eb006a0047000108780032
:1011e0006a004700330007001000200010000700cd
:1011f0000000e000d7ff3a006a00470010007800c6
:101200005a0207006400470010007800e30f500006
:1012100002003a0010002000000f78001e00780045
:101220000000e000f6fe32000080fa000000060038
:101230000200fa00000f78001e007800e20f500054
:101240000b003200e30f500010003200e10f50009d
:1012500015003a00401680006100600000f0a70011
:101260000000ea000000e9004f00de000f00370038
:10127000401680006200600000f0a7000000ea0055
:101280000000e9004f00de00080037004016800033
:101290006400600000f0a7000000ea000000e90020
:1012a0004f00de00010037000000eb000080fa0074
:1012b000000006001800fa00f600470080087800d9
:1012c0007600470010007800100078000000e00071
:1012d00001003d0063004000c280de000e80e80097
:1012e00001087800e400470082512800100009003e
:1012f000b25878000000eb00000f780005003700be
:10130000640047001e00400010407800d201070032
:101310001e0fe8000e80e800100078009e007800a4
:10132000808f5000f6ff35000080fa0000000600b4
:101330000800fa00640147000089be00640047000d
:1013400002002000a34724001000be00b6fc0700e6
:101350007ffc07000e81e800000978000000eb0028
:10136000000f780003003700400620003c01070012
:101370001e0fe8000e80e800100078009e00780044
:10138000808f5000f8ff35000080fa000000060052
:101390000000fa000080eb0040158800aa22ef0050
:1013a000800e200000158800a222ef00f0f321003b
:1013b00020158800a622ef008560a9008d60a90095
:1013c000a1e2a8000080fa00000006000000fa0078
:1013d000e0ff2f0040158800aa22ef00800e2000b9
:1013e00000158800a222ef00f0f3210020158800ec
:1013f000a622ef008560a9008d60a900a1e2a800e7
:101400000080fa00000006000000fa00c0ff2f0074
:1014100040158800aa22ef00800e200000158800e9
:101420000030200010158800f0f3210020158800fe
:10143000a622ef008560a9008d60a900a1e2a800a6
:101440000080fa00000006000000fa0000ff2f00f4
:1014500040158800aa22ef00800e200000158800a9
:101460000030200010158800f0f3210020158800be
:1014700030302000301588008560a9008d60a900fb
:10148000a1e2a8000080fa00000006000000fa00b7
:10149000f0fc2f0040158800aa22ef00800e2000eb
:1014a000001588000030200010158800f0f321009e
:1014b0002015880000022200301588008560a900f0
:1014c0008d60a900a1e2a8000080fa0000000600db
:1014d0000000fa0000fe2f0040158800f0012000f7
:1014e00050158800000e20000015880040412000a3
:1014f00010158800f0f3210020158800a622ef00c7
:101500008560a9008d60a900a1e2a8000080fa0012
:10151000000006000000fa0000fc2f0040158800c3
:10152000f003200050158800000e200000158800f0
:101530004041200010158800f0f32100201588009c
:10154000a622ef008560a9008d60a900a1e2a80095
:101550000080fa00000006000200fa00004f780048
:101560001e407800e54f50000200360050c0b30026
:10157000004f78001e80fb00110020000008dd00f5
:101580000080ea00401588009e4078006fc060002f
:101590000080fb006f0060003215800001ff2f000b
:1015a000810061000100700030158800a022a800b1
:1015b0000000000000158000610060000000e000f5
:1015c000fcff3200001480000080fa0000000600da
:1015d0000200fa00000f7800a022a800000000001e
:1015e00000158000610060000000e000fcff320098
:1015f000011480001e007800010878000080fa00c5
:10160000000006000400fa00000f78000e80e800d9
:1016100001087800a022a80000000000001580004a
:10162000610060000000e000fcff32001114800047
:101630001e00780001087800211480000e80e80068
:1016400010007800010878000080fa000000060011
:101650000800fa00000f78000e80e800010878000a
:10166000640047000208780066004700030878001d
:10167000a022a800000000000015800061006000aa
:101680000000e000fcff3200111480001e00780012
:1016900001087800211480000e80e8001000780016
:1016a00001087800311480006400470010007800c1
:1016b00001087800011480006600470010007800df
:1016c000010878000080fa00000006000400fa001b
:1016d000000f78000e80e80001087800a022a80022
:1016e0000000000000158000610060000000e000c4
:1016f000fcff3200211480001e00780001087800f1
:10170000311480000e80e800100078000108780095
:101710000080fa00000006000a00fa00000f7800be
:101720000e80e80001087800640047000208780095
:101730006600470003087800680047000408780046
:10174000a042a800000000000015800061006000b9
:101750000000e000fcff3200a042a900011480005c
:101760001e00780001087800111480000e80e80047
:101770001000780001087800211480006400470000
:1017800010007800010878003114800066004700de
:1017900010007800010878004114800068004700bc
:1017a00010007800010878000080fa0000000600b0
:1017b0000c00fa00000f78000e80e80001087800a5
:1017c00064004700020878006600470003087800bc
:1017d00068004700040878006a00470005087800a0
:1017e000a042a80000000000001580006100600019
:1017f0000000e000fcff3200a042a90001148000bc
:101800001e00780001087800111480000e80e800a6
:10181000100078000108780021148000640047005f
:10182000100078000108780031148000660047003d
:10183000100078000108780041148000680047001b
:101840001000780001087800511480006a004700f9
:1018500010007800010878000080fa0000000600ff
:101860000400fa008e80e800800878000000eb0099
:10187000000f780003003700270109000000000076
:101880001e0fe8009e0078000e80e800100078002f
:10189000808f5000f8ff39000080fa000000060039
:1018a0000000fa000421ef000021ef00102e2000bc
:1018b00010088800da62a900da82a900c116800047
:1018c00070fe2f0000806000c016880005e1a800af
:1018d0000080fa00000006000400fa008e80e80094
:1018e000804878000a28ef000000eb00000f780025
:1018f00011003700504080004200dd005040880059
:101900000e80e800104078008000fb00720020008c
:101910001e0051000088de00610060000040780079
:101920000004e00003003200504080003000b300ab
:10193000504088001e0fe8001e007800e70f50009e
:10194000ecff34000468ef000021ef008c60a80079
:101950000080fa00000006000000fa0004c8bf0082
:101960000080fa00000006000400fa00004f780032
:101970000e80e80001087800da22a900500020005b
:10198000b7ff0700da02a90050002000b4ff0700eb
:101990001e407800d0ff070000000000eeff0700a7
:1019a0000004a2000004e000fcff3a000e80e80002
:1019b00010007800aaff0700da22a8000080fa00d1
:1019c000000006000000fa00d802a900d822a900f1
:1019d000d842a900b2ff07009101200090c3b300d4
:1019e000e1ff07009101200090c3b300deff070074
:1019f00091012000d0c1b300dbff0700910120005e
:101a000070c7b300d8ff07009101200020c5b300c4
:101a1000d5ff070081bb200090c6b300d2ff0700ae
:101a2000411f200010c0b300cfff0700910120002c
:101a3000c0c0b300ccff07009101200060c0b3001c
:101a4000c9ff0700411f200020c0b300c6ff0700e8
:101a50000080fa00000006000200fa00004f780043
:101a6000da22a900500020007dff0700da02a8005a
:101a7000500020007aff07001e40780096ff070004
:101a800000000000b4ff07000004a2000004e00012
:101a9000fcff3a009001200071ff0700da22a80045
:101aa0000080fa00000006000400fa008e80e800c2
:101ab000800878000000eb00000f78000700370076
:101ac0009e0078000e80e8001000780001004000c1
:101ad000104078001e0fe800dfff07009e0078002e
:101ae0000e80e800100078000100400010407800ef
:101af0000004e000f2ff3a000080fa000000060057
:101b00000400fa00000f78000e80e8000108780059
:101b10001e007800e20f50000f003e000e80e8002b
:101b200010007800ef0f50000d003e001e007800fe
:101b300000407800c400dd000e80e800100078004e
:101b40000040780000c040000074a0009101200017
:101b500085ff070003003700000000000100370088
:101b6000000000000080fa00000006000200fa00f9
:101b7000000f7800f00320009e007800808f500056
:101b800010003e001e0078004400de000040780097
:101b9000e340600000c5b30000c070009101200068
:101ba00071ff07001e00780000407800ef406000e1
:101bb00000c7b30000c07000910120006aff070059
:101bc00001003700000000000080fa00000006005d
:101bd0000000fa00c040a800c060a800c080a800b3
:101be0000080fa00000006000000fa0085e0a9006d
:101bf0008de0a8000080fa00000006000000fa0056
:101c0000c602a800c622a800c642a800c440a80078
:101c1000c460a800c480a8000080fa00000006008c
:101c20000400fa000080eb0040158800e00f20005f
:101c300030168800c822ef00f0ff070061ff0700a0
:101c40000000eb00000f780091012000c0c0b3003d
:101c500045ff070040408000c4ff07008000eb0004
:101c60000000eb00a6ff0700606028008eff070061
:101c70008000eb0010002000a1ff07007061280029
:101c800089ff07008000eb00200020009cff070078
:101c90006060280084ff07000000200001f8230096
:101ca000a3fd0700110020000e80e8000108780065
:101cb000c7ff070085e0a900cbff0700411f2000f8
:101cc00010c0b30028ff070002c8bf000004e000f6
:101cd00006003a0001c8bf000004e00003003a001b
:101ce00000c8bf000004e0001900320002c8bf00b5
:101cf0000004e000050032008000eb000000eb0073
:101d00007fff07008062280067ff070001c8bf004f
:101d10000004e000050032008000eb00100020000d
:101d200077ff0700506328005fff070000c8bf006f
:101d30000004e000270032008000eb0020002000bb
:101d40006fff07002064280057ff070021003700bd
:101d500002c8bf000004a2000004e00008003a002e
:101d600001c8bf000004a2000004e00004003a0023
:101d700000c8bf000004a2000004e000150032000b
:101d8000411f200010c0b300f7fe07008000eb00e9
:101d90000000eb005aff0700f064280042ff070034
:101da0008000eb001000200055ff0700c0652800f0
:101db0003dff07008000eb002000200050ff0700df
:101dc0009066280038ff0700a099290091e92300b8
:101dd00057fd07000e80e80010007800e10f50006a
:101de000b9ff3200411f200010c0b300defe070023
:101df000606728002cff07008000eb001000200027
:101e00003fff07007068280027ff0700ffff37002b
:101e10000600fa00000f78000e80e8000288be007d
:101e2000c0002000000e88009e007800210e88006f
:101e30000e80e800100078000080ea00400e880064
:101e4000ca21ef00cc21ef00d021ef000080fa0082
:101e5000000006000200fa00000f78001e00780063
:101e600000407800614060000080fb004f00dd0012
:101e7000010e800001f0a10001007000000e88003a
:101e80000080fa00000006000200fa00000f78004f
:101e90001e00780000004000b00e88000080fa00ac
:101ea000000006000200fa00000f78001e00780013
:101eb00000004000c00e88000080fa00000006000c
:101ec0000400fa00008fbe001221ef001021ef0085
:101ed0000621ef000a21ef001e00be004008de00d0
:101ee00000007800700888001e00780060088800f4
:101ef0001061a8000080fa00000006000000fa004f
:101f0000b1048000f0ff28000080600000c0a00045
:101f1000b004880084e0a9008ce0a80011e1a800ca
:081f20000080fa000000060039
:020000040000fa
:101f28000808000002000000020000003c00000059
:101f38000008000004000000000000000a0800007b
:101f48000200000000000000040800000400000077
:101f58000200000001000f00000000000000000067
:020000040000fa
:0200000401f009
:04000000f7bf000046
:020000040000fa
:0200000401f009
:04000400ff7f00007a
:020000040000fa
:0200000401f009
:04000800ffff0000f6
:020000040000fa
:0200000401f009
:04001400ffffff00eb
:020000040000fa
:0200000401f009
:04001800ffff0000e6
:00000001FF
