:020000040000fa
:080000000001040000000000f3
:020000040000fa
:0400080042030000af
:020000040000fa
:04000c0042030000ab
:020000040000fa
:0400100042030000a7
:020000040000fa
:0400140042030000a3
:020000040000fa
:04001800420300009f
:020000040000fa
:04001c00420300009b
:020000040000fa
:040020004203000097
:020000040000fa
:040024004203000093
:020000040000fa
:04002800420300008f
:020000040000fa
:04002c00420300008b
:020000040000fa
:040030004203000087
:020000040000fa
:04003400c8020000fe
:020000040000fa
:04003800420300007f
:020000040000fa
:04003c00420300007b
:020000040000fa
:040040003003000089
:020000040000fa
:04004400c8010000ef
:020000040000fa
:04004800420300006f
:020000040000fa
:04004c00420300006b
:020000040000fa
:040050004203000067
:020000040000fa
:040054004203000063
:020000040000fa
:04005800420300005f
:020000040000fa
:04005c00420300005b
:020000040000fa
:040060004203000057
:020000040000fa
:04006400ea010000ad
:020000040000fa
:04006800420300004f
:020000040000fa
:04006c00420300004b
:020000040000fa
:040070004203000047
:020000040000fa
:040074004203000043
:020000040000fa
:04007800420300003f
:020000040000fa
:04007c00420300003b
:020000040000fa
:040080004203000037
:020000040000fa
:040084004203000033
:020000040000fa
:04008800420300002f
:020000040000fa
:04008c00420300002b
:020000040000fa
:040090004203000027
:020000040000fa
:040094004203000023
:020000040000fa
:04009800420300001f
:020000040000fa
:04009c00420300001b
:020000040000fa
:0400a0004203000017
:020000040000fa
:0400a4004203000013
:020000040000fa
:0400a800420300000f
:020000040000fa
:0400ac00420300000b
:020000040000fa
:0400b0004203000007
:020000040000fa
:0400b4004203000003
:020000040000fa
:0400b80042030000ff
:020000040000fa
:0400bc0042030000fb
:020000040000fa
:0400c00042030000f7
:020000040000fa
:0400c40042030000f3
:020000040000fa
:0400c80042030000ef
:020000040000fa
:0400cc0042030000eb
:020000040000fa
:0400d00042030000e7
:020000040000fa
:0400d40042030000e3
:020000040000fa
:0400d80042030000df
:020000040000fa
:0401080042030000ae
:020000040000fa
:04010c0042030000aa
:020000040000fa
:0401100042030000a6
:020000040000fa
:0401140042030000a2
:020000040000fa
:04011800420300009e
:020000040000fa
:04011c00420300009a
:020000040000fa
:040120004203000096
:020000040000fa
:040124004203000092
:020000040000fa
:04012800420300008e
:020000040000fa
:04012c00420300008a
:020000040000fa
:040130004203000086
:020000040000fa
:04013400c8020000fd
:020000040000fa
:04013800420300007e
:020000040000fa
:04013c00420300007a
:020000040000fa
:040140003003000088
:020000040000fa
:04014400c8010000ee
:020000040000fa
:04014800420300006e
:020000040000fa
:04014c00420300006a
:020000040000fa
:040150004203000066
:020000040000fa
:040154004203000062
:020000040000fa
:04015800420300005e
:020000040000fa
:04015c00420300005a
:020000040000fa
:040160004203000056
:020000040000fa
:04016400ea010000ac
:020000040000fa
:04016800420300004e
:020000040000fa
:04016c00420300004a
:020000040000fa
:040170004203000046
:020000040000fa
:040174004203000042
:020000040000fa
:04017800420300003e
:020000040000fa
:04017c00420300003a
:020000040000fa
:040180004203000036
:020000040000fa
:040184004203000032
:020000040000fa
:04018800420300002e
:020000040000fa
:04018c00420300002a
:020000040000fa
:040190004203000026
:020000040000fa
:040194004203000022
:020000040000fa
:04019800420300001e
:020000040000fa
:04019c00420300001a
:020000040000fa
:0401a0004203000016
:020000040000fa
:0401a4004203000012
:020000040000fa
:0401a800420300000e
:020000040000fa
:0401ac00420300000a
:020000040000fa
:0401b0004203000006
:020000040000fa
:0401b4004203000002
:020000040000fa
:0401b80042030000fe
:020000040000fa
:0401bc0042030000fa
:020000040000fa
:0401c00042030000f6
:020000040000fa
:0401c40042030000f2
:020000040000fa
:0401c80042030000ee
:020000040000fa
:0401cc0042030000ea
:020000040000fa
:0401d00042030000e6
:020000040000fa
:0401d40042030000e2
:020000040000fa
:0401d80042030000de
:020000040000fa
:10020000cf8020000eff20000e01880000000000bb
:10021000000020000000e000020032000001200089
:100220002002880014000700180107000000e00009
:1002300003003a00e05b21000100200002003700cb
:100240000000200001002000810f7000010032003a
:1002500014000700000020000000e000020032004f
:1002600000000200000000008813020000000000ef
:100270000040da000000fe004440a900c024200035
:100280000000e0000300320000002000a001880010
:100290004440a800000006008a1f78008b1f7800e9
:1002a0000000060091018800800478000000eb0047
:1002b0001a003700e284440032a0b4009905ba0065
:1002c000e284440032a0b4009906ba00e2844400fb
:1002d00032a0b4000006eb00476fde00fd07b2005d
:1002e000636ce10003003a00ebff07000000eb0045
:1002f0000a003700606ce10004003a00005deb008a
:100300008b05e900fdff3e00040037006168e10055
:10031000010032000086eb000b00070019c7ba008d
:100320001905ba000e04e00003003a000a00e000dc
:10033000e0ff3a0000000600fe07b2009e018800c0
:100340008a047800f5ff3700395dba008b05e900b3
:100350000c003200295dba008b05e900080032006c
:100360000c00e00003003a00e284440032a0b40034
:10037000f5ff370019ddba008b05e900faff3a00f6
:100380008904e800e184440032a0b40000000600c3
:10039000809fbe000000fa004016800000407800f8
:1003a0006140600000c0ea00614060000080fb0026
:1003b00061006000411680000100a1000100700092
:1003c0004016880084e0a9000080fa004f00be00bb
:1003d000004006003600f800809fbe00829fbe00ed
:1003e000849fbe00869fbe003400f80000002000fd
:1003f000a00188000000fa00100020006706070036
:100400000000e0000d003200004080001001780084
:10041000f1f32f00810061000160a0000108780065
:100420000040800010017800c1ff2f0081006100b2
:100430000100a000010878000e0037001000200025
:10044000560607000000e0000a003a000040800065
:1004500010017800f1f32f0081006100010878009d
:100460000040800010017800c1ff2f008100610072
:100470000108780020002000480607000000e00086
:100480000d0032000040800010017800f1cf2f00f5
:10049000810061000180a000010878000040800018
:1004a0001001780031ff2f00810061000120a000c1
:1004b000010878000e0037002000200037060700f2
:1004c0000000e0000a003a000040800010017800bf
:1004d000f1cf2f008100610001087800004080000a
:1004e0001001780031ff2f008100610001087800c1
:1004f00030002000290607000000e0000d00320057
:100500000040800010017800f13f2f008100610061
:1005100001a0a000010878000040800010017800d0
:10052000f1fc2f00810061000140a000010878006b
:100530000e00370030002000180607000000e00021
:100540000a003a000040800010017800f13f2f00bf
:1005500081006100010878000040800010017800ef
:10056000f1fc2f00810061000108780085e0a900fe
:100570000080fa003400f9004f03be004f02be00b5
:100580004f01be004f00be003600f90000400600db
:10059000809fbe003400f80000002000a001880009
:1005a0000000fa00304080000000e000200035002c
:1005b00041408000304080000088de00004078002c
:1005c0006140600061406000614060000080fb00ad
:1005d000610060004400dd00d11680000140a100f0
:1005e00001007000d0168800314080005055250071
:1005f0000180de00004078006140600061406000e2
:10060000614060000080fb00610060004300dd008d
:10061000d11680000130a10001007000d0168800c2
:10062000304080000000e9003040880007003700bb
:100630008c60a900da82a900da62a90010c0b300b8
:1006400004e8b700f0002000304088008460a90072
:100650000080fa003400f9004f00be0000400600a0
:10066000801f78000000fa00504080000000e80081
:100670005040880084c0a9000080fa004f00780034
:10068000004006000040da000000fe000000050007
:100690000001be001f0007000470a70003f0a100c6
:1006a0006509b100160032000d0035006828e10030
:1006b00006003500f0ff2f00f1ff27000300e000e7
:1006c00013003b000100280000000500000040006e
:1006d000818048008502e900fcff3a0008003700ed
:1006e000f88f420002003c008000eb000000050093
:1006f0008100d1000080d3008502e800fcff3a00b1
:100700000300e00002003b0060001000e0801800e1
:1007100000000600c70ade00f107b200f50fb200c4
:1007200008003200e1cf4200020032000170a00058
:1007300024000500810f700001003200040805004c
:1007400044000500810f700002003a00140005000b
:100750008502e9000000400081c04800fcff3b002a
:100760000170a00024000500811f78000100e00056
:1007700002003d0060001000e08018000300e0006f
:1007800002003d0060011100e08119000500070032
:100790004f00e00002003b0060001000e080180005
:1007a00000000600040107000400be00000006006f
:1007b000038368000700280007036300470ade0080
:1007c0000480a100c71ade000580a100f70f2000f9
:1007d0000720e100420032000728e100400032001b
:1007e000889fbe008a9fbe008c1f7800f107b20070
:1007f000f307b2000400e000640032000170a000c2
:100800000500e000680032000370a000850542008a
:10081000eb07b1000204b8000302b800848444006e
:1008200060854a00020ab800848444000a854a00b0
:10083000030ab80004054500040033000804d00092
:100840008984d2000a85d2008b05e9006158e10055
:100850003d0035000210200009016100030820005e
:1008600089816100f7072000878364000886730090
:10087000c84cde00c853dd00878474004855de0094
:100880000300e0000600320082037600040032001c
:100890008904e80060054d000a88a3000c003a00b6
:1008a000f70f20000758e10044003d000a70a10046
:1008b000c75ddd000a8575008a00730009007800b5
:1008c0004f0678004f05be004f04be000000060032
:1008d0000a05d1008984d3008b05e800f0ff3700ba
:1008e000881f78000604780090000700070278004f
:1008f0000001fd008101fd008c00070087027800e7
:10090000850372000778a300050032000001fd0096
:100910008101fd009f0007004f04780000000600e1
:10092000850372000748a30003003200f0ff2f0088
:10093000f1ff2700f8ff37000000200001f8270032
:1009400088807000f4ff3700880178004848dd0097
:10095000808171004848de00c850dd000100700051
:10096000c850de00060478000b017800160007006e
:1009700088807000d2ff37000500e00005003200db
:10098000170020003a0007009dff37008103700028
:10099000f9ff3a00860078004f0678004f05be0048
:1009a0004f04be000000050083037100f9ff320010
:1009b000270020002e00070094ff370001f82700d1
:1009c00086807000f4ff37000100e000260032004e
:1009d000610111007810e10023003c006022b800a2
:1009e0007010e100040035008002780001007800fa
:1009f0008000eb00700151000200e00009003400ab
:100a000070031100062add00822ade008603dd0065
:100a1000878272000200de00860bdd000700700096
:100a20008208de0084817100f4ff270004826200e6
:100a300084817100040028008482620061026000e9
:100a400005f0a600000006000482710007003200d5
:100a50000000e800e0804800000006000002be0040
:100a60006000b800efff37006000b800000006002b
:100a7000889fbe000004eb006138e10016003a00d8
:100a80000100e00008003a00c800de004800dd0078
:100a9000880020000100e00003003a00c800de00ea
:100aa0004800dd00680444008184cf00e9845400dc
:100ab000060034008908dd00f08314008703de009f
:100ac000878070000900dd00090444006102140001
:100ad0004f04be00000006000300e00008003a00da
:100ae000c811de004811dd00880020000300e0008e
:100af00003003a00c811de004811dd00680444001c
:100b00008384cf00e9845400060034008919dd0095
:100b1000f08314008713de00878171000911dd0066
:100b200009044400e1021400e9ff37002700200017
:100b300001f0a70017002000470bde00f60fb200ff
:100b4000040032000643e8000a0032004702b30006
:100b50000000060001037800f607b20006037000eb
:100b600002003a000703b300000006008702b3004a
:100b70000000060001037800f607b20006037000cb
:100b8000020032000770a000000006000760a0000d
:100b9000000006000478a300040032000578a300da
:100ba000030032000168a30001003a000200be0009
:100bb0000160a000000006006022b80006022000cc
:100bc0000000d0008180d2000482d2008582d20051
:100bd0000000a0000202520083825a00030031008c
:100be0000202420083824a000000a1000603e900dd
:080bf000f3ff3a0000000600cb
:020000040000fa
:100bf800585800005858000058580000585800002d
:100c0800585800005858000058580000585800001c
:100c1800005800005858000058580000204d0000a7
:100c2800656e0000752000005858000058580000f4
:100c3800580000003e41000063740000696f000026
:100c48006e73000000200000506100007261000017
:100c58006d650000747200006573000000200000dc
:100c680041660000662e0000204500007461000007
:100c7800740000002041000063740000696f0000e8
:100c88006e730000003e00005061000072610000b9
:100c98006d6500007472000065730000003e00007e
:100ca80041660000662e00002045000074610000c7
:100cb800740000003e4d000061720000636800008f
:100cc800652000004c6500006e740000650000009f
:100cd800204d00006172000063680000652000007c
:100ce8005261000070690000646500000020000087
:100cf8004d6f000064650000204d0000616e00002b
:100d0800756500006c000000204d00006172000055
:100d180063680000652000004c6500006e740000e8
:100d2800650000003e4d000061720000636800002d
:100d380065200000526100007069000064650000d1
:100d4800003e00004d6f000064650000204d00006b
:100d5800616e0000756500006c0000003e440000f4
:100d68006574000065630000746900006f6e000020
:100d7800204f000062730000002000005265000050
:100d8800676c0000616700006520000050490000a2
:100d980044000000205600006974000065730000dc
:100da80073650000002000004465000074650000c1
:100db80063740000696f00006e2000004f6200003d
:100dc800730000003e520000656700006c6100007f
:100dd800676500002050000049440000003e000004
:100de8005669000074650000737300006500000018
:100df8005b440000657400006563000074690000ce
:100e08006f6e0000204f0000627300005d0000005c
:100e180044690000733a000020000000456e00009d
:100e280074650000723a00002052000065740000ea
:100e38006f750000720000004469000073740000c0
:100e4800616e000063650000206f0000627300009f
:100e58000044000069730000743a0000200000009c
:100e6800456e000074650000723a000020450000dd
:100e7800786900007400000056690000742e0000b4
:100e8800204d00006f74000065750000727300004b
:100e9800004700003a200000202500002044000000
:100ea8003a20000020250000004300006f6d00007c
:100eb8002e2000004d6f0000746500007572000060
:100ec8007300000043610000707400006575000045
:100ed8007220000049520000003000003058000025
:100ee80030300000203a0000202b00003030000095
:100ef80000200000436f00006e6600006967000074
:100f08007572000061740000696f00006e73000064
:100f180020000000202000004d69000073650000db
:100f280073200000612000004a6f00007572000005
:100f38002020000000000000585800005858000009
:100f480058580000585800005858000058580000d9
:100f58005858000058580000005800005820000059
:100f6800446500006d610000727200006167000056
:100f7800652100002058000058000000427500005c
:100f8800747400006f6e000020310000203d0000e6
:100f98002031000000580000585800005858000040
:100fa8005858000058000000427500007474000092
:100fb8006f6e000020320000203d0000203100004c
:100fc8000042000075740000746f00006e2000007d
:100fd800332000003d200000310000004275000071
:100fe800747400006f6e000020330000203d000084
:100ff800203200000042000075740000746f000089
:101008006e200000312000003d200000300000006c
:1010180042750000747400006f6e000020320000fa
:10102800203d0000203000000042000075740000e0
:10103800746f00006e200000332000003d20000087
:1010480030000000204300006f6e00006669000059
:101058006775000072610000746900006f6e00001f
:101068007320000000200000204d0000697300007c
:101078006573000020610000204a00006f750000c1
:081088007220000020000000ae
:020000040000fa
:101090001600fa00f4004700800878007f06070079
:1010a0000000eb00000f78008000eb000e80e800ed
:1010b00001087800900c2000010020006401470026
:1010c0000089be0041012000680047000108780047
:1010d000411f200010c0b300de0407008000eb00b9
:1010e0000000eb0042050700c05f2800290507004b
:1010f0008000eb00100020003d050700d0602800b4
:10110000240507008000eb002000200038050700c0
:10111000c05f28001f0507000000200001f8230021
:101120003f030700411f200010c0b300c90407009f
:101130008000eb006a004700010878008000eb00a7
:101140000e80e80001087800740047001000780065
:101150009000780000c020008080600000402000e7
:10116000808f500005003a001e0fe800d0cc2c0004
:10117000c1e423002a030700710037007400470010
:10118000100078009000780000302000808060001f
:1011900000102000808f50000a003a0064004700d1
:1011a0001000be0061004000e0804800640147007c
:1011b0000089be00d0cc2c00c1e423001803070036
:1011c0005f0037007400470010007800900078003e
:1011d000000c20008080600000042000808f500000
:1011e0000a003a00640047001000be006100500091
:1011f000e0805800640147000089be00d0cc2c007c
:10120000c1e42300060307004d00370064004700d7
:101210001000be00320020000300200052fd070035
:10122000e00f5000e08f580010003a008000eb0003
:101230000000eb00ee040700e0612800d504070081
:101240008000eb0010002000e90407007062280015
:10125000d00407008000eb0020002000e404070019
:1012600030632800cb0407003500370064004700d6
:101270001000be0032002000030020003afd0700ed
:101280000001be001000200001002000800f51006e
:10129000818f590010003a008000eb000000eb0045
:1012a000d3040700e0632800ba0407008000eb00c5
:1012b00010002000ce04070070642800b504070069
:1012c0008000eb0020002000c904070030632800e4
:1012d000b00407001a003700640047001000be0089
:1012e00032002000030020001ffd07000001be00a7
:1012f0002000200001002000800f5100818f590044
:101300000f003a008000eb000000eb00b80407007b
:10131000e06328009f0407008000eb00100020001d
:10132000b3040700706228009a0407008000eb00f5
:1013300020002000ae040700306528009504070057
:101340001e0078000000e0007fff3200411f2000f7
:1013500010c0b3003f040700640047001000be0047
:101360003200200003002000fffc0700e00f5000c7
:10137000e08f58009c003a00900c200001002000f3
:10138000640147000089be00740047001000780027
:101390009000780000c020008080600000402000a5
:1013a000808f500002003a001e0fe80071003700e5
:1013b0007400470010007800900078000030200092
:1013c0008080600000102000808f50000a003a00ea
:1013d000640047001000be0061004000e08048004b
:1013e000640147000089be00d0cc2c00c1e423007a
:1013f0008b0207005f003700740047001000780080
:1014000090007800000c2000808060000004200024
:10141000808f50000a003a00640047001000be00b0
:1014200061005000e0805800640147000089be0060
:10143000d0cc2c00c1e42300790207004d00370016
:10144000640047001000be003200200003002000ae
:10145000c5fc0700e00f5000e08f580010003a0074
:101460008000eb000000eb0061040700e06528004d
:10147000480407008000eb00100020005c04070017
:10148000c0662800430407008000eb002000200015
:1014900057040700b06728003e04070035003700f6
:1014a000640047001000be0032002000030020004e
:1014b000adfc07000001be0010002000010020006c
:1014c000800f5100818f590010003a008000eb001e
:1014d0000000eb0046040700806828002d04070088
:1014e0008000eb0010002000410407006069280024
:1014f000280407008000eb00200020003c040700c7
:10150000b0672800230407001a0037006400470072
:101510001000be00320020000300200092fc0700f3
:101520000001be002000200001002000800f5100bb
:10153000818f59000f003a008000eb000000eb00a3
:101540002b04070080682800120407008000eb00cd
:101550001000200026040700c06628000d040700c4
:101560008000eb002000200021040700506a2800c2
:10157000080407007400470010007800900078000d
:10158000000c20008080600000042000808f50004c
:1015900011003a00740047001000780090007800b5
:1015a000003020008080600000102000808f5000fc
:1015b00009003a001e0fe9001e0078000000e0005c
:1015c00002003a000000eb00000f7800411f2000ed
:1015d00010c0b3009f0307001e007800e10f500009
:1015e00069ff3200de013700640047001000be00d2
:1015f00032002000030020005bfc07000001be0059
:101600001000200001002000800f5100818f590040
:10161000f1003a00900c2000010020006401470016
:101620000089be0074004700100078009000780028
:1016300000c020008080600000402000808f5000ab
:1016400005003a001e0fe800d0cc2c00c1e42300b6
:10165000f3010700710037007400470010007800a4
:101660009000780000302000808060000010200092
:10167000808f50000a003a00640047001000be004e
:1016800061004000e0804800640147000089be001e
:10169000d0cc2c00c1e42300e10107005f0037003b
:1016a000740047001000780090007800000c2000c3
:1016b0008080600000042000808f50000a003a0003
:1016c000640047001000be0061005000e080580038
:1016d000640147000089be00d0cc2c00c1e4230087
:1016e000cf0107004d003700640047001000be0026
:1016f00032002000030020001bfc0700e00f500018
:10170000e08f580010003a008000eb000000eb0072
:10171000b7030700206b28009e0307008000eb0042
:1017200010002000b2030700106c28009903070086
:101730008000eb0020002000ad030700e06c2800d3
:101740009403070035003700640047001000be0016
:10175000320020000300200003fc07000001be004f
:101760001000200001002000800f5100818f5900df
:1017700010003a008000eb000000eb009c03070023
:10178000706d2800830307008000eb00100020002c
:1017900097030700606e28007e0307008000eb00bf
:1017a0002000200092030700e06c28007903070066
:1017b0001a003700640047001000be00320020000d
:1017c00003002000e8fb07000001be00200020000d
:1017d00001002000800f5100818f59000f003a0056
:1017e0008000eb000000eb0081030700706d280013
:1017f000680307008000eb00100020007c03070056
:10180000106c2800630307008000eb00200020001c
:1018100077030700306f28005e030700740047005d
:101820001000780090007800000c2000808060009c
:1018300000042000808f500011003a00740047001f
:101840001000780090007800003020008080600058
:1018500000102000808f500009003a001e0fe900a0
:101860001e0078000000e00002003a000000eb00db
:10187000000f7800411f200010c0b300f5020700e0
:101880001e007800e10f500066ff3200900c20002f
:1018900001002000640147000089be00411f2000b4
:1018a00010c0b300eb020700640047001000be0048
:1018b0003200200003002000abfb0700e00f5000c7
:1018c000e08f580026013a007400470010007800ad
:1018d0009000780000c02000808060000040200060
:1018e000808f500005003a001e0fe800d0cc2c007d
:1018f000c1e423004a0107002100370074004700bb
:101900001000780090007800003020008080600097
:1019100000102000808f500009003a006800470046
:10192000100078008000e800680047000108780097
:10193000d0cc2c00c1e4230039010700100037008f
:10194000740047001000780090007800000c200020
:101950008080600000042000808f500008003a0062
:1019600068004700100078008000e9006800470028
:1019700001087800d0cc2c00c1e423002801070026
:101980008000eb000000eb0019030700c06f280087
:10199000000307008000eb00100020001403070084
:1019a000c0702800fb0207006800470010007800a4
:1019b000e40207008000eb00200020000c03070079
:1019c00020712800f30207001e007800e20f50008b
:1019d000bdff3200e2003700640047001000be0087
:1019e00032002000030020005ffb07000001be0062
:1019f0002000200001002000800f5100818f59003d
:101a0000d7003a000e80e800100078000000e000e7
:101a100031003a008000eb000000eb00f402070008
:101a200000722800db0207008000eb00100020009d
:101a3000ef020700d0722800d60207008000eb00fa
:101a400020002000ea02070040732800d1020700ae
:101a50000e80e800100078008000e8000e80e800aa
:101a60000108780018040700800078006c00470027
:101a7000010878000d00370074004700100078005e
:101a80009000780000c020008080600000402000ae
:101a9000808f500005003a000000eb00000f780036
:101aa000a10020000e80e80001087800017d2000e0
:101ab0006c00470010007800070407000004a20033
:101ac0000004e000ecff3a00411f200010c0b3000a
:101ad000600207009f0037000e80e80010007800c9
:101ae000e10f500031003a008000eb000000eb00f5
:101af000bf02070000742800a60207008000eb0068
:101b000010002000ba020700d0742800a1020700cc
:101b10008000eb0020002000b50207004073280081
:101b20009c0207000e80e800100078008000e800aa
:101b30000e80e80001087800e303070080007800c9
:101b40006e004700010878000d0037007400470060
:101b5000100078009000780000c0200080806000b5
:101b600000402000808f500005003a000000eb008c
:101b7000000f7800a10020000e80e8000108780026
:101b8000017d20006e00470010007800d20307009e
:101b90000004a2000004e000ecff3a00411f200016
:101ba00010c0b3002b0207006a0037000e80e80067
:101bb00010007800e20f500031003a008000eb0086
:101bc0000000eb008a0207009075280071020700f0
:101bd0008000eb001000200085020700d074280070
:101be0006c0207008000eb0020002000800207004c
:101bf00040732800670207000e80e800100078009c
:101c00008000e8000e80e80001087800ae030700bd
:101c10008000780070004700010878000d00370050
:101c200074004700100078009000780000c0200089
:101c30008080600000402000808f500005003a0046
:101c40000000eb00000f7800a10020000e80e800eb
:101c500001087800017d2000700047001000780026
:101c60009d0307000004a2000004e000ecff3a001e
:101c7000411f200010c0b300f601070035003700f7
:101c80000e80e80010007800e30f50002f003a00ab
:101c90008000eb000000eb00550207006076280092
:101ca0003c0207008000eb001000200050020700fb
:101cb00010772800370207008000eb00200020008a
:101cc0004b02070040732800320207008000eb003f
:101cd0000e80e800010878007b0307008000780090
:101ce00072004700010878000d00370074004700bb
:101cf000100078009000780000c020008080600014
:101d000000402000808f500005003a000000eb00ea
:101d1000000f7800a10020000e80e8000108780084
:101d2000017d200072004700100078006a03070060
:101d30000004a2000004e000ecff3a00411f200074
:101d400010c0b300c3010700020037000000eb0021
:101d5000000f78001e007800e10f500029ff3200cc
:101d60001e007800e20f5000f4fc3400411f2000f8
:101d700010c0b300b7010700d077280005020700a4
:101d80008000eb001000200019020700e078280016
:101d9000000207000080fa00000006000200fa00be
:101da000000f78001e007800e20f50000b00320098
:101db000e30f500010003200e10f500015003a0010
:101dc000401680006100600000f0a7000000ea00fb
:101dd0000000e9004f00de000f00370040168000d1
:101de0006200600000f0a7000000ea000000e900c7
:101df0004f00de00080037004016800064006000dd
:101e000000f0a7000000ea000000e9004f00de003b
:101e1000010037000000eb000080fa00000006001f
:101e20000800fa00640147000089be006400470012
:101e300002002000a34724001000be005cfa070047
:101e400013fa07000e81e800000978000000eb009b
:101e5000000f780003003700400620003c01070017
:101e60001e0fe8000e80e800100078009e00780049
:101e7000808f5000f8ff35000080fa000000060057
:101e80000000fa000080eb0040158800aa22ef0055
:101e9000800e200000158800a222ef00f0f3210040
:101ea00020158800a622ef008560a9008d60a9009a
:101eb000a1e2a8000080fa00000006000000fa007d
:101ec000e0ff2f0040158800aa22ef00800e2000be
:101ed00000158800a222ef00f0f3210020158800f1
:101ee000a622ef008560a9008d60a900a1e2a800ec
:101ef0000080fa00000006000000fa00c0ff2f007a
:101f000040158800aa22ef00800e200000158800ee
:101f10000030200010158800f0f321002015880003
:101f2000a622ef008560a9008d60a900a1e2a800ab
:101f30000080fa00000006000000fa0000ff2f00f9
:101f400040158800aa22ef00800e200000158800ae
:101f50000030200010158800f0f3210020158800c3
:101f600030302000301588008560a9008d60a90000
:101f7000a1e2a8000080fa00000006000000fa00bc
:101f8000f0fc2f0040158800aa22ef00800e2000f0
:101f9000001588000030200010158800f0f32100a3
:101fa0002015880000022200301588008560a900f5
:101fb0008d60a900a1e2a8000080fa0000000600e0
:101fc0000000fa0000fe2f0040158800f0012000fc
:101fd00050158800000e20000015880040412000a8
:101fe00010158800f0f3210020158800a622ef00cc
:101ff0008560a9008d60a900a1e2a8000080fa0018
:10200000000006000000fa0000fc2f0040158800c8
:10201000f003200050158800000e200000158800f5
:102020004041200010158800f0f3210020158800a1
:10203000a622ef008560a9008d60a900a1e2a8009a
:102040000080fa00000006000200fa00004f78004d
:102050001e407800e54f50000200360050c0b3002b
:10206000004f78001e80fb00110020000008dd00fa
:102070000080ea00401588009e4078006fc0600034
:102080000080fb006f0060003215800001ff2f0010
:10209000810061000100700030158800a022a800b6
:1020a0000000000000158000610060000000e000fa
:1020b000fcff3200001480000080fa0000000600df
:1020c0000200fa00000f7800a022a8000000000023
:1020d00000158000610060000000e000fcff32009d
:1020e000011480001e007800010878000080fa00ca
:1020f000000006000400fa00000f78000e80e800df
:1021000001087800a022a80000000000001580004f
:10211000610060000000e000fcff3200111480004c
:102120001e00780001087800211480000e80e8006d
:1021300010007800010878000080fa000000060016
:102140000800fa00000f78000e80e800010878000f
:102150006400470002087800660047000308780022
:10216000a022a800000000000015800061006000af
:102170000000e000fcff3200111480001e00780017
:1021800001087800211480000e80e800100078001b
:1021900001087800311480006400470010007800c6
:1021a00001087800011480006600470010007800e4
:1021b000010878000080fa00000006000400fa0020
:1021c000000f78000e80e80001087800a022a80027
:1021d0000000000000158000610060000000e000c9
:1021e000fcff3200211480001e00780001087800f6
:1021f000311480000e80e80010007800010878009b
:102200000080fa00000006000a00fa00000f7800c3
:102210000e80e8000108780064004700020878009a
:10222000660047000308780068004700040878004b
:10223000a042a800000000000015800061006000be
:102240000000e000fcff3200a042a9000114800061
:102250001e00780001087800111480000e80e8004c
:102260001000780001087800211480006400470005
:1022700010007800010878003114800066004700e3
:1022800010007800010878004114800068004700c1
:1022900010007800010878000080fa0000000600b5
:1022a0000c00fa00000f78000e80e80001087800aa
:1022b00064004700020878006600470003087800c1
:1022c00068004700040878006a00470005087800a5
:1022d000a042a8000000000000158000610060001e
:1022e0000000e000fcff3200a042a90001148000c1
:1022f0001e00780001087800111480000e80e800ac
:102300001000780001087800211480006400470064
:102310001000780001087800311480006600470042
:102320001000780001087800411480006800470020
:102330001000780001087800511480006a004700fe
:1023400010007800010878000080fa000000060004
:102350000400fa008e80e800800878000000eb009e
:10236000000f78000300370027010900000000007b
:102370001e0fe8009e0078000e80e8001000780034
:10238000808f5000f8ff39000080fa00000006003e
:102390000000fa000421ef000021ef00102e2000c1
:1023a00010088800da62a900da82a900c11680004c
:1023b00070fe2f0000806000c016880005e1a800b4
:1023c0000080fa00000006000400fa008e80e80099
:1023d000800878000828ef000000eb00000f78006c
:1023e00010003700404080004200dd00404088007f
:1023f000710020001e8050008e80e800910078005f
:102400000088de0061006000004078000004e00009
:1024100003003200404080003000b300404088009c
:102420001e0fe8001e007800e70f5000edff34009b
:102430000468ef000021ef008c60a8000080fa0023
:10244000000006000000fa0004c8bf000080fa0087
:10245000000006000400fa00004f78000e80e8003b
:1024600001087800da22a90050002000b8ff070018
:10247000da02a90050002000b5ff07001e00fb0093
:10248000d1ff070000000000eeff07000004a200db
:102490000004e000fcff3a000e80e8001000780025
:1024a000abff0700da22a8000080fa000000060057
:1024b0000000fa00d802a900d822a900d842a90039
:1024c000b3ff07009101200090c3b300e1ff0700b4
:1024d0009101200090c3b300deff070091012000ae
:1024e000d0c1b300dbff07009101200070c7b3002b
:1024f000d8ff07009101200020c5b300d5ff0700d9
:1025000081bb200090c6b300d2ff0700411f20000e
:1025100010c0b300cfff070091012000c0c0b3007e
:10252000ccff07009101200060c0b300c9ff070085
:10253000411f200020c0b300c6ff07000080fa0042
:10254000000006000200fa00000f7800da22a9005d
:10255000500020007eff0700da02a8005000200093
:102560007bff07001e00780097ff070000000000b7
:10257000b4ff07000004a2000004e000fcff3a00e2
:102580009001200072ff0700da22a8000080fa0004
:10259000000006000400fa008e80e8008008780041
:1025a0000000eb00000f7800080037009e00780064
:1025b0000e80e80010007800010040001040780014
:1025c0000000fb001e0fe800deff07009e00780001
:1025d0000e80e800100078000100400010407800f4
:1025e0000004e000f1ff3a000080fa00000006005d
:1025f0000400fa00000f78000e80e800010878005f
:102600001e007800e20f50000f003e000e80e80030
:1026100010007800ef0f50000d003e001e00780003
:1026200000407800c400dd000e80e8001000780053
:102630000040780000c040000074a000910120001c
:1026400084ff07000300370000000000010037008e
:10265000000000000080fa00000006000200fa00fe
:10266000000f7800f00320009e007800808f50005b
:1026700010003e001e0078004400de00004078009c
:10268000e340600000c5b30000c07000910120006d
:1026900070ff07001e00780000407800ef406000e7
:1026a00000c7b30000c070009101200069ff07005f
:1026b00001003700000000000080fa000000060062
:1026c0000000fa00c040a800c060a800c080a800b8
:1026d0000080fa00000006000000fa0085e0a90072
:1026e0008de0a8000080fa00000006000000fa005b
:1026f000c602a800c622a800c642a800c440a8007e
:10270000c460a800c480a8000080fa000000060091
:102710000400fa000080eb0040158800e00f200064
:1027200030168800c822ef00dc000700efff07002a
:102730005fff070091012000c0c0b30045ff070004
:1027400030022000c5ff07008000eb000000eb0016
:10275000a7ff0700007a28008eff07008000eb002b
:1027600010002000a2ff0700107b280089ff07004f
:102770008000eb00200020009dff0700007a280069
:1027800084ff07000000200001f82300a4fd0700db
:1027900010002000000f7800c9ff070085e0a900a5
:1027a000cdff07002080200000408800004080000e
:1027b00037fa0700411f200010c0b30025ff0700b3
:1027c000c1000700800078000e80e8000108780052
:1027d000050037008000eb000000eb0084ff0700dd
:1027e000207c28006bff07000040800090007800ec
:1027f00000c020008080600000402000808f5000da
:10280000f4ff32000f0037008000eb000000eb0007
:1028100077ff0700f07c28005eff07008000eb00d8
:102820001000200072ff0700f07c280059ff07000d
:102830008000eb00200020006dff0700f07c2800e6
:1028400054ff07000040800090007800000c20003a
:102850008080600000042000808f50000e003a004d
:1028600000408000900078000030200080806000f0
:1028700000102000808f5000e3ff32000700370077
:102880008000eb001000200059ff0700807d280029
:1028900040ff0700010037000000000000408000fa
:1028a0009000780000302000808060000010200040
:1028b000808f5000f2ff3200150037008000eb00df
:1028c000200020004aff0700507e280031ff07004b
:1028d000050037008000eb002000200044ff0700c7
:1028e000207f28002bff0700017d20000e80e800dc
:1028f00010007800780007000004e00004003200b7
:102900001000200025fd07000000e000f1ff3a0064
:102910000040800090007800000c20008080600063
:1029200000042000808f5000e4ff32000f003700c9
:102930008000eb000000eb002dff0700f07f280077
:1029400014ff07008000eb001000200028ff0700a4
:10295000c08028000fff07008000eb00200020004f
:1029600023ff0700908128000aff07000040800035
:102970009000780000302000008060000000e0003f
:102980000c003a000040800090007800000c20000d
:10299000008060000000e00006003a000040800077
:1029a0009000780000c02000008060000000e0007f
:1029b000dfff32001e007800e10f500080ff320080
:1029c000411f200010c0b300a2fe07006082280053
:1029d000f0fe07008000eb001000200004ff07005d
:1029e00070832800ebfe0700ffff37000600fa00a7
:1029f000000f78000e80e8000288be00c0002000b2
:102a0000000e88009e007800210e88000e80e800ed
:102a1000100078000080ea00400e8800ca21ef0014
:102a2000cc21ef00d021ef000080fa00000006006a
:102a30000200fa00000f78001e00780000407800c5
:102a4000614060000080fb004f00dd00010e80004f
:102a500001f0a10001007000000e88000080fa0063
:102a6000000006000200fa00000f78001e00780047
:102a700000004000b00e88000080fa000000060050
:102a80000200fa00000f78001e00780000004000ed
:102a9000c00e88000080fa00000006000000fa0066
:102aa0000a28ef000621ef000033270060088800a5
:102ab0001021ef0084c0a9008cc0a80011e1a8007b
:102ac0000080fa00000006000000fa00504080007c
:102ad0000080fa00000006000400fa00000f7800f1
:102ae0000e80e80001087800504080001e00500071
:102af0008000780010c0b3000e81e8001201780059
:102b0000828f500001003e000040eb000080fa0080
:102b1000000006000400fa00008fbe001221ef0042
:102b20001021ef000621ef000a21ef001e00be0079
:102b30004008de0000007800700888001e00780061
:102b4000600888001061a8000080fa0000000600fc
:102b50000000fa00b1048000f0ff2800008060004f
:102b600000c0a000b004880084e0a9008ce0a800a8
:0c2b700011e1a8000080fa00000006003f
:020000040000fa
:102b7c00000800000400000000000000080800002d
:102b8c000200000000000000040800000400000027
:102b9c000200000001000f00000000000a08000005
:0c2bac000200000000000000000000001b
:020000040000fa
:0200000401f009
:04000000f7bf000046
:020000040000fa
:0200000401f009
:04000400ff7f00007a
:020000040000fa
:0200000401f009
:04000800ffff0000f6
:020000040000fa
:0200000401f009
:04001400ffffff00eb
:020000040000fa
:0200000401f009
:04001800ffff0000e6
:00000001FF
