:020000040000fa
:080000000001040000000000f3
:020000040000fa
:0400080028030000c9
:020000040000fa
:04000c0028030000c5
:020000040000fa
:0400100028030000c1
:020000040000fa
:0400140028030000bd
:020000040000fa
:0400180028030000b9
:020000040000fa
:04001c0028030000b5
:020000040000fa
:0400200028030000b1
:020000040000fa
:0400240028030000ad
:020000040000fa
:0400280028030000a9
:020000040000fa
:04002c0028030000a5
:020000040000fa
:0400300028030000a1
:020000040000fa
:04003400ae02000018
:020000040000fa
:040038002803000099
:020000040000fa
:04003c002803000095
:020000040000fa
:0400400016030000a3
:020000040000fa
:04004400c8010000ef
:020000040000fa
:040048002803000089
:020000040000fa
:04004c002803000085
:020000040000fa
:040050002803000081
:020000040000fa
:04005400280300007d
:020000040000fa
:040058002803000079
:020000040000fa
:04005c002803000075
:020000040000fa
:040060002803000071
:020000040000fa
:04006400ea010000ad
:020000040000fa
:040068002803000069
:020000040000fa
:04006c002803000065
:020000040000fa
:040070002803000061
:020000040000fa
:04007400280300005d
:020000040000fa
:040078002803000059
:020000040000fa
:04007c002803000055
:020000040000fa
:040080002803000051
:020000040000fa
:04008400280300004d
:020000040000fa
:040088002803000049
:020000040000fa
:04008c002803000045
:020000040000fa
:040090002803000041
:020000040000fa
:04009400280300003d
:020000040000fa
:040098002803000039
:020000040000fa
:04009c002803000035
:020000040000fa
:0400a0002803000031
:020000040000fa
:0400a400280300002d
:020000040000fa
:0400a8002803000029
:020000040000fa
:0400ac002803000025
:020000040000fa
:0400b0002803000021
:020000040000fa
:0400b400280300001d
:020000040000fa
:0400b8002803000019
:020000040000fa
:0400bc002803000015
:020000040000fa
:0400c0002803000011
:020000040000fa
:0400c400280300000d
:020000040000fa
:0400c8002803000009
:020000040000fa
:0400cc002803000005
:020000040000fa
:0400d0002803000001
:020000040000fa
:0400d40028030000fd
:020000040000fa
:0400d80028030000f9
:020000040000fa
:0401080028030000c8
:020000040000fa
:04010c0028030000c4
:020000040000fa
:0401100028030000c0
:020000040000fa
:0401140028030000bc
:020000040000fa
:0401180028030000b8
:020000040000fa
:04011c0028030000b4
:020000040000fa
:0401200028030000b0
:020000040000fa
:0401240028030000ac
:020000040000fa
:0401280028030000a8
:020000040000fa
:04012c0028030000a4
:020000040000fa
:0401300028030000a0
:020000040000fa
:04013400ae02000017
:020000040000fa
:040138002803000098
:020000040000fa
:04013c002803000094
:020000040000fa
:0401400016030000a2
:020000040000fa
:04014400c8010000ee
:020000040000fa
:040148002803000088
:020000040000fa
:04014c002803000084
:020000040000fa
:040150002803000080
:020000040000fa
:04015400280300007c
:020000040000fa
:040158002803000078
:020000040000fa
:04015c002803000074
:020000040000fa
:040160002803000070
:020000040000fa
:04016400ea010000ac
:020000040000fa
:040168002803000068
:020000040000fa
:04016c002803000064
:020000040000fa
:040170002803000060
:020000040000fa
:04017400280300005c
:020000040000fa
:040178002803000058
:020000040000fa
:04017c002803000054
:020000040000fa
:040180002803000050
:020000040000fa
:04018400280300004c
:020000040000fa
:040188002803000048
:020000040000fa
:04018c002803000044
:020000040000fa
:040190002803000040
:020000040000fa
:04019400280300003c
:020000040000fa
:040198002803000038
:020000040000fa
:04019c002803000034
:020000040000fa
:0401a0002803000030
:020000040000fa
:0401a400280300002c
:020000040000fa
:0401a8002803000028
:020000040000fa
:0401ac002803000024
:020000040000fa
:0401b0002803000020
:020000040000fa
:0401b400280300001c
:020000040000fa
:0401b8002803000018
:020000040000fa
:0401bc002803000014
:020000040000fa
:0401c0002803000010
:020000040000fa
:0401c400280300000c
:020000040000fa
:0401c8002803000008
:020000040000fa
:0401cc002803000004
:020000040000fa
:0401d0002803000000
:020000040000fa
:0401d40028030000fc
:020000040000fa
:0401d80028030000f8
:020000040000fa
:10020000ef8020000eff20000e018800000000009b
:10021000000020000000e000020032000001200089
:1002200020028800140007000b0107000000e00016
:1002300003003a00603e2100010020000200370068
:100240000000200001002000810f7000010032003a
:1002500014000700000020000000e000020032004f
:1002600000000200000000004a120200000000002e
:100270000040da000000fe004440a90020212000d8
:100280000000e0000300320000002000a001880010
:100290004440a800000006008a1f78008b1f7800e9
:1002a0000000060091018800800478000000eb0047
:1002b0001a003700e284440032a0b4009905ba0065
:1002c000e284440032a0b4009906ba00e2844400fb
:1002d00032a0b4000006eb00476fde00fd07b2005d
:1002e000636ce10003003a00ebff07000000eb0045
:1002f0000a003700606ce10004003a00005deb008a
:100300008b05e900fdff3e00040037006168e10055
:10031000010032000086eb000b00070019c7ba008d
:100320001905ba000e04e00003003a000a00e000dc
:10033000e0ff3a0000000600fe07b2009e018800c0
:100340008a047800f5ff3700395dba008b05e900b3
:100350000c003200295dba008b05e900080032006c
:100360000c00e00003003a00e284440032a0b40034
:10037000f5ff370019ddba008b05e900faff3a00f6
:100380008904e800e184440032a0b40000000600c3
:10039000809fbe000000fa004016800000407800f8
:1003a0006140600000c0ea00614060000080fb0026
:1003b00061006000411680000100a1000100700092
:1003c0004016880084e0a9000080fa004f00be00bb
:1003d000004006003600f800809fbe00829fbe00ed
:1003e000849fbe00869fbe003400f80000002000fd
:1003f000a00188000200fa00bc08070010002000dd
:10040000a80507000000e0001a003200c20807003b
:10041000000f78000040800010017800c1ff2f001d
:10042000810061000100a00001087800017d20002a
:100430001e007800bc0807000004a2000004e000d1
:10044000150032000040800010007800630060005a
:10045000e10f500010003a000040800010017800c9
:10046000c1ff2f00810061000110a0000108780089
:1004700009003700100020008a0507000000e00096
:1004800005003a000040800010017800c1ff2f00f5
:10049000810061000108780020002000810507002c
:1004a0000000e000070032000040800010017800ea
:1004b00031ff2f00810061000120a00001087800b9
:1004c0000900370020002000760507000000e0004a
:1004d00005003a00004080001001780031ff2f0035
:1004e0008100610001087800300020006d050700e0
:1004f0000000e0000700320000408000100178009a
:10050000f1fc2f00810061000140a000010878008b
:100510000900370030002000620507000000e000fd
:1005200005003a000040800010017800f1fc2f0027
:10053000810061000108780085e0a9000080fa00d0
:100540003400f9004f03be004f02be004f01be0051
:100550004f00be003600f90000400600809fbe003c
:100560003400f80000002000a00188000000fa001c
:10057000304080000000e000200035005140800045
:10058000304080000088de0000407800614060005c
:1005900061406000614060000080fb00610060001d
:1005a0004400dd00d11680000140a1000100700070
:1005b000d016880031408000505525000180de00b3
:1005c0000040780061406000614060006140600070
:1005d0000080fb00610060004300dd00d116800058
:1005e0000130a10001007000d0168800304080006a
:1005f0000000e90030408800070037008c60a90047
:10060000da82a900da62a90010c0b30004e8b700da
:10061000f0002000304088008460a9000080fa00cb
:100620003400f9004f00be0000400600801f780033
:100630000000fa00604080000000e8006040880090
:1006400084c0a9000080fa004f0078000040060036
:100650000040da000000fe00000005000001be00be
:100660001f0007000470a70003f0a1006509b10096
:10067000160032000d0035006828e1000600350044
:10068000f0ff2f00f1ff27000300e00013003b0004
:1006900001002800000005000000400081804800a3
:1006a0008502e900fcff3a0008003700f88f42009d
:1006b00002003c008000eb00000005008100d1003a
:1006c0000080d3008502e800fcff3a000300e00050
:1006d00002003b0060001000e080180000000600ef
:1006e000c70ade00f107b200f50fb20008003200c1
:1006f000e1cf4200020032000170a000240005009a
:10070000810f70000100320004080500440005005c
:10071000810f700002003a00140005008502e90014
:100720000000400081c04800fcff3b000170a000b9
:1007300024000500811f78000100e00002003d0058
:1007400060001000e08018000300e00002003d009f
:1007500060011100e0811900050007004f00e00072
:1007600002003b0060001000e0801800000006005e
:10077000040107000400be000000060003836800b7
:100780000700280007036300470ade000480a10079
:10079000c71ade000580a100f70f20000720e10046
:1007a000420032000728e10040003200889fbe006e
:1007b0008a9fbe008c1f7800f107b200f307b200d9
:1007c0000400e000640032000170a0000500e000b9
:1007d000680032000370a00085054200eb07b100fd
:1007e0000204b8000302b8008484440060854a0013
:1007f000020ab800848444000a854a00030ab8004b
:1008000004054500040033000804d0008984d200a8
:100810000a85d2008b05e9006158e1003d003500f2
:100820000210200009016100030820008981610095
:10083000f70720008783640008867300c84cde0039
:10084000c853dd00878474004855de000300e000d3
:100850000600320082037600040032008904e800ba
:1008600060054d000a88a3000c003a00f70f200035
:100870000758e10044003d000a70a100c75ddd009b
:100880000a8575008a007300090078004f06780019
:100890004f05be004f04be00000006000a05d1004f
:1008a0008984d3008b05e800f0ff3700881f7800ab
:1008b0000604780090000700070278000001fd00a0
:1008c0008101fd008c00070087027800850372001b
:1008d0000778a300050032000001fd008101fd0042
:1008e0009f0007004f047800000006008503720097
:1008f0000748a30003003200f0ff2f00f1ff27009c
:10090000f8ff37000000200001f827008880700001
:10091000f4ff3700880178004848dd0080817100cd
:100920004848de00c850dd0001007000c850de00fd
:10093000060478000b01780016000700888070001c
:10094000d2ff37000500e00005003200170020004c
:100950003a0007009dff370081037000f9ff3a005d
:10096000860078004f0678004f05be004f04be0099
:100970000000050083037100f9ff3200270020000a
:100980002e00070094ff370001f8270086807000d2
:10099000f4ff37000100e000260032006101110081
:1009a0007810e10023003c006022b8007010e100e4
:1009b0000400350080027800010078008000eb0020
:1009c000700151000200e0000900340070031100c2
:1009d000062add00822ade008603dd00878272009f
:1009e0000200de00860bdd00070070008208de00da
:1009f00084817100f4ff2700048262008481710009
:100a000004002800848262006102600005f0a600f4
:100a10000000060004827100070032000000e800b8
:100a2000e0804800000006000002be006000b80040
:100a3000efff37006000b80000000600889fbe008e
:100a40000004eb006138e10016003a000100e0000c
:100a500008003a00c800de004800dd0088002000e1
:100a60000100e00003003a00c800de004800dd009d
:100a7000680444008184cf00e984540006003400f7
:100a80008908dd00f08314008703de008780700092
:100a90000900dd0009044400610214004f04be0097
:100aa000000006000300e00008003a00c811de0064
:100ab0004811dd00880020000300e00003003a0038
:100ac000c811de004811dd00680444008384cf00b3
:100ad000e9845400060034008919dd00f083140015
:100ae0008713de00878171000911dd0009044400cd
:100af000e1021400e9ff37002700200001f0a70001
:100b000017002000470bde00f60fb2000400320091
:100b10000643e8000a0032004702b3000000060066
:100b200001037800f607b2000603700002003a00e5
:100b30000703b300000006008702b30000000600b0
:100b400001037800f607b2000603700002003200cd
:100b50000770a000000006000760a000000006006b
:100b60000478a300040032000578a30003003200db
:100b70000168a30001003a000200be000160a0006d
:100b8000000006006022b800060220000000d0002d
:100b90008180d2000482d2008582d2000000a000b1
:100ba0000202520083825a00030031000202420016
:100bb00083824a000000a1000603e900f3ff3a0027
:040bc000000006002b
:020000040000fa
:100bc4005858000058580000585800005858000061
:100bd4005858000058580000585800005858000051
:100be400005800005858000058580000204d0000dc
:100bf400656e000075200000585800005858000029
:100c0400580000003e41000063740000696f00005a
:100c14006e7300000020000050610000726100004b
:100c24006d65000074720000657300000020000010
:100c340041660000662e000020450000746100003b
:100c4400740000002041000063740000696f00001c
:100c54006e730000003e00005061000072610000ed
:100c64006d6500007472000065730000003e0000b2
:100c740041660000662e00002045000074610000fb
:100c8400740000003e4d00006172000063680000c3
:100c9400652000004c6500006e74000065000000d3
:100ca400204d0000617200006368000065200000b0
:100cb40052610000706900006465000000200000bb
:100cc4004d6f000064650000204d0000616e00005f
:100cd400756500006c000000204d0000617200008a
:100ce40063680000652000004c6500006e7400001d
:100cf400650000003e4d0000617200006368000062
:100d04006520000052610000706900006465000005
:100d1400003e00004d6f000064650000204d00009f
:100d2400616e0000756500006c0000003e44000028
:100d34006574000065630000746900006f6e000054
:100d4400204f000062730000002000005265000084
:100d5400676c0000616700006520000050490000d6
:100d64004400000020560000697400006573000010
:100d740073650000002000004465000074650000f5
:100d840063740000696f00006e2000004f62000071
:100d9400730000003e520000656700006c610000b3
:100da400676500002050000049440000003e000038
:100db400566900007465000073730000650000004c
:100dc4004469000073740000616e000063650000f4
:100dd400206f00006273000000440000697300008b
:100de400743a000020000000456e000074650000a5
:100df400723a000020450000786900007400000089
:100e040056690000742e0000204d00006f7400002d
:100e14006575000072730000004700003a2000006e
:100e240020250000204400003a2000002025000076
:100e3400004300006f6d00002e2000004d6f000085
:100e440074650000757200007300000043610000c7
:100e540070740000657500007220000049520000a3
:100e6400003000003058000030300000203a00000c
:100e7400202b00003030000000200000436f0000f1
:100e84006e660000696700007572000061740000fe
:100e9400696f00006e730000200000002020000035
:100ea4004d6900007365000073200000612000009c
:100eb4004a6f00007572000020200000000000004e
:100ec400585800005858000058580000585800005e
:100ed400585800005858000058580000585800004e
:100ee4000058000058200000446500006d610000b7
:100ef4007272000061670000652100002058000044
:100f04005800000042750000747400006f6e000009
:100f140020310000203d000020310000004200008c
:100f240075740000746f00006e2000003220000011
:100f34003d20000031000000427500007474000080
:100f44006f6e000020330000203d000020310000bf
:100f54000042000075740000746f00006e200000f1
:100f6400312000003d2000003000000042750000e8
:100f7400747400006f6e000020320000203d0000f9
:100f8400203000000042000075740000746f0000ff
:100f94006e200000332000003d20000030000000df
:100fa400204300006f6e0000666900006775000052
:100fb40072610000746900006f6e0000732000000d
:100fc40000200000204d00006973000065730000dc
:100fd40020610000204a00006f75000072200000ac
:040fe40020000000e9
:020000040000fa
:100fe8001600fa00f400470080087800bd050700e5
:100ff8000000eb00000f78008000eb000e80e80096
:1010080001087800900c20000100200064014700ce
:101018000089be00640047001000be0032002000b6
:1010280003002000c1fd070068014700000978009f
:10103800411f200010c0b300660407008000eb00c9
:101048000000eb00c9040700205e2800b104070077
:101058008000eb0010002000c4040700305f280067
:10106800ac0407008000eb0020002000bf0407004c
:10107800205e2800a70407000000200001f82300d4
:10108800c6020700411f200010c0b300510407002a
:101098008000eb006a004700010878008000eb0040
:1010a8000e80e800010878007400470010007800fe
:1010b800900078000003200000806000f00f5000ce
:1010c80005003a001e0fe800d0cc2c00c1e4230034
:1010d800b20207006900370074004700100078006a
:1010e800100078006c006000e40f500011003a0016
:1010f800640047001000be0061004000e080480026
:10110800640147000089be00640047001000be006b
:10111800320020000300200084fd0700680147001a
:1011280000097800d0cc2c00c1e423009b02070002
:101138005200370074004700100078001000780053
:1011480063006000e10f500011003a00640047009e
:101158001000be0061005000e080580064014700a4
:101168000089be00640047001000be003200200065
:10117800030020006dfd07006801470000097800a2
:10118800d0cc2c00c1e42300840207003b003700c8
:1011980068004700100078000000e00010003a00e6
:1011a8008000eb000000eb0070040700406028009e
:1011b800580407008000eb00100020006b040700b3
:1011c800d0602800530407008000eb0020002000b6
:1011d80066040700906128004e04070027003700c6
:1011e8006800470010007800e10f500010003a0036
:1011f8008000eb000000eb005c0407004062280060
:10120800440407008000eb0010002000570407008a
:10121800d06228003f0407008000eb002000200077
:1012280052040700906128003a04070013003700b1
:101238006800470010007800e20f50000f003a00e5
:101248008000eb000000eb00480407004062280023
:10125800300407008000eb00100020004304070062
:10126800d06028002b0407008000eb00200020003d
:101278003e04070090632800260407001e0078003b
:101288000000e00088ff3200411f200010c0b300ba
:10129800d003070068004700100078000000e00055
:1012a80081003a00900c20000100200064014700f2
:1012b8000089be00640047001000be003200200014
:1012c8000300200019fd07006801470000097800a5
:1012d8007400470010007800900078000003200098
:1012e80000806000f00f500002003a001e0fe80076
:1012f800690037007400470010007800100078007b
:101308006c006000e40f500011003a0064004700d0
:101318001000be0061004000e08048006401470002
:101328000089be00640047001000be0032002000a3
:1013380003002000fdfc0700680147000009780051
:10134800d0cc2c00c1e4230014020700520037005f
:1013580074004700100078001000780063006000f7
:10136800e10f500011003a00640047001000be0071
:1013780061005000e0805800640147000089be0009
:10138800640047001000be00320020000300200067
:10139800e6fc07006801470000097800d0cc2c0063
:1013a800c1e42300fd0107003b0037006800470047
:1013b800100078000000e00010003a008000eb0008
:1013c8000000eb00e903070040642800d103070090
:1013d8008000eb0010002000e403070020652800cf
:1013e800cc0307008000eb0020002000df0307008b
:1013f80010662800c7030700270037006800470069
:1014080010007800e10f500010003a008000eb0057
:101418000000eb00d5030700e0662800bd030700c5
:101428008000eb0010002000d0030700c0672800f0
:10143800b80307008000eb0020002000cb03070062
:1014480010662800b3030700130037006800470040
:1014580010007800e20f50000f003a008000eb0007
:101468000000eb00c1030700e0662800a90307009d
:101478008000eb0010002000bc0307002065280056
:10148800a40307008000eb0020002000b70307003a
:10149800b06828009f0307001e007800e10f500085
:1014a8008bff32006b01370068004700100078009e
:1014b800e10f500081003a00900c2000010020004c
:1014c800640147000089be00640047001000be00a8
:1014d800320020000300200094fc07006801470048
:1014e8000009780074004700100078009000780028
:1014f8000003200000806000f00f500002003a0056
:101508001e0fe800690037007400470010007800db
:10151800100078006c006000e40f500011003a00e1
:10152800640047001000be0061004000e0804800f1
:10153800640147000089be00640047001000be0037
:10154800320020000300200078fc070068014700f3
:1015580000097800d0cc2c00c1e423008f010700db
:10156800520037007400470010007800100078001f
:1015780063006000e10f500011003a00640047006a
:101588001000be0061005000e08058006401470070
:101598000089be00640047001000be003200200031
:1015a8000300200061fc070068014700000978007b
:1015b800d0cc2c00c1e42300780107003b003700a1
:1015c80068004700100078000000e00010003a00b2
:1015d8008000eb000000eb0064030700806928002e
:1015e8004c0307008000eb00100020005f03070099
:1015f800706a2800470307008000eb0020002000e5
:101608005a030700406b28004203070027003700f1
:101618006800470010007800e10f500010003a0001
:101628008000eb000000eb0050030700d06b28009f
:10163800380307008000eb00100020004b03070070
:10164800c06c2800330307008000eb002000200056
:1016580046030700406b28002e03070013003700dd
:101668006800470010007800e20f50000f003a00b1
:101678008000eb000000eb003c030700d06b280063
:10168800240307008000eb00100020003703070048
:10169800706a28001f0307008000eb00200020006c
:1016a80032030700906d28001a0307001e00780017
:1016b800e10f50008bff3200e6003700680047005a
:1016c80010007800e20f5000e2003a000e80e800b7
:1016d800100078000000e00033003a008000eb00c2
:1016e8000000eb0021030700206e28000903070013
:1016f8008000eb00100020001c030700f06e28009b
:10170800040307008000eb002000200017030700f7
:10171800606f2800ff0207000e80e80010007800c4
:101728008000e8000e80e80001087800f803070050
:10173800800078006c004700010878000f0037002f
:101748007400470010007800900078000003200023
:1017580000806000f00f500008003a000000eb0025
:10176800000f78008000eb0068004700010878004f
:10177800a10020000e80e80001087800017d20000b
:101788006c00470010007800e50307000004a20081
:101798000004e000eaff3a00411f200010c0b30037
:1017a8008c020700a80037000e80e80010007800bf
:1017b800e10f500033003a008000eb000000eb001e
:1017c800ea02070020702800d20207008000eb0020
:1017d80010002000e5020700f0702800cd02070085
:1017e8008000eb0020002000e0020700606f280066
:1017f800c80207000e80e800100078008000e800aa
:101808000e80e80001087800c10307008000780016
:101818006e004700010878000f0037007400470089
:10182800100078009000780000032000008060001d
:10183800f00f500008003a000000eb00000f78009d
:101848008000eb006800470001087800a100200034
:101858000e80e80001087800017d20006e00470036
:1018680010007800ae0307000004a2000004e000a6
:10187800eaff3a00411f200010c0b30055020700dc
:10188800710037000e80e80010007800e20f500069
:1018980033003a008000eb000000eb00b3020700c1
:1018a800b07128009b0207008000eb0010002000a8
:1018b800ae020700f0702800960207008000eb00d7
:1018c80020002000a9020700606f2800910207008d
:1018d8000e80e800100078008000e8000e80e80024
:1018e800010878008a03070080007800700047002c
:1018f800010878000f0037007400470010007800d6
:10190800900078000003200000806000f00f500075
:1019180008003a000000eb00000f78008000eb00a0
:101928006800470001087800a10020000e80e80048
:1019380001087800017d2000700047001000780041
:10194800770307000004a2000004e000eaff3a0061
:10195800411f200010c0b3001e0207003a003700e4
:101968000e80e80010007800e30f500031003a00c4
:101978008000eb000000eb007c020700807228006a
:10198800640207008000eb001000200077020700c7
:10199800307328005f0207008000eb002000200061
:1019a80072020700606f28005a0207008000eb00ef
:1019b8000e80e800010878005503070080007800d1
:1019c80072004700010878000f00370074004700d4
:1019d800100078009000780000032000008060006c
:1019e800f00f500008003a000000eb00000f7800ec
:1019f8008000eb006800470001087800a100200083
:101a08000e80e80001087800017d20007200470080
:101a180010007800420307000004a2000004e00060
:101a2800eaff3a00411f200010c0b300e901070097
:101a3800050037000000eb00000f78008000eb0085
:101a480068004700010878001e007800e10f500088
:101a58001eff32001e0078000000e0008ffd3200fb
:101a68001e007800e10f50008cfd3200411f20005d
:101a780010c0b300d7010700f07328002502070043
:101a88008000eb00100020003802070000752800d5
:101a9800200207000080fa00000006000200fa0099
:101aa800000f78001e007800e20f50000b00320093
:101ab800e30f500010003200e10f500015003a000b
:101ac800401680006100600000f0a7000000ea00f6
:101ad8000000e9004f00de000f00370040168000cc
:101ae8006200600000f0a7000000ea000000e900c2
:101af8004f00de00080037004016800064006000d8
:101b080000f0a7000000ea000000e9004f00de0036
:101b1800010037000000eb000080fa00000006001a
:101b28001800fa00f60047008008780076004700a1
:101b380010007800100078000000e00001003d006f
:101b480063004000c280de000e80e80001087800d3
:101b5800e4004700225e280010000900b25878000f
:101b68000000eb00000f7800050037006400470014
:101b78001e00400010407800d20107001e0fe80048
:101b88000e80e800100078009e007800808f5000da
:101b9800f6ff35000080fa00000006000800fa0091
:101ba800640147000089be0064004700020020006d
:101bb800a34724001000be00eefa0700a5fa0700ac
:101bc8000e81e800000978000000eb00000f7800a3
:101bd80003003700400620003c0107001e0fe80004
:101be8000e80e800100078009e007800808f50007a
:101bf800f8ff35000080fa00000006000000fa0037
:101c08000080eb0040158800aa22ef00800e20001b
:101c180000158800a222ef00f0f3210020158800ab
:101c2800a622ef008560a9008d60a900a1e2a800a6
:101c38000080fa00000006000000fa00e0ff2f0014
:101c480040158800aa22ef00800e200000158800a9
:101c5800a222ef00f0f3210020158800a622ef0051
:101c68008560a9008d60a900a1e2a8000080fa00a3
:101c7800000006000000fa00c0ff2f004015880091
:101c8800aa22ef00800e20000015880000302000f6
:101c980010158800f0f3210020158800a622ef0017
:101ca8008560a9008d60a900a1e2a8000080fa0063
:101cb800000006000000fa0000ff2f004015880011
:101cc800aa22ef00800e20000015880000302000b6
:101cd80010158800f0f3210020158800303020000e
:101ce800301588008560a9008d60a900a1e2a800d0
:101cf8000080fa00000006000000fa00f0fc2f0047
:101d080040158800aa22ef00800e200000158800e8
:101d18000030200010158800f0f3210020158800fd
:101d280000022200301588008560a9008d60a90096
:101d3800a1e2a8000080fa00000006000000fa00f6
:101d480000fe2f0040158800f00120005015880083
:101d5800000e200000158800404120001015880062
:101d6800f0f3210020158800a622ef008560a90065
:101d78008d60a900a1e2a8000080fa00000006001a
:101d88000000fa0000fc2f0040158800f003200036
:101d980050158800000e20000015880040412000e2
:101da80010158800f0f3210020158800a622ef0006
:101db8008560a9008d60a900a1e2a8000080fa0052
:101dc800000006000200fa00004f78001e4078006c
:101dd800e54f50000200360050c0b300004f7800b5
:101de8001e80fb00110020000008dd000080ea00d2
:101df800401588009e4078006fc060000080fb009e
:101e08006f0060003215800001ff2f008100610023
:101e18000100700030158800a022a8000000000012
:101e280000158000610060000000e000fcff320047
:101e3800001480000080fa00000006000200fa008a
:101e4800000f7800a022a800000000000015800004
:101e5800610060000000e000fcff32000114800017
:101e68001e007800010878000080fa0000000600d3
:101e78000400fa00000f78000e80e80001087800de
:101e8800a022a8000000000000158000610060008a
:101e98000000e000fcff3200111480001e007800f2
:101ea80001087800211480000e80e80010007800f6
:101eb800010878000080fa00000006000800fa0017
:101ec800000f78000e80e8000108780064004700e1
:101ed800020878006600470003087800a022a800de
:101ee8000000000000158000610060000000e000b4
:101ef800fcff3200111480001e00780001087800f1
:101f0800211480000e80e800100078000108780095
:101f18003114800064004700100078000108780040
:101f2800011480006600470010007800010878005e
:101f38000080fa00000006000400fa00000f780094
:101f48000e80e80001087800a022a8000000000028
:101f580000158000610060000000e000fcff320016
:101f6800211480001e0078000108780031148000d8
:101f78000e80e80010007800010878000080fa0060
:101f8800000006000a00fa00000f78000e80e80042
:101f980001087800640047000208780066004700de
:101fa800030878006800470004087800a042a800e9
:101fb8000000000000158000610060000000e000e3
:101fc800fcff3200a042a900011480001e00780026
:101fd80001087800111480000e80e80010007800d5
:101fe8000108780021148000640047001000780080
:101ff800010878003114800066004700100078005e
:10200800010878004114800068004700100078003b
:10201800010878000080fa00000006000c00fa00b1
:10202800000f78000e80e80001087800640047007f
:102038000208780066004700030878006800470037
:10204800040878006a00470005087800a042a80044
:102058000000000000158000610060000000e00042
:10206800fcff3200a042a900011480001e00780085
:1020780001087800111480000e80e8001000780034
:1020880001087800211480006400470010007800df
:1020980001087800311480006600470010007800bd
:1020a800010878004114800068004700100078009b
:1020b80001087800511480006a0047001000780079
:1020c800010878000080fa00000006000400fa0009
:1020d8008e80e800800878000000eb00000f780090
:1020e8000300370027010900000000001e0fe80068
:1020f8009e0078000e80e80010007800808f500065
:10210800f8ff39000080fa00000006000000fa001d
:102118000421ef000021ef00102e20001008880095
:10212800da62a900da82a900c116800070fe2f00c9
:1021380000806000c016880005e1a8000080fa0051
:10214800000006000400fa008e80e800804878004d
:102158000a28ef000000eb00000f7800110037009c
:10216800504080004200dd00504088000e80e800aa
:10217800104078008000fb00720020001e00510013
:102188000088de0061006000004078000004e00084
:1021980003003200504080003000b30050408800f7
:1021a8001e0fe8001e007800e70f5000ecff340017
:1021b8000468ef000021ef008c60a8000080fa009e
:1021c800000006000000fa0004c8bf000080fa0002
:1021d800000006000400fa00004f78000e80e800b6
:1021e80001087800da22a90050002000b7ff070094
:1021f800da02a90050002000b4ff07001e40780052
:10220800d0ff070000000000eeff07000004a20056
:102218000004e000fcff3a000e80e800100078009f
:10222800aaff0700da22a8000080fa0000000600d2
:102238000000fa00d802a900d822a900d842a900b3
:10224800b2ff07009101200090c3b300e1ff07002f
:102258009101200090c3b300deff07009101200028
:10226800d0c1b300dbff07009101200070c7b300a5
:10227800d8ff07009101200020c5b300d5ff070053
:1022880081bb200090c6b300d2ff0700411f200089
:1022980010c0b300cfff070091012000c0c0b300f9
:1022a800ccff07009101200060c0b300c9ff070000
:1022b800411f200020c0b300c6ff07000080fa00bd
:1022c800000006000200fa00004f7800da22a90098
:1022d800500020007dff0700da02a800500020000f
:1022e8007aff07001e40780096ff070000000000f4
:1022f800b4ff07000004a2000004e000fcff3a005d
:102308009001200071ff0700da22a8000080fa007f
:10231800000006000400fa008e80e80080087800bb
:102328000000eb00000f7800070037009e007800df
:102338000e80e8001000780001004000104078008e
:102348001e0fe800dfff07009e0078000e80e800ff
:102358001000780001004000104078000004e00000
:10236800f2ff3a000080fa00000006000400fa00bc
:10237800000f78000e80e800010878001e00780041
:10238800e20f50000f003e000e80e80010007800b9
:10239800ef0f50000d003e001e007800004078004e
:1023a800c400dd000e80e8001000780000407800ce
:1023b80000c040000074a0009101200085ff0700c4
:1023c8000300370000000000010037000000000093
:1023d8000080fa00000006000200fa00000f7800f2
:1023e800f00320009e007800808f500010003e000f
:1023f8001e0078004400de0000407800e3406000e2
:1024080000c5b30000c070009101200071ff0700f3
:102418001e00780000407800ef40600000c7b3005d
:1024280000c07000910120006aff0700010037001a
:10243800000000000080fa00000006000000fa001a
:10244800c040a800c060a800c080a8000080fa00b2
:10245800000006000000fa0085e0a9008de0a80051
:102468000080fa00000006000000fa00c602a8007a
:10247800c622a800c642a800c440a800c460a8009c
:10248800c480a8000080fa00000006000200fa00dc
:102498000080eb0040158800e00f2000301688000f
:1024a800c822ef00f0ff070061ff0700910120003c
:1024b800c0c0b30047ff070040408000c6ff0700c8
:1024c8008000eb000000eb00a8ff07002076280042
:1024d80090ff07008000eb0010002000a3ff07001a
:1024e800307728008bff07008000eb0020002000d9
:1024f8009eff07002076280086ff070000002000c6
:1025080001f82300a5fd070010002000000f780047
:10251800caff070085e0a900ceff07002080200041
:102528000040880000408000adfa0700411f2000ed
:1025380010c0b30027ff070000408000900078001b
:102548000003200000806000f00f500006003a00f1
:102558008000eb000000eb0084ff070040782800b3
:102568006cff07002500370000408000100078004d
:102578006c006000e40f500006003a008000eb0099
:102588001000200079ff07001079280061ff07007c
:102598001a003700004080001000780063006000d7
:1025a800e10f500006003a008000eb0020002000f8
:1025b8006eff0700e079280056ff07000f0037007c
:1025c8008000eb000000eb0068ff0700b07a2800ed
:1025d80050ff07008000eb001000200063ff070099
:1025e800807b28004bff07008000eb0020002000c4
:1025f8005eff0700507c280046ff07001e00780099
:10260800e10f5000ccff3200411f200010c0b30082
:10261800f0fe0700207d28003eff07008000eb0049
:102628001000200051ff0700307e280039ff070006
:10263800ffff37000600fa00000f78000e80e80060
:102648000288be00c0002000000e88009e007800ae
:10265800210e88000e80e800100078000080ea0053
:10266800400e8800ca21ef00cc21ef00d021ef00f6
:102678000080fa00000006000200fa00000f78004f
:102688001e00780000407800614060000080fb0078
:102698004f00dd00010e800001f0a1000100700074
:1026a800000e88000080fa00000006000200fa0010
:1026b800000f78001e00780000004000b00e88006f
:1026c8000080fa00000006000200fa00000f7800ff
:1026d8001e00780000004000c00e88000080fa004c
:1026e800000006000000fa000c28ef000621ef00a9
:1026f80000332700600888001021ef0084c0a9007b
:102708008cc0a80011e1a8000080fa0000000600b3
:102718000000fa00604080000080fa000000060017
:102728000400fa00000f78000e80e8000108780025
:10273800604080001e0050008000780010c0b30088
:102748000e81e80012017800828f500001003e00df
:102758000040eb000080fa00000006000400fa00c8
:10276800008fbe001221ef001021ef000621ef00bc
:102778000a21ef001e00be004008de0000007800bd
:10278800700888001e007800600888001061a800a2
:102798000080fa00000006000000fa00b104800082
:1027a800f0ff28000080600000c0a000b00488008e
:1027b80084e0a9008ce0a80011e1a8000080fa00dc
:0427c8000000060007
:020000040000fa
:1027cc000808000002000000020000002d000000bc
:1027dc000008000004000000000000000a080000cf
:1027ec0002000000000000000408000004000000cb
:1027fc000200000001000f00000000000c080000a7
:0c280c00020000000000000000000000be
:020000040000fa
:0200000401f009
:04000000f7bf000046
:020000040000fa
:0200000401f009
:04000400ff7f00007a
:020000040000fa
:0200000401f009
:04000800ffff0000f6
:020000040000fa
:0200000401f009
:04001400ffffff00eb
:020000040000fa
:0200000401f009
:04001800ffff0000e6
:00000001FF
