:020000040000fa
:080000000001040000000000f3
:020000040000fa
:0400080052020000a0
:020000040000fa
:04000c00520200009c
:020000040000fa
:040010005202000098
:020000040000fa
:040014005202000094
:020000040000fa
:040018005202000090
:020000040000fa
:04001c00520200008c
:020000040000fa
:040020005202000088
:020000040000fa
:040024005202000084
:020000040000fa
:040028005202000080
:020000040000fa
:04002c00520200007c
:020000040000fa
:040030005202000078
:020000040000fa
:04003400ea010000dd
:020000040000fa
:040038005202000070
:020000040000fa
:04003c00520200006c
:020000040000fa
:040040005202000068
:020000040000fa
:04004400c8010000ef
:020000040000fa
:040048005202000060
:020000040000fa
:04004c00520200005c
:020000040000fa
:040050005202000058
:020000040000fa
:040054005202000054
:020000040000fa
:040058005202000050
:020000040000fa
:04005c00520200004c
:020000040000fa
:040060005202000048
:020000040000fa
:040064005202000044
:020000040000fa
:040068005202000040
:020000040000fa
:04006c00520200003c
:020000040000fa
:040070005202000038
:020000040000fa
:040074005202000034
:020000040000fa
:040078005202000030
:020000040000fa
:04007c00520200002c
:020000040000fa
:040080005202000028
:020000040000fa
:040084005202000024
:020000040000fa
:040088005202000020
:020000040000fa
:04008c00520200001c
:020000040000fa
:040090005202000018
:020000040000fa
:040094005202000014
:020000040000fa
:040098005202000010
:020000040000fa
:04009c00520200000c
:020000040000fa
:0400a0005202000008
:020000040000fa
:0400a4005202000004
:020000040000fa
:0400a8005202000000
:020000040000fa
:0400ac0052020000fc
:020000040000fa
:0400b00052020000f8
:020000040000fa
:0400b40052020000f4
:020000040000fa
:0400b80052020000f0
:020000040000fa
:0400bc0052020000ec
:020000040000fa
:0400c00052020000e8
:020000040000fa
:0400c40052020000e4
:020000040000fa
:0400c80052020000e0
:020000040000fa
:0400cc0052020000dc
:020000040000fa
:0400d00052020000d8
:020000040000fa
:0400d40052020000d4
:020000040000fa
:0400d80052020000d0
:020000040000fa
:04010800520200009f
:020000040000fa
:04010c00520200009b
:020000040000fa
:040110005202000097
:020000040000fa
:040114005202000093
:020000040000fa
:04011800520200008f
:020000040000fa
:04011c00520200008b
:020000040000fa
:040120005202000087
:020000040000fa
:040124005202000083
:020000040000fa
:04012800520200007f
:020000040000fa
:04012c00520200007b
:020000040000fa
:040130005202000077
:020000040000fa
:04013400ea010000dc
:020000040000fa
:04013800520200006f
:020000040000fa
:04013c00520200006b
:020000040000fa
:040140005202000067
:020000040000fa
:04014400c8010000ee
:020000040000fa
:04014800520200005f
:020000040000fa
:04014c00520200005b
:020000040000fa
:040150005202000057
:020000040000fa
:040154005202000053
:020000040000fa
:04015800520200004f
:020000040000fa
:04015c00520200004b
:020000040000fa
:040160005202000047
:020000040000fa
:040164005202000043
:020000040000fa
:04016800520200003f
:020000040000fa
:04016c00520200003b
:020000040000fa
:040170005202000037
:020000040000fa
:040174005202000033
:020000040000fa
:04017800520200002f
:020000040000fa
:04017c00520200002b
:020000040000fa
:040180005202000027
:020000040000fa
:040184005202000023
:020000040000fa
:04018800520200001f
:020000040000fa
:04018c00520200001b
:020000040000fa
:040190005202000017
:020000040000fa
:040194005202000013
:020000040000fa
:04019800520200000f
:020000040000fa
:04019c00520200000b
:020000040000fa
:0401a0005202000007
:020000040000fa
:0401a4005202000003
:020000040000fa
:0401a80052020000ff
:020000040000fa
:0401ac0052020000fb
:020000040000fa
:0401b00052020000f7
:020000040000fa
:0401b40052020000f3
:020000040000fa
:0401b80052020000ef
:020000040000fa
:0401bc0052020000eb
:020000040000fa
:0401c00052020000e7
:020000040000fa
:0401c40052020000e3
:020000040000fa
:0401c80052020000df
:020000040000fa
:0401cc0052020000db
:020000040000fa
:0401d00052020000d7
:020000040000fa
:0401d40052020000d3
:020000040000fa
:0401d80052020000cf
:020000040000fa
:100200006f8020000eff20000e018800000000001b
:10021000000020000000e000020032000001200089
:100220002002880014000700a00007000000e00082
:1002300003003a00a08920000100200002003700de
:100240000000200001002000810f7000010032003a
:1002500014000700000020000000e000020032004f
:10026000000002000000000028070200000000005b
:100270000040da000000fe004440a90020062000f3
:100280000000e0000300320000002000a001880010
:100290004440a800000006008a1f78008b1f7800e9
:1002a0000000060091018800800478000000eb0047
:1002b0001a003700e284440032a0b4009905ba0065
:1002c000e284440032a0b4009906ba00e2844400fb
:1002d00032a0b4000006eb00476fde00fd07b2005d
:1002e000636ce10003003a00ebff07000000eb0045
:1002f0000a003700606ce10004003a00005deb008a
:100300008b05e900fdff3e00040037006168e10055
:10031000010032000086eb000b00070019c7ba008d
:100320001905ba000e04e00003003a000a00e000dc
:10033000e0ff3a0000000600fe07b2009e018800c0
:100340008a047800f5ff3700395dba008b05e900b3
:100350000c003200295dba008b05e900080032006c
:100360000c00e00003003a00e284440032a0b40034
:10037000f5ff370019ddba008b05e900faff3a00f6
:100380008904e800e184440032a0b40000000600c3
:10039000809fbe000000fa004016800000407800f8
:1003a0006140600000c0ea00614060000080fb0026
:1003b00061006000411680000100a1000100700092
:1003c0004016880084e0a9000080fa004f00be00bb
:1003d00000400600809fbe003400f80000002000ae
:1003e000a00188000000fa00104080000000e0003a
:1003f0002000350021408000104080000088de0091
:100400000040780061406000614060006140600031
:100410000080fb00610060004400dd0041168000a8
:100420000140a100010070004016880011408000ca
:10043000505525000180de000040780061406000da
:1004400061406000614060000080fb00610060006e
:100450004300dd00411680000130a1000100700062
:1004600040168800104080000000e900104088001d
:10047000070037008c60a900c882a900c862a900e3
:1004800010c0b30000e8b700f00020001040880062
:100490008460a9000080fa003400f9004f00be001b
:1004a000004006000040da000000fe0000000500e9
:020000040000fa
:1004b00042750000747400006f6e00002030000070
:1004c000203d00002058000000420000757400002c
:1004d000746f00006e200000312000003d200000fd
:1004e0005800000042750000747400006f6e000038
:1004f00020320000203d0000205800000042000093
:1005000075740000746f00006e2000003020000041
:100510003d200000300000004275000074740000af
:100520006f6e000020310000203d000020300000f0
:100530000042000075740000746f00006e2000001f
:10054000322000003d20000030000000426f00001b
:100550006e6a00006f750000722000006c6500007c
:10056000206d00006f6e0000646500002121000016
:040570000000000087
:020000040000fa
:100574000000fa000080eb0040158800aa22ef007a
:10058400800e200000158800a222ef00f0f3210065
:1005940020158800a622ef008560a9008d60a900bf
:1005a400a1e2a8000080fa00000006000000fa00a2
:1005b400e0ff2f0040158800aa22ef00800e2000e3
:1005c40000158800a222ef00f0f321002015880016
:1005d400a622ef008560a9008d60a900a1e2a80011
:1005e4000080fa00000006000000fa00c0ff2f009f
:1005f40040158800aa22ef00800e20000015880014
:100604000030200010158800f0f321002015880028
:10061400a622ef008560a9008d60a900a1e2a800d0
:100624000080fa00000006000000fa0000ff2f001e
:1006340040158800aa22ef00800e200000158800d3
:100644000030200010158800f0f3210020158800e8
:1006540030302000301588008560a9008d60a90025
:10066400a1e2a8000080fa00000006000000fa00e1
:10067400f0fc2f0040158800aa22ef00800e200015
:10068400001588000030200010158800f0f32100c8
:100694002015880000022200301588008560a9001a
:1006a4008d60a900a1e2a8000080fa000000060005
:1006b4000000fa0000fe2f0040158800f001200021
:1006c40050158800000e20000015880040412000cd
:1006d40010158800f0f3210020158800a622ef00f1
:1006e4008560a9008d60a900a1e2a8000080fa003d
:1006f400000006000000fa0000fc2f0040158800ee
:10070400f003200050158800000e2000001588001a
:100714004041200010158800f0f3210020158800c6
:10072400a622ef008560a9008d60a900a1e2a800bf
:100734000080fa00000006000200fa00004f780072
:100744001e407800e54f50000200360050c0b30050
:10075400004f78001e80fb00110020000008dd001f
:100764000080ea00401588009e4078006fc0600059
:100774000080fb006f0060003215800001ff2f0035
:10078400810061000100700030158800a022a800db
:100794000000000000158000610060000000e0001f
:1007a400fcff3200001480000080fa000000060004
:1007b4000200fa00000f7800a022a8000000000048
:1007c40000158000610060000000e000fcff3200c2
:1007d400011480001e007800010878000080fa00ef
:1007e400000006000400fa00000f78000e80e80004
:1007f40001087800a022a800000000000015800075
:10080400610060000000e000fcff32001114800071
:100814001e00780001087800211480000e80e80092
:1008240010007800010878000080fa00000006003b
:100834000800fa00000f78000e80e8000108780034
:100844006400470002087800660047000308780047
:10085400a022a800000000000015800061006000d4
:100864000000e000fcff3200111480001e0078003c
:1008740001087800211480000e80e8001000780040
:1008840001087800311480006400470010007800eb
:100894000108780001148000660047001000780009
:1008a400010878000080fa00000006000400fa0045
:1008b400000f78000e80e80001087800a022a8004c
:1008c4000000000000158000610060000000e000ee
:1008d400fcff3200211480001e007800010878001b
:1008e400311480000e80e8001000780001087800c0
:1008f4000080fa00000006000a00fa00000f7800e9
:100904000e80e800010878006400470002087800bf
:100914006600470003087800680047000408780070
:10092400a042a800000000000015800061006000e3
:100934000000e000fcff3200a042a9000114800086
:100944001e00780001087800111480000e80e80071
:10095400100078000108780021148000640047002a
:100964001000780001087800311480006600470008
:1009740010007800010878004114800068004700e6
:1009840010007800010878000080fa0000000600da
:100994000c00fa00000f78000e80e80001087800cf
:1009a40064004700020878006600470003087800e6
:1009b40068004700040878006a00470005087800ca
:1009c400a042a80000000000001580006100600043
:1009d4000000e000fcff3200a042a90001148000e6
:1009e4001e00780001087800111480000e80e800d1
:1009f400100078000108780021148000640047008a
:100a04001000780001087800311480006600470067
:100a14001000780001087800411480006800470045
:100a24001000780001087800511480006a00470023
:100a340010007800010878000080fa000000060029
:100a44000400fa008e80e800800878000000eb00c3
:100a5400000f7800030037002701090000000000a0
:100a64001e0fe8009e0078000e80e8001000780059
:100a7400808f5000f8ff39000080fa000000060063
:100a84000000fa000421ef000021ef00102e2000e6
:100a940010088800c862a900c882a9003116800025
:100aa40070fe2f00008060003016880005e1a80069
:100ab4000080fa00000006000400fa008e80e800be
:100ac400804878000428ef000000eb00000f780055
:100ad40011003700204080004200dd0020408800e3
:100ae4000e80e800104078008000fb0072002000b7
:100af4001e0051000088de006100600000407800a4
:100b04000004e00003003200204080003000b30005
:100b1400204088001e0fe8001e007800e70f5000f8
:100b2400ecff34000068ef000021ef008c60a800a7
:100b34000080fa00000006000000fa0000c8bf00b0
:100b44000080fa00000006000400fa00004f78005c
:100b54000e80e80001087800c822a9005000200097
:100b6400b7ff0700c802a90050002000b4ff070027
:100b74001e407800d0ff070000000000eeff0700d1
:100b84000004a2000004e000fcff3a000e80e8002c
:100b940010007800aaff0700c822a8000080fa000d
:100ba400000006000000fa00c602a900c622a9003f
:100bb400c642a900b2ff07009101200090c3b30010
:100bc400e1ff07009101200090c3b300deff07009e
:100bd40091012000d0c1b300dbff07009101200088
:100be40070c7b300d8ff07009101200020c5b300ef
:100bf400d5ff070081bb200090c6b300d2ff0700d9
:100c0400411f200010c0b300cfff07009101200056
:100c1400c0c0b300ccff07009101200060c0b30046
:100c2400c9ff0700411f200020c0b300c6ff070012
:100c34000080fa00000006000200fa00004f78006d
:100c4400c822a900500020007dff0700c802a800a8
:100c5400500020007aff07001e40780096ff07002e
:100c640000000000b4ff07000004a2000004e0003c
:100c7400fcff3a009001200071ff0700c822a80081
:100c84000080fa00000006000400fa008e80e800ec
:100c9400800878000000eb00000f780007003700a0
:100ca4009e0078000e80e8001000780001004000eb
:100cb400104078001e0fe800dfff07009e00780058
:100cc4000e80e80010007800010040001040780019
:100cd4000004e000f2ff3a000080fa000000060081
:100ce4000400fa00000f78000e80e8000108780084
:100cf4001e007800e20f50000f003e000e80e80056
:100d040010007800ef0f50000d003e001e00780028
:100d140000407800c400dd000e80e8001000780078
:100d24000040780000c040000074a0009101200041
:100d340085ff0700030037000000000001003700b2
:100d4400000000000080fa00000006000200fa0023
:100d5400000f7800f00320009e007800808f500080
:100d640010003e001e0078004400de0000407800c1
:100d7400e340600000c5b30000c070009101200092
:100d840071ff07001e00780000407800ef4060000b
:100d940000c7b30000c07000910120006aff070083
:100da40001003700000000000080fa000000060087
:100db4000000fa00d802a800d822a800d842a8004f
:100dc4000080fa00000006000200fa00000f78001c
:100dd4001e007800e20f50000b003200e30f5000b9
:100de40010003200e10f500015003a00d0168000c8
:100df4006100600000f0a7000000ea000000e900c4
:100e04004f00de000f003700d01680006200600043
:100e140000f0a7000000ea000000e9004f00de0037
:100e240008003700d01680006400600000f0a700be
:100e34000000ea000000e9004f00de000100370076
:100e44000000eb000080fa00000006001600fa0023
:100e54000080eb0040158800e00f20003016880069
:100e6400c822ef00d2ff07004eff070091012000c7
:100e7400c0c0b30034ff0700e2004700622a280024
:100e840012000900b25878000000eb00000f78004f
:100e940008003700003e290041002000e8fe07005a
:100ea4000e80e8001e0040001040780062ff07003a
:100eb4001e0fe8001e007800f10f5000f5ff34000b
:100ec400010037000000000010002000beff0700f2
:100ed4000000e00008003a0020002000baff0700ec
:100ee4000000e00004003a0030002000b6ff0700d4
:100ef4000000e0002600320010002000b2ff0700ce
:100f04000000e000080032008000eb000000eb006d
:100f140073ff0700802528005bff0700003e2900bf
:100f240041002000c6fe070020002000a6ff0700a5
:100f34000000e000080032008000eb0010002000f8
:100f440067ff0700502628004fff0700003e2900d6
:100f540041002000bafe0700300020009aff07007d
:100f64000000e000080032008000eb0020002000b8
:100f74005bff07002027280043ff0700003e2900ed
:100f840041002000aefe070000000000ceff370045
:100f9400100020008cff07000000e0000800320071
:100fa4002000200088ff07000000e0000400320059
:100fb4003000200084ff07000000e000c1ff3a0079
:100fc400411f200010c0b300dffe07008000eb00cb
:100fd4000000eb0042ff0700f02728002aff07006b
:100fe4008000eb00100020003dff0700c02828000f
:100ff40025ff07008000eb002000200038ff0700d9
:101004009029280020ff0700003e2900410020000d
:101014008bfe0700acff37000600fa00000f7800d3
:101024000e80e8000288be00c0002000000e880088
:101034009e007800210e88000e80e80010007800e1
:101044000080ea00400e8800ca21ef00cc21ef00a6
:10105400d021ef000080fa00000006000200fa0030
:10106400000f78001e0078000040780061406000a6
:101074000080fb004f00dd00010e800001f0a100a4
:1010840001007000000e88000080fa0000000600d5
:101094000200fa00000f78001e00780000004000f3
:1010a400b00e88000080fa00000006000200fa007a
:1010b400000f78001e00780000004000c00e880079
:1010c4000080fa00000006000400fa00008fbe0051
:1010d4001221ef001021ef000621ef000a21ef009a
:1010e4001e00be004008de00000078007008880082
:1010f4001e007800600888001061a8000080fa00d3
:10110400000006000000fa00b1048000f0ff28008f
:101114000080600000c0a000b004880084e0a90042
:101124008ce0a80011e1a8000080fa00000006008d
:020000040000fa
:101134000408000002000000000000000008000095
:10114400040000000200000001000f000000000085
:041154000000000097
:020000040000fa
:0200000401f009
:04000000f7bf000046
:020000040000fa
:0200000401f009
:04000400ff7f00007a
:020000040000fa
:0200000401f009
:04000800ffff0000f6
:020000040000fa
:0200000401f009
:04001400ffffff00eb
:020000040000fa
:0200000401f009
:04001800ffff0000e6
:00000001FF
