:020000040000fa
:080000000001040000000000f3
:020000040000fa
:04000800be02000034
:020000040000fa
:04000c00be02000030
:020000040000fa
:04001000be0200002c
:020000040000fa
:04001400be02000028
:020000040000fa
:04001800be02000024
:020000040000fa
:04001c00be02000020
:020000040000fa
:04002000be0200001c
:020000040000fa
:04002400be02000018
:020000040000fa
:04002800be02000014
:020000040000fa
:04002c00be02000010
:020000040000fa
:04003000be0200000c
:020000040000fa
:040034005602000070
:020000040000fa
:04003800be02000004
:020000040000fa
:04003c00be02000000
:020000040000fa
:04004000be020000fc
:020000040000fa
:04004400c8010000ef
:020000040000fa
:04004800be020000f4
:020000040000fa
:04004c00be020000f0
:020000040000fa
:04005000be020000ec
:020000040000fa
:04005400be020000e8
:020000040000fa
:04005800be020000e4
:020000040000fa
:04005c00be020000e0
:020000040000fa
:04006000be020000dc
:020000040000fa
:04006400ea010000ad
:020000040000fa
:04006800be020000d4
:020000040000fa
:04006c00be020000d0
:020000040000fa
:04007000be020000cc
:020000040000fa
:04007400be020000c8
:020000040000fa
:04007800be020000c4
:020000040000fa
:04007c00be020000c0
:020000040000fa
:04008000be020000bc
:020000040000fa
:04008400be020000b8
:020000040000fa
:04008800be020000b4
:020000040000fa
:04008c00be020000b0
:020000040000fa
:04009000be020000ac
:020000040000fa
:04009400be020000a8
:020000040000fa
:04009800be020000a4
:020000040000fa
:04009c00be020000a0
:020000040000fa
:0400a000be0200009c
:020000040000fa
:0400a400be02000098
:020000040000fa
:0400a800be02000094
:020000040000fa
:0400ac00be02000090
:020000040000fa
:0400b000be0200008c
:020000040000fa
:0400b400be02000088
:020000040000fa
:0400b800be02000084
:020000040000fa
:0400bc00be02000080
:020000040000fa
:0400c000be0200007c
:020000040000fa
:0400c400be02000078
:020000040000fa
:0400c800be02000074
:020000040000fa
:0400cc00be02000070
:020000040000fa
:0400d000be0200006c
:020000040000fa
:0400d400be02000068
:020000040000fa
:0400d800be02000064
:020000040000fa
:04010800be02000033
:020000040000fa
:04010c00be0200002f
:020000040000fa
:04011000be0200002b
:020000040000fa
:04011400be02000027
:020000040000fa
:04011800be02000023
:020000040000fa
:04011c00be0200001f
:020000040000fa
:04012000be0200001b
:020000040000fa
:04012400be02000017
:020000040000fa
:04012800be02000013
:020000040000fa
:04012c00be0200000f
:020000040000fa
:04013000be0200000b
:020000040000fa
:04013400560200006f
:020000040000fa
:04013800be02000003
:020000040000fa
:04013c00be020000ff
:020000040000fa
:04014000be020000fb
:020000040000fa
:04014400c8010000ee
:020000040000fa
:04014800be020000f3
:020000040000fa
:04014c00be020000ef
:020000040000fa
:04015000be020000eb
:020000040000fa
:04015400be020000e7
:020000040000fa
:04015800be020000e3
:020000040000fa
:04015c00be020000df
:020000040000fa
:04016000be020000db
:020000040000fa
:04016400ea010000ac
:020000040000fa
:04016800be020000d3
:020000040000fa
:04016c00be020000cf
:020000040000fa
:04017000be020000cb
:020000040000fa
:04017400be020000c7
:020000040000fa
:04017800be020000c3
:020000040000fa
:04017c00be020000bf
:020000040000fa
:04018000be020000bb
:020000040000fa
:04018400be020000b7
:020000040000fa
:04018800be020000b3
:020000040000fa
:04018c00be020000af
:020000040000fa
:04019000be020000ab
:020000040000fa
:04019400be020000a7
:020000040000fa
:04019800be020000a3
:020000040000fa
:04019c00be0200009f
:020000040000fa
:0401a000be0200009b
:020000040000fa
:0401a400be02000097
:020000040000fa
:0401a800be02000093
:020000040000fa
:0401ac00be0200008f
:020000040000fa
:0401b000be0200008b
:020000040000fa
:0401b400be02000087
:020000040000fa
:0401b800be02000083
:020000040000fa
:0401bc00be0200007f
:020000040000fa
:0401c000be0200007b
:020000040000fa
:0401c400be02000077
:020000040000fa
:0401c800be02000073
:020000040000fa
:0401cc00be0200006f
:020000040000fa
:0401d000be0200006b
:020000040000fa
:0401d400be02000067
:020000040000fa
:0401d800be02000063
:020000040000fa
:100200008f8120000eff20000e01880000000000fa
:10021000000020000000e000020032000001200089
:100220002002880014000700d60007000000e0004c
:1002300003003a00e0f62000010020000200370031
:100240000000200001002000810f7000010032003a
:1002500014000700000020000000e000020032004f
:1002600000000200000000001c0e02000000000060
:100270000040da000000fe004440a900a016200063
:100280000000e0000300320000002000a001880010
:100290004440a800000006008a1f78008b1f7800e9
:1002a0000000060091018800800478000000eb0047
:1002b0001a003700e284440032a0b4009905ba0065
:1002c000e284440032a0b4009906ba00e2844400fb
:1002d00032a0b4000006eb00476fde00fd07b2005d
:1002e000636ce10003003a00ebff07000000eb0045
:1002f0000a003700606ce10004003a00005deb008a
:100300008b05e900fdff3e00040037006168e10055
:10031000010032000086eb000b00070019c7ba008d
:100320001905ba000e04e00003003a000a00e000dc
:10033000e0ff3a0000000600fe07b2009e018800c0
:100340008a047800f5ff3700395dba008b05e900b3
:100350000c003200295dba008b05e900080032006c
:100360000c00e00003003a00e284440032a0b40034
:10037000f5ff370019ddba008b05e900faff3a00f6
:100380008904e800e184440032a0b40000000600c3
:10039000809fbe000000fa004016800000407800f8
:1003a0006140600000c0ea00614060000080fb0026
:1003b00061006000411680000100a1000100700092
:1003c0004016880084e0a9000080fa004f00be00bb
:1003d000004006003600f800809fbe00829fbe00ed
:1003e000849fbe00869fbe003400f80000002000fd
:1003f000a00188000000fa0010002000920307000e
:100400000000e0000300320010c0b30000e8b700b5
:1004100005003700100020008b0307000000e000fb
:1004200001003a000068ef0020002000860307006a
:100430000000e0000300320010c0b30001e8b70084
:1004400005003700200020007f0307000000e000c7
:1004500001003a000168ef00300020007a03070035
:100460000000e0000300320010c0b30002e8b70053
:100470000500370030002000730307000000e00093
:1004800001003a000268ef0085e0a9000080fa0050
:100490003400f9004f03be004f02be004f01be0002
:1004a0004f00be003600f90000400600809fbe00ed
:1004b0003400f80000002000a00188000000fa00cd
:1004c000904080000000e00020003500b140800036
:1004d000904080000088de000040780061406000ad
:1004e00061406000614060000080fb0061006000ce
:1004f0004400dd00d11680000140a1000100700021
:10050000d016880091408000505525000180de0003
:100510000040780061406000614060006140600020
:100520000080fb00610060004300dd00d116800008
:100530000130a10001007000d016880090408000ba
:100540000000e90090408800070037008c60a90097
:10055000da82a900da62a90010c0b30010e8b7007f
:10056000f0002000904088008460a9000080fa001c
:100570003400f9004f00be00004006000040da00e1
:100580000000fe00000005000001be001f00070083
:100590000470a70003f0a1006509b1001600320045
:1005a0000d0035006828e10006003500f0ff2f003f
:1005b000f1ff27000300e00013003b0001002800ca
:1005c0000000050000004000818048008502e9002d
:1005d000fcff3a0008003700f88f420002003c00a0
:1005e0008000eb00000005008100d1000080d300f6
:1005f0008502e800fcff3a000300e00002003b0037
:1006000060001000e080180000000600c70ade004d
:10061000f107b200f50fb20008003200e1cf42004e
:10062000020032000170a00024000500810f70005c
:10063000010032000408050044000500810f70002d
:1006400002003a00140005008502e90000004000a5
:1006500081c04800fcff3b000170a00024000500a1
:10066000811f78000100e00002003d0060001000e2
:10067000e08018000300e00002003d00600111006e
:10068000e0811900050007004f00e00002003b0078
:1006900060001000e0801800000006000401070060
:1006a0000400be0000000600038368000700280065
:1006b00007036300470ade000480a100c71ade00ba
:1006c0000580a100f70f20000720e1004200320062
:1006d0000728e10040003200889fbe008a9fbe00cc
:1006e0008c1f7800f107b200f307b2000400e000ad
:1006f000640032000170a0000500e00068003200d4
:100700000370a00085054200eb07b1000204b800a9
:100710000302b8008484440060854a00020ab800dd
:10072000848444000a854a00030ab8000405450091
:10073000040033000804d0008984d2000a85d20066
:100740008b05e9006158e1003d00350002102000f2
:10075000090161000308200089816100f70720007a
:100760008783640008867300c84cde00c853dd0030
:10077000878474004855de000300e0000600320064
:1007800082037600040032008904e80060054d0011
:100790000a88a3000c003a00f70f20000758e10078
:1007a00044003d000a70a100c75ddd000a857500a8
:1007b0008a007300090078004f0678004f05be00dc
:1007c0004f04be00000006000a05d1008984d30052
:1007d0008b05e800f0ff3700881f780006047800da
:1007e00090000700070278000001fd008101fd0074
:1007f0008c00070087027800850372000778a30049
:10080000050032000001fd008101fd009f0007008e
:100810004f04780000000600850372000748a3001b
:1008200003003200f0ff2f00f1ff2700f8ff370030
:100830000000200001f8270088807000f4ff3700d6
:10084000880178004848dd00808171004848de005a
:10085000c850dd0001007000c850de0006047800ba
:100860000b0178001600070088807000d2ff370067
:100870000500e00005003200170020003a000700e4
:100880009dff370081037000f9ff3a008600780071
:100890004f0678004f05be004f04be000000050063
:1008a00083037100f9ff3200270020002e000700ab
:1008b00094ff370001f8270086807000f4ff3700ae
:1008c0000100e00026003200610111007810e10013
:1008d00023003c006022b8007010e10004003500e5
:1008e00080027800010078008000eb007001510068
:1008f0000200e0000900340070031100062add0048
:10090000822ade008603dd00878272000200de009c
:10091000860bdd00070070008208de008481710014
:10092000f4ff270004826200848171000400280023
:10093000848262006102600005f0a60000000600eb
:1009400004827100070032000000e800e0804800e7
:10095000000006000002be006000b800efff370094
:100960006000b80000000600889fbe000004eb0095
:100970006138e10016003a000100e00008003a008a
:10098000c800de004800dd00880020000100e00013
:1009900003003a00c800de004800dd00680444009f
:1009a0008184cf00e9845400060034008908dd000a
:1009b000f08314008703de00878070000900dd00eb
:1009c00009044400610214004f04be000000060048
:1009d0000300e00008003a00c811de004811dd0005
:1009e000880020000300e00003003a00c811de0088
:1009f0004811dd00680444008384cf00e98454007a
:100a0000060034008919dd00f08314008713de002e
:100a1000878171000911dd0009044400e10214001e
:100a2000e9ff37002700200001f0a7001700200091
:100a3000470bde00f60fb200040032000643e80068
:100a40000a0032004702b3000000060001037800ec
:100a5000f607b2000603700002003a000703b30075
:100a6000000006008702b3000000060001037800c2
:100a7000f607b20006037000020032000770a00003
:100a8000000006000760a000000006000478a30034
:100a9000040032000578a300030032000168a300bf
:100aa00001003a000200be000160a0000000060044
:100ab0006022b800060220000000d0008180d20031
:100ac0000482d2008582d2000000a00002025200ff
:100ad00083825a00030031000202420083824a00ee
:100ae0000000a1000603e900f3ff3a000000060041
:020000040000fa
:100af0005858000058580000585800005858000036
:100b00005858000058580000585800005858000025
:100b1000005800005858000058580000204d0000b0
:100b2000656e0000752000005858000058580000fd
:100b3000580000003e41000063740000696f00002f
:100b40006e73000000200000506100007261000020
:100b50006d650000747200006573000000200000e5
:100b600041660000662e0000204500007461000010
:100b7000740000002041000063740000696f0000f1
:100b80006e730000003e00005061000072610000c2
:100b90006d6500007472000065730000003e000087
:100ba00041660000662e00002045000074610000d0
:100bb000740000003e4d0000617200006368000098
:100bc000652000004c6500006e74000065000000a8
:100bd000204d000061720000636800006520000085
:100be0005261000070690000646500000020000090
:100bf0004d6f000064650000204d0000616e000034
:100c0000756500006c000000204d0000617200005e
:100c100063680000652000004c6500006e740000f1
:100c2000650000003e4d0000617200006368000036
:100c300065200000526100007069000064650000da
:100c4000003e00004d6f000064650000204d000074
:100c5000616e0000756500006c000000204300001c
:100c60006f6e000066690000677500007261000029
:100c7000746900006f6e0000732000000020000007
:100c8000204d0000697300006573000020610000c2
:100c9000204a00006f750000722000002000000054
:100ca0005858000058580000585800005858000084
:100cb0005858000058580000585800005858000074
:100cc0000058000058200000446500006d610000dd
:100cd000727200006167000065210000205800006a
:100ce0005800000042750000747400006f6e000030
:100cf00020310000203d00002031000000420000b3
:100d000075740000746f00006e2000003220000037
:100d10003d200000310000004275000074740000a6
:100d20006f6e000020330000203d000020310000e5
:100d30000042000075740000746f00006e20000017
:100d4000312000003d20000030000000427500000e
:100d5000747400006f6e000020320000203d00001f
:100d6000203000000042000075740000746f000025
:100d70006e200000332000003d2000003000000005
:100d8000204300006f6e0000666900006775000078
:100d900072610000746900006f6e00007320000033
:100da00000200000204d0000697300006573000002
:100db00020610000204a00006f75000072200000d2
:040dc000200000000f
:020000040000fa
:100dc4000e00fa00e8014700800978006a00470035
:100dd400010878006c004700020878000000eb006e
:100de400000f7800900c2000010020000e81e80024
:100df4000089be000e80e8001000be003200200012
:100e04000300200015fe0700660147000009780072
:100e1400411f200010c0b300d80207008000eb007f
:100e24000000eb003b030700805728002303070062
:100e34008000eb00100020003603070090582800c3
:100e44001e0307008000eb00200020003103070090
:100e540080572800190307000000200001f8230030
:100e640038010700411f200010c0b300c30207006f
:100e74006800470010007800104078000004e0008b
:100e8400020032001e0fe800670037006a004700c6
:100e940010007800104078000004e00011003200d7
:100ea4000e80e8001000be0061004000e0804800b1
:100eb4000e81e8000089be000e80e8001000be002c
:100ec4003200200003002000e4fd07006601470013
:100ed40000097800d0cc2c00c1e4230019010700dc
:100ee400510037006c004700100078001040780073
:100ef4000004e000110032000e80e8001000be0083
:100f040061005000e08058000e81e8000089be00b6
:100f14000e80e8001000be00320020000300200014
:100f2400cefd07006601470000097800d0cc2c00f4
:100f3400c1e42300030107003b00370066004700bb
:100f4400100078000000e00010003a008000eb0080
:100f54000000eb00ef020700a0592800d7020700a9
:100f64008000eb0010002000ea020700305a28003d
:100f7400d20207008000eb0020002000e5020700f9
:100f8400f05a2800cd02070027003700660047000a
:100f940010007800e10f500010003a008000eb00d0
:100fa4000000eb00db020700a05b2800c30207007f
:100fb4008000eb0010002000d6020700305c2800ff
:100fc400be0207008000eb0020002000d1020700d1
:100fd400f05a2800b90207001300370066004700e2
:100fe40010007800e20f50000f003a008000eb0080
:100ff4000000eb00c7020700a05b2800af02070057
:101004008000eb0010002000c2020700305a2800c4
:10101400aa0207008000eb0020002000bd020700a8
:10102400f05c2800a50207001e0078000000e00024
:101034008fff3200411f200010c0b3004f02070091
:1010440066004700100078000000e00071003a00dc
:101054006800470010007800104078000004e000a9
:10106400020032001e0fe800670037006a004700e4
:1010740010007800104078000004e00011003200f5
:101084000e80e8001000be0061004000e0804800cf
:101094000e81e8000089be000e80e8001000be004a
:1010a40032002000030020006cfd070066014700a9
:1010b40000097800d0cc2c00c1e42300a100070073
:1010c400510037006c004700100078001040780091
:1010d4000004e000110032000e80e8001000be00a1
:1010e40061005000e08058000e81e8000089be00d5
:1010f4000e80e8001000be00320020000300200033
:1011040056fd07006601470000097800d0cc2c008a
:10111400c1e423008b0007003b0037006600470052
:10112400100078000000e00010003a008000eb009e
:101134000000eb0077020700a05d28005f020700b3
:101144008000eb001000200072020700805e28007f
:101154005a0207008000eb00200020006d02070007
:10116400705f28005502070027003700660047001b
:1011740010007800e10f500010003a008000eb00ee
:101184000000eb0063020700406028004b020700e8
:101194008000eb00100020005e02070020612800a0
:1011a400460207008000eb002000200059020700df
:1011b400705f2800410207001300370066004700f3
:1011c40010007800e20f50000f003a008000eb009e
:1011d4000000eb004f0207004060280037020700c0
:1011e4008000eb00100020004a020700805e280007
:1011f400320207008000eb002000200045020700b7
:10120400106228002d0207001e007800e10f500034
:101214008fff3200411f200010c0b300d701070028
:10122400e0622800250207008000eb001000200087
:1012340038020700f0632800200207000080fa004b
:10124400000006000200fa00000f78001e0078007b
:10125400e20f50000b003200e30f50001000320088
:10126400e10f500015003a00401680006100600054
:1012740000f0a7000000ea000000e9004f00de00d3
:101284000f003700401680006200600000f0a700e5
:101294000000ea000000e9004f00de00080037000b
:1012a400401680006400600000f0a7000000ea001f
:1012b4000000e9004f00de00010037000000eb00f1
:1012c4000080fa00000006001800fa00f60047004b
:1012d400800878007600470010007800100078003d
:1012e4000000e00001003d0063004000c280de0019
:1012f4000e80e80001087800e400470082572800c7
:1013040010000900b25878000000eb00000f7800cc
:1013140005003700640047001e00400010407800bc
:10132400d20107001e0fe8000e80e80010007800cc
:101334009e007800808f5000f6ff35000080fa0090
:10134400000006000800fa00640147000089be009e
:101354006400470002002000a34724001000be00e0
:10136400d0fc070087fc07000e81e8000009780024
:101374000000eb00000f7800030037004006200057
:101384003c0107001e0fe8000e80e8001000780002
:101394009e007800808f5000f8ff35000080fa002e
:1013a400000006000000fa000080eb0040158800f1
:1013b400aa22ef00800e200000158800a222ef0070
:1013c400f0f3210020158800a622ef008560a90013
:1013d4008d60a900a1e2a8000080fa0000000600c8
:1013e4000000fa00e0ff2f0040158800aa22ef0059
:1013f400800e200000158800a222ef00f0f32100e7
:1014040020158800a622ef008560a9008d60a90040
:10141400a1e2a8000080fa00000006000000fa0023
:10142400c0ff2f0040158800aa22ef00800e200084
:10143400001588000030200010158800f0f321000a
:1014440020158800a622ef008560a9008d60a90000
:10145400a1e2a8000080fa00000006000000fa00e3
:1014640000ff2f0040158800aa22ef00800e200004
:10147400001588000030200010158800f0f32100ca
:101484002015880030302000301588008560a900c0
:101494008d60a900a1e2a8000080fa000000060007
:1014a4000000fa00f0fc2f0040158800aa22ef008b
:1014b400800e2000001588000030200010158800e0
:1014c400f0f3210020158800000222003015880066
:1014d4008560a9008d60a900a1e2a8000080fa003f
:1014e400000006000000fa0000fe2f0040158800ee
:1014f400f001200050158800000e2000001588001f
:101504004041200010158800f0f3210020158800c8
:10151400a622ef008560a9008d60a900a1e2a800c1
:101524000080fa00000006000000fa0000fc2f0012
:1015340040158800f003200050158800000e20009c
:10154400001588004041200010158800f0f32100a8
:1015540020158800a622ef008560a9008d60a900ef
:10156400a1e2a8000080fa00000006000200fa00d0
:10157400004f78001e407800e54f5000020036000e
:1015840050c0b300004f78001e80fb001100200003
:101594000008dd000080ea00401588009e407800c5
:1015a4006fc060000080fb006f0060003215800097
:1015b40001ff2f00810061000100700030158800d8
:1015c400a022a80000000000001580006100600057
:1015d4000000e000fcff3200001480000080fa00ec
:1015e400000006000200fa00000f7800a022a80004
:1015f4000000000000158000610060000000e000b1
:10160400fcff3200011480001e00780001087800fd
:101614000080fa00000006000400fa00000f7800c1
:101624000e80e80001087800a022a8000000000055
:1016340000158000610060000000e000fcff320043
:10164400111480001e007800010878002114800025
:101654000e80e80010007800010878000080fa008d
:10166400000006000800fa00000f78000e80e80071
:10167400010878006400470002087800660047000b
:1016840003087800a022a8000000000000158000d4
:10169400610060000000e000fcff320011148000d3
:1016a4001e00780001087800211480000e80e800f4
:1016b40010007800010878003114800064004700ad
:1016c40010007800010878000114800066004700cb
:1016d40010007800010878000080fa00000006007d
:1016e4000400fa00000f78000e80e800010878007a
:1016f400a022a80000000000001580006100600026
:101704000000e000fcff3200211480001e0078007d
:1017140001087800311480000e80e8001000780081
:10172400010878000080fa00000006000a00fa00b0
:10173400000f78000e80e80001087800640047007c
:101744000208780066004700030878006800470034
:1017540004087800a042a8000000000000158000e2
:10176400610060000000e000fcff3200a042a9001c
:10177400011480001e007800010878001114800014
:101784000e80e80010007800010878002114800021
:1017940064004700100078000108780031148000cc
:1017a40066004700100078000108780041148000aa
:1017b4006800470010007800010878000080fa00f3
:1017c400000006000c00fa00000f78000e80e8000c
:1017d40001087800640047000208780066004700aa
:1017e4000308780068004700040878006a0047008e
:1017f40005087800a042a800000000000015800041
:10180400610060000000e000fcff3200a042a9007b
:10181400011480001e007800010878001114800073
:101824000e80e80010007800010878002114800080
:10183400640047001000780001087800311480002b
:101844006600470010007800010878004114800009
:1018540068004700100078000108780051148000e7
:101864006a00470010007800010878000080fa0040
:10187400000006000400fa008e80e800800878006a
:101884000000eb00000f7800030037002701090077
:10189400000000001e0fe8009e0078000e80e800a3
:1018a40010007800808f5000f8ff39000080fa00a3
:1018b400000006000000fa000421ef000021ef0000
:1018c400102e200010088800da62a900da82a9002c
:1018d400c116800070fe2f0000806000c0168800d2
:1018e40005e1a8000080fa00000006000400fa00e8
:1018f4008e80e800804878001628ef000000eb0096
:10190400000f780011003700b04080004200dd0075
:10191400b04088000e80e800104078008000fb0092
:10192400720020001e0051000088de00610060008b
:10193400004078000004e00003003200b040800062
:101944003000b300b04088001e0fe8001e0078008d
:10195400e70f5000ecff34001068ef000021ef00a7
:101964008c60a8000080fa00000006000000fa0065
:1019740010c8bf000080fa00000006000400fa004e
:10198400004f78000e80e80001087800da22a900f0
:1019940050002000b7ff0700da02a9005000200021
:1019a400b4ff07001e407800d0ff070000000000cd
:1019b400eeff07000004a2000004e000fcff3a0070
:1019c4000e80e80010007800aaff0700da22a800c1
:1019d4000080fa00000006000000fa00d802a90006
:1019e400d822a900d842a900b2ff07009101200023
:1019f40090c3b300e1ff07009101200090c3b3003e
:101a0400deff070091012000d0c1b300dbff070017
:101a14009101200070c7b300d8ff07009101200096
:101a240020c5b300d5ff070081bb200090c6b300da
:101a3400d2ff0700411f200010c0b300cfff0700f2
:101a440091012000c0c0b300ccff07009101200029
:101a540060c0b300c9ff0700411f200020c0b300cd
:101a6400c6ff07000080fa00000006000200fa002a
:101a7400004f7800da22a900500020007dff070003
:101a8400da02a800500020007aff07001e40780008
:101a940096ff070000000000b4ff07000004a20046
:101aa4000004e000fcff3a009001200071ff0700f1
:101ab400da22a8000080fa00000006000400fa0000
:101ac4008e80e800800878000000eb00000f7800aa
:101ad400070037009e0078000e80e80010007800b0
:101ae40001004000104078001e0fe800dfff0700ef
:101af4009e0078000e80e80010007800010040008d
:101b0400104078000004e000f2ff3a000080fa0080
:101b1400000006000400fa00000f78000e80e800c0
:101b2400010878001e007800e20f50000f003e000c
:101b34000e80e80010007800ef0f50000d003e000a
:101b44001e00780000407800c400dd000e80e8002c
:101b5400100078000040780000c040000074a0002d
:101b64009101200085ff07000300370000000000fa
:101b740001003700000000000080fa0000000600a9
:101b84000200fa00000f7800f00320009e007800a5
:101b9400808f500010003e001e0078004400de00dc
:101ba40000407800e340600000c5b30000c070004e
:101bb4009101200071ff07001e00780000407800aa
:101bc400ef40600000c7b30000c070009101200026
:101bd4006aff070001003700000000000080fa00df
:101be400000006000000fa00c040a800c060a80081
:101bf400c080a8000080fa00000006000000fa007f
:101c040085e0a9008de0a8000080fa00000006002d
:101c14000000fa00c602a800c622a800c642a80016
:101c2400c440a800c460a800c480a8000080fa00d2
:101c3400000006000200fa000080eb004015880056
:101c4400e00f200030168800c822ef00f0ff0700e4
:101c540061ff070091012000c0c0b30047ff0700e7
:101c6400a0408000c6ff07008000eb000000eb00ee
:101c7400a8ff07000065280090ff07008000eb0024
:101c840010002000a3ff0700106628008bff070048
:101c94008000eb00200020009eff07000065280064
:101ca40086ff07000000200001f82300a5fd0700bf
:101cb40010002000000f7800caff070085e0a9008b
:101cc400ceff070002802000118020002080200029
:101cd4003bfc0700411f200010c0b30027ff070092
:101ce40002c8bf000004e000060032008000eb00e0
:101cf4000000eb0087ff0700206728006fff070044
:101d04002100370001c8bf000004e00006003200d3
:101d14008000eb00100020007eff0700f067280021
:101d240066ff07001800370000c8bf000004e00089
:101d3400060032008000eb002000200075ff070041
:101d4400c06828005dff07000f0037008000eb002b
:101d54000000eb006fff07009069280057ff0700a1
:101d64008000eb00100020006aff0700606a280072
:101d740052ff07008000eb002000200065ff0700f1
:101d8400306b28004dff07001e007800e10f500063
:101d9400d3ff3200411f200010c0b300f7fe07003c
:101da400006c280045ff07008000eb0010002000b5
:101db40058ff0700106d280040ff0700ffff3700a1
:101dc4000600fa00000f78000e80e8000288be00ca
:101dd400c0002000000e88009e007800210e8800bc
:101de4000e80e800100078000080ea00400e8800b1
:101df400ca21ef00cc21ef00d021ef000080fa00cf
:101e0400000006000200fa00000f78001e007800af
:101e140000407800614060000080fb004f00dd005e
:101e2400010e800001f0a10001007000000e880086
:101e34000080fa00000006000200fa00000f78009b
:101e44001e00780000004000b00e88000080fa00f8
:101e5400000006000200fa00000f78001e0078005f
:101e640000004000c00e88000080fa000000060058
:101e74000400fa00008fbe001221ef001021ef00d1
:101e84000621ef000a21ef001e00be004008de001c
:101e940000007800700888001e0078006008880040
:101ea4001061a8000080fa00000006000000fa009b
:101eb400b1048000f0ff28000080600000c0a00092
:101ec400b004880084e0a9008ce0a80011e1a80017
:081ed4000080fa000000060086
:020000040000fa
:101edc0014080000020000000200000023000000b3
:101eec0000080000100000000000000016080000b0
:101efc0002000000000000001008000004000000b8
:101f0c000200000001000f000000000000000000b3
:020000040000fa
:0200000401f009
:04000000f7bf000046
:020000040000fa
:0200000401f009
:04000400ff7f00007a
:020000040000fa
:0200000401f009
:04000800ffff0000f6
:020000040000fa
:0200000401f009
:04001400ffffff00eb
:020000040000fa
:0200000401f009
:04001800ffff0000e6
:00000001FF
