:020000040000fa
:080000000001040000000000f3
:020000040000fa
:0400080000030000f1
:020000040000fa
:04000c0000030000ed
:020000040000fa
:0400100000030000e9
:020000040000fa
:0400140000030000e5
:020000040000fa
:0400180000030000e1
:020000040000fa
:04001c0000030000dd
:020000040000fa
:0400200000030000d9
:020000040000fa
:0400240000030000d5
:020000040000fa
:0400280000030000d1
:020000040000fa
:04002c0000030000cd
:020000040000fa
:0400300000030000c9
:020000040000fa
:040034008602000040
:020000040000fa
:0400380000030000c1
:020000040000fa
:04003c0000030000bd
:020000040000fa
:04004000ee020000cc
:020000040000fa
:04004400c8010000ef
:020000040000fa
:0400480000030000b1
:020000040000fa
:04004c0000030000ad
:020000040000fa
:0400500000030000a9
:020000040000fa
:0400540000030000a5
:020000040000fa
:0400580000030000a1
:020000040000fa
:04005c00000300009d
:020000040000fa
:040060000003000099
:020000040000fa
:04006400ea010000ad
:020000040000fa
:040068000003000091
:020000040000fa
:04006c00000300008d
:020000040000fa
:040070000003000089
:020000040000fa
:040074000003000085
:020000040000fa
:040078000003000081
:020000040000fa
:04007c00000300007d
:020000040000fa
:040080000003000079
:020000040000fa
:040084000003000075
:020000040000fa
:040088000003000071
:020000040000fa
:04008c00000300006d
:020000040000fa
:040090000003000069
:020000040000fa
:040094000003000065
:020000040000fa
:040098000003000061
:020000040000fa
:04009c00000300005d
:020000040000fa
:0400a0000003000059
:020000040000fa
:0400a4000003000055
:020000040000fa
:0400a8000003000051
:020000040000fa
:0400ac00000300004d
:020000040000fa
:0400b0000003000049
:020000040000fa
:0400b4000003000045
:020000040000fa
:0400b8000003000041
:020000040000fa
:0400bc00000300003d
:020000040000fa
:0400c0000003000039
:020000040000fa
:0400c4000003000035
:020000040000fa
:0400c8000003000031
:020000040000fa
:0400cc00000300002d
:020000040000fa
:0400d0000003000029
:020000040000fa
:0400d4000003000025
:020000040000fa
:0400d8000003000021
:020000040000fa
:0401080000030000f0
:020000040000fa
:04010c0000030000ec
:020000040000fa
:0401100000030000e8
:020000040000fa
:0401140000030000e4
:020000040000fa
:0401180000030000e0
:020000040000fa
:04011c0000030000dc
:020000040000fa
:0401200000030000d8
:020000040000fa
:0401240000030000d4
:020000040000fa
:0401280000030000d0
:020000040000fa
:04012c0000030000cc
:020000040000fa
:0401300000030000c8
:020000040000fa
:04013400860200003f
:020000040000fa
:0401380000030000c0
:020000040000fa
:04013c0000030000bc
:020000040000fa
:04014000ee020000cb
:020000040000fa
:04014400c8010000ee
:020000040000fa
:0401480000030000b0
:020000040000fa
:04014c0000030000ac
:020000040000fa
:0401500000030000a8
:020000040000fa
:0401540000030000a4
:020000040000fa
:0401580000030000a0
:020000040000fa
:04015c00000300009c
:020000040000fa
:040160000003000098
:020000040000fa
:04016400ea010000ac
:020000040000fa
:040168000003000090
:020000040000fa
:04016c00000300008c
:020000040000fa
:040170000003000088
:020000040000fa
:040174000003000084
:020000040000fa
:040178000003000080
:020000040000fa
:04017c00000300007c
:020000040000fa
:040180000003000078
:020000040000fa
:040184000003000074
:020000040000fa
:040188000003000070
:020000040000fa
:04018c00000300006c
:020000040000fa
:040190000003000068
:020000040000fa
:040194000003000064
:020000040000fa
:040198000003000060
:020000040000fa
:04019c00000300005c
:020000040000fa
:0401a0000003000058
:020000040000fa
:0401a4000003000054
:020000040000fa
:0401a8000003000050
:020000040000fa
:0401ac00000300004c
:020000040000fa
:0401b0000003000048
:020000040000fa
:0401b4000003000044
:020000040000fa
:0401b8000003000040
:020000040000fa
:0401bc00000300003c
:020000040000fa
:0401c0000003000038
:020000040000fa
:0401c4000003000034
:020000040000fa
:0401c8000003000030
:020000040000fa
:0401cc00000300002c
:020000040000fa
:0401d0000003000028
:020000040000fa
:0401d4000003000024
:020000040000fa
:0401d8000003000020
:020000040000fa
:100200000f8820000eff20000e0188000000000073
:10021000000020000000e000020032000001200089
:100220002002880014000700f70007000000e0002b
:1002300003003a0060cb20000100200002003700dc
:100240000000200001002000810f7000010032003a
:1002500014000700000020000000e000020032004f
:100260000000020000000000c00b020000000000bf
:100270000040da000000fe004440a900400a2000cf
:100280000000e0000300320000002000a001880010
:100290004440a800000006008a1f78008b1f7800e9
:1002a0000000060091018800800478000000eb0047
:1002b0001a003700e284440032a0b4009905ba0065
:1002c000e284440032a0b4009906ba00e2844400fb
:1002d00032a0b4000006eb00476fde00fd07b2005d
:1002e000636ce10003003a00ebff07000000eb0045
:1002f0000a003700606ce10004003a00005deb008a
:100300008b05e900fdff3e00040037006168e10055
:10031000010032000086eb000b00070019c7ba008d
:100320001905ba000e04e00003003a000a00e000dc
:10033000e0ff3a0000000600fe07b2009e018800c0
:100340008a047800f5ff3700395dba008b05e900b3
:100350000c003200295dba008b05e900080032006c
:100360000c00e00003003a00e284440032a0b40034
:10037000f5ff370019ddba008b05e900faff3a00f6
:100380008904e800e184440032a0b40000000600c3
:10039000809fbe000000fa004016800000407800f8
:1003a0006140600000c0ea00614060000080fb0026
:1003b00061006000411680000100a1000100700092
:1003c0004016880084e0a9000080fa004f00be00bb
:1003d000004006003600f800809fbe00829fbe00ed
:1003e000849fbe00869fbe003400f80000002000fd
:1003f000a00188000000fa0010002000930407000c
:100400000000e000070032009043800010017800f7
:10041000c1ff2f00810061000100a00001087800e9
:100420000900370010002000880407000000e000e9
:1004300005003a009043800010017800c1ff2f00b2
:100440008100610001087800200020007f0407007f
:100450000000e000070032009043800010017800a7
:1004600031ff2f00810061000120a0000108780009
:100470000900370020002000740407000000e0009d
:1004800005003a00904380001001780031ff2f00f2
:100490008100610001087800300020006b04070033
:1004a0000000e00007003200904380001001780057
:1004b000f1fc2f00810061000140a00001087800dc
:1004c0000900370030002000600407000000e00051
:1004d00005003a009043800010017800f1fc2f00e5
:1004e000810061000108780085e0a9000080fa0021
:1004f0003400f9004f03be004f02be004f01be00a2
:100500004f00be003600f90000400600809fbe008c
:100510003400f80000002000a00188000000fa006c
:10052000b04380000000e00020003500d14380008f
:10053000b04380000088de00004078006140600029
:1005400061406000614060000080fb00610060006d
:100550004400dd00d11680000140a10001007000c0
:10056000d0168800b1438000505525000180de0080
:1005700000407800614060006140600061406000c0
:100580000080fb00610060004300dd00d1168000a8
:100590000130a10001007000d0168800b043800037
:1005a0000000e900b0438800070037008c60a90014
:1005b000da82a900da62a90010c0b30074e8b700bb
:1005c000f0002000b04388008460a9000080fa0099
:1005d0003400f9004f00be0000400600801f780084
:1005e0000000fa00f04380000000e800f0438800bb
:1005f00084c0a9000080fa004f0078000040060087
:100600000040da000000fe00000005000001be000e
:100610001f0007000470a70003f0a1006509b100e6
:10062000160032000d0035006828e1000600350094
:10063000f0ff2f00f1ff27000300e00013003b0054
:1006400001002800000005000000400081804800f3
:100650008502e900fcff3a0008003700f88f4200ed
:1006600002003c008000eb00000005008100d1008a
:100670000080d3008502e800fcff3a000300e000a0
:1006800002003b0060001000e0801800000006003f
:10069000c70ade00f107b200f50fb2000800320011
:1006a000e1cf4200020032000170a00024000500ea
:1006b000810f7000010032000408050044000500ad
:1006c000810f700002003a00140005008502e90065
:1006d0000000400081c04800fcff3b000170a0000a
:1006e0002400050003836800070028000703630057
:1006f000470ade000480a100c71ade000580a100c1
:10070000f70f20000720e100420032000728e10037
:1007100040003200889fbe008a9fbe008c1f780078
:10072000f107b200f307b2000400e00064003200f9
:100730000170a0000500e000680032000370a00016
:1007400085054200eb07b1000204b8000302b800bf
:100750008484440060854a00020ab800848444000e
:100760000a854a00030ab800040545000400330066
:100770000804d0008984d2000a85d2008b05e900e4
:100780006158e1003d0035000210200009016100c0
:100790000308200089816100f70720008783640037
:1007a00008867300c84cde00c853dd0087847400df
:1007b0004855de000300e0000600320082037600a8
:1007c000040032008904e80060054d000a88a30097
:1007d0000c003a00f70f20000758e10044003d00ec
:1007e0000a70a100c75ddd000a8575008a007300ec
:1007f000090078004f0678004f05be004f04be0088
:10080000000006000a05d1008984d3008b05e800aa
:10081000f0ff3700881f780006047800900007007a
:10082000070278000001fd008101fd008c00070037
:1008300087027800850372000778a3000500320064
:100840000001fd008101fd009f0007004f047800ba
:1008500000000600850372000748a3000300320071
:10086000f0ff2f00f1ff2700f8ff37000000200005
:1008700001f8270088807000f4ff370088017800b5
:100880004848dd00808171004848de00c850dd0026
:1008900001007000c850de00060478000b017800eb
:1008a0001600070088807000d2ff37000500e000c6
:1008b00005003200170020003a0007009dff3700b6
:1008c00081037000f9ff3a00860078004f06780037
:1008d0004f05be004f04be000000050083037100f9
:1008e000f9ff3200270020002e00070094ff370098
:1008f00001f8270086807000f4ff37000100e00057
:1009000026003200610111007810e10023003c0054
:100910006022b8007010e100040035008002780009
:10092000010078008000eb00700151000200e0003f
:100930000900340070031100062add00822ade005f
:100940008603dd00878272000200de00860bdd0078
:10095000070070008208de0084817100f4ff270028
:100960000482620084817100040028008482620095
:100970006102600005f0a60000000600048271001c
:10098000070032000000e800e08048000000060098
:100990000002be006000b800efff37006000b80042
:1009a00000000600889fbe000004eb006138e100f3
:1009b00016003a000100e00008003a00c800de001e
:1009c0004800dd00880020000100e00003003a003c
:1009d000c800de004800dd00680444008184cf00c8
:1009e000e9845400060034008908dd00f083140017
:1009f0008703de00878070000900dd0009044400e1
:100a0000610214004f04be00000006000300e00075
:100a100008003a00c811de004811dd0088002000ff
:100a20000300e00003003a00c811de004811dd00b9
:100a3000680444008384cf00e98454000600340035
:100a40008919dd00f08314008713de0087817100af
:100a50000911dd0009044400e1021400e9ff370038
:100a60002700200001f0a70017002000470bde0040
:100a7000f60fb200040032000643e8000a0032001c
:100a80004702b3000000060001037800f607b20039
:100a90000603700002003a000703b30000000600de
:100aa0008702b3000000060001037800f607b200d9
:100ab00006037000020032000770a000000006006c
:100ac0000760a000000006000478a30004003200c4
:100ad0000578a300030032000168a30001003a007a
:0c0ae0000200be000160a0000000060043
:020000040000fa
:100aec0041630000746900006f6e00007300000029
:100afc0050610000726100006d65000074720000ae
:100b0c006500000041660000662e000020450000d4
:100b1c007461000074000000585800005858000020
:100b2c0058580000585800005858000058580000f9
:100b3c005858000058580000005800005858000041
:100b4c0058580000204d0000656e00007520000014
:100b5c00585800005858000058000000204300006e
:100b6c006f6e00006669000067750000726100001e
:100b7c00746900006f6e00007320000000200000fc
:100b8c00204d0000697300006573000020610000b7
:100b9c00204a00006f750000722000002000000049
:100bac005858000058580000585800005858000079
:100bbc005858000058580000585800005858000069
:100bcc000058000058200000446500006d610000d2
:100bdc00727200006167000065210000205800005f
:100bec0058000000204300006f6e00006669000092
:100bfc006775000072610000746900006f6e000080
:100c0c007320000000200000204d000069730000dc
:100c1c006573000020610000204a00006f75000021
:080c2c0072200000200000000e
:020000040000fa
:100c34000000fa000080eb0040158800aa22ef00b3
:100c4400800e200000158800a222ef00f0f321009e
:100c540020158800a622ef008560a9008d60a900f8
:100c6400a1e2a8000080fa00000006000000fa00db
:100c7400e0ff2f0040158800aa22ef00800e20001c
:100c840000158800a222ef00f0f32100201588004f
:100c9400a622ef008560a9008d60a900a1e2a8004a
:100ca4000080fa00000006000000fa00c0ff2f00d8
:100cb40040158800aa22ef00800e2000001588004d
:100cc4000030200010158800f0f321002015880062
:100cd400a622ef008560a9008d60a900a1e2a8000a
:100ce4000080fa00000006000000fa0000ff2f0058
:100cf40040158800aa22ef00800e2000001588000d
:100d04000030200010158800f0f321002015880021
:100d140030302000301588008560a9008d60a9005e
:100d2400a1e2a8000080fa00000006000000fa001a
:100d3400f0fc2f0040158800aa22ef00800e20004e
:100d4400001588000030200010158800f0f3210001
:100d54002015880000022200301588008560a90053
:100d64008d60a900a1e2a8000080fa00000006003e
:100d74000000fa0000fe2f0040158800f00120005a
:100d840050158800000e2000001588004041200006
:100d940010158800f0f3210020158800a622ef002a
:100da4008560a9008d60a900a1e2a8000080fa0076
:100db400000006000000fa0000fc2f004015880027
:100dc400f003200050158800000e20000015880054
:100dd4004041200010158800f0f321002015880000
:100de400a622ef008560a9008d60a900a1e2a800f9
:100df4000080fa00000006000200fa00004f7800ac
:100e04001e407800e54f50000200360050c0b30089
:100e1400004f78001e80fb00110020000008dd0058
:100e24000080ea00401588009e4078006fc0600092
:100e34000080fb006f0060003215800001ff2f006e
:100e4400810061000100700030158800a022a80014
:100e54000000000000158000610060000000e00058
:100e6400fcff3200001480000080fa00000006003d
:100e74000200fa00000f7800a022a8000000000081
:100e840000158000610060000000e000fcff3200fb
:100e9400011480001e007800010878000080fa0028
:100ea400000006000400fa00000f78000e80e8003d
:100eb40001087800a022a8000000000000158000ae
:100ec400610060000000e000fcff320011148000ab
:100ed4001e00780001087800211480000e80e800cc
:100ee40010007800010878000080fa000000060075
:100ef4000800fa00000f78000e80e800010878006e
:100f04006400470002087800660047000308780080
:100f1400a022a8000000000000158000610060000d
:100f24000000e000fcff3200111480001e00780075
:100f340001087800211480000e80e8001000780079
:100f44000108780031148000640047001000780024
:100f54000108780001148000660047001000780042
:100f6400010878000080fa00000006000400fa007e
:100f7400000f78000e80e80001087800a022a80085
:100f84000000000000158000610060000000e00027
:100f9400fcff3200211480001e0078000108780054
:100fa400311480000e80e8001000780001087800f9
:100fb4000080fa00000006000a00fa00000f780022
:100fc4000e80e800010878006400470002087800f9
:100fd40066004700030878006800470004087800aa
:100fe400a042a8000000000000158000610060001d
:100ff4000000e000fcff3200a042a90001148000c0
:101004001e00780001087800111480000e80e800aa
:101014001000780001087800211480006400470063
:101024001000780001087800311480006600470041
:10103400100078000108780041148000680047001f
:1010440010007800010878000080fa000000060013
:101054000c00fa00000f78000e80e8000108780008
:10106400640047000208780066004700030878001f
:1010740068004700040878006a0047000508780003
:10108400a042a8000000000000158000610060007c
:101094000000e000fcff3200a042a900011480001f
:1010a4001e00780001087800111480000e80e8000a
:1010b40010007800010878002114800064004700c3
:1010c40010007800010878003114800066004700a1
:1010d400100078000108780041148000680047007f
:1010e4001000780001087800511480006a0047005d
:1010f40010007800010878000080fa000000060063
:101104000400fa008e80e800800878000000eb00fc
:10111400000f7800030037002701090000000000d9
:101124001e0fe8009e0078000e80e8001000780092
:10113400808f5000f8ff39000080fa00000006009c
:101144000000fa000421ef000021ef00102e20001f
:1011540010088800da62a900da82a900c1168000aa
:1011640070fe2f0000806000c016880005e1a80012
:101174000080fa00000006000400fa008e80e800f7
:10118400804878007a28ef000000eb00000f780018
:1011940011003700d04380004200dd00d0438800b6
:1011a4000e80e800104078008000fb0072002000f0
:1011b4001e0051000088de006100600000407800dd
:1011c4000004e00003003200d04380003000b3008c
:1011d400d04388001e0fe8001e007800e70f50007f
:1011e400ecff34007468ef000021ef008c60a8006d
:1011f4000080fa00000006000000fa0074c8bf0076
:101204000080fa00000006000400fa00004f780095
:101214000e80e80001087800da22a90050002000be
:10122400b7ff0700da02a90050002000b4ff07004e
:101234001e407800d0ff070000000000eeff07000a
:101244000004a2000004e000fcff3a000e80e80065
:1012540010007800aaff0700da22a8000080fa0034
:10126400000006000000fa00d802a900d822a90054
:10127400d842a900b2ff07009101200090c3b30037
:10128400e1ff07009101200090c3b300deff0700d7
:1012940091012000d0c1b300dbff070091012000c1
:1012a40070c7b300d8ff07009101200020c5b30028
:1012b400d5ff070081bb200090c6b300d2ff070012
:1012c400411f200010c0b300cfff07009101200090
:1012d400c0c0b300ccff07009101200060c0b30080
:1012e400c9ff0700411f200020c0b300c6ff07004c
:1012f4000080fa00000006000200fa00004f7800a7
:10130400da22a900500020007dff0700da02a800bd
:10131400500020007aff07001e40780096ff070067
:1013240000000000b4ff07000004a2000004e00075
:10133400fcff3a009001200071ff0700da22a800a8
:101344000080fa00000006000400fa008e80e80025
:10135400800878000000eb00000f780007003700d9
:101364009e0078000e80e800100078000100400024
:10137400104078001e0fe800dfff07009e00780091
:101384000e80e80010007800010040001040780052
:101394000004e000f2ff3a000080fa0000000600ba
:1013a4000400fa00000f78000e80e80001087800bd
:1013b4001e007800e20f50000f003e000e80e8008f
:1013c40010007800ef0f50000d003e001e00780062
:1013d40000407800c400dd000e80e80010007800b2
:1013e4000040780000c040000074a000910120007b
:1013f40085ff0700030037000000000001003700ec
:10140400000000000080fa00000006000200fa005c
:10141400000f7800f00320009e007800808f5000b9
:1014240010003e001e0078004400de0000407800fa
:10143400e340600000c5b30000c0700091012000cb
:1014440071ff07001e00780000407800ef40600044
:1014540000c7b30000c07000910120006aff0700bc
:1014640001003700000000000080fa0000000600c0
:101474000000fa00e04380008000eb000080e800f8
:1014840001087800e04380008000eb000108780048
:1014940000428000e14380000080e80001087800f9
:1014a400004280008000eb00010878003043800097
:1014b400615728000108780040438000e157280064
:1014c4000108780050438000815828000108780002
:1014d4000080fa00000006000800fa00e600470059
:1014e400800878000000eb00000f78008000eb001b
:1014f4000e80e800010878008000eb0064004700db
:1015040001087800411f200010c0b3003eff07000f
:101514008000eb000000eb00a1ff07002059280029
:1015240089ff07008000eb00100020009cff0700eb
:10153400305a280084ff07008000eb0020002000c0
:1015440097ff0700205928007fff070000002000b4
:1015540001f823005d000700411f200010c0b30004
:1015640029ff07006600470010007800900078000b
:101574000003200000806000f00f500005003a00d6
:101584001e0fe800d0cc2c00c1e423004f0007005c
:101594001d00370066004700100078001000780036
:1015a40063006000e10f500009003a000e80e8007b
:1015b400100078008000e8000e80e8000108780040
:1015c400d0cc2c00c1e42300400007000e003700fb
:1015d4006600470010007800100078006c0060007e
:1015e400e40f500008003a000e80e8001000780074
:1015f4008000e9000e80e80001087800d0cc2c00bf
:10160400c1e42300310007006400470010007800a3
:101614000000e000d3ff3200411f200010c0b300df
:10162400f9fe0700405b280047ff07008000eb003d
:10163400100020005aff0700505c280042ff0700fa
:101644000080fa00000006000200fa00000f780093
:101654001e007800e20f50000b003200e30f500030
:1016640010003200e10f500015003a0040168000cf
:101674006100600000f0a7000000ea000000e9003b
:101684004f00de000f00370040168000620060004b
:1016940000f0a7000000ea000000e9004f00de00af
:1016a40008003700401680006400600000f0a700c6
:1016b4000000ea000000e9004f00de0001003700ee
:1016c4000000eb000080fa00000006000800fa00a9
:1016d400640147000089be00640047000200200046
:1016e400a34724001000be00fdfb0700c6fb070053
:1016f4000e81e800000978000000eb00000f78007c
:1017040003003700400620007dfe07001e0fe8009e
:101714000e80e800100078009e007800808f500052
:10172400f8ff35000080fa00000006000000fa000f
:10173400c040a800c060a800c080a8000080fa00d3
:10174400000006000000fa0085e0a9008de0a80072
:101754000080fa00000006000000fa00c602a8009b
:10176400c622a800c642a800c440a800c460a800bd
:10177400c480a8000080fa00000006000200fa00fd
:101784000080eb0040158800e00f20003016880030
:10179400c822ef00f0ff0700b2fe0700910120000d
:1017a400c0c0b30098fe07008043800017ff070005
:1017b4008000eb000000eb00f9fe0700605d2800ec
:1017c400e1fe07008000eb0010002000f4fe07009b
:1017d400705e2800dcfe07008000eb002000200083
:1017e400effe0700605d2800d7fe07000000200020
:1017f40001f82300b5ff070010002000000f780057
:10180400caff070085e0a900ceff070090438000cf
:1018140031ff0700411f200010c0b3007afe07000b
:10182400805f2800c8fe07008000eb001000200045
:10183400dbfe070090602800c3fe0700ffff3700af
:101844000600fa00000f78000e80e8000288be004f
:10185400c0002000000e88009e007800210e880041
:101864000e80e800100078000080ea00400e880036
:10187400ca21ef00cc21ef00d021ef000080fa0054
:10188400000006000200fa00000f78001e00780035
:1018940000407800614060000080fb004f00dd00e4
:1018a400010e800001f0a10001007000000e88000c
:1018b4000080fa00000006000200fa00000f780021
:1018c4001e00780000004000b00e88000080fa007e
:1018d400000006000200fa00000f78001e007800e5
:1018e40000004000c00e88000080fa0000000600de
:1018f4000000fa007e28ef000621ef0000332700e5
:10190400600888001021ef0084c0a9008cc0a800e2
:1019140011e1a8000080fa00000006000000fa00af
:10192400f04380000080fa00000006000400fa0082
:10193400000f78000e80e80001087800f043800072
:101944001e0050008000780010c0b3000e81e80033
:1019540012017800828f500001003e000040eb002d
:081964000080fa0000000600fb
:020000040000fa
:10196c00700800000400000002000000280078004d
:10197c0008000000780800000200000000000000d1
:10198c007a0800000200000000000000740800004b
:10199c00040000000200000001000f000000000025
:1019ac000008000070000000000000007c0800002f
:1019bc000200000002000000000800007e08000089
:0c19cc000200000000000000000000000d
:020000040000fa
:1019d8000400fa00008fbe001221ef001021ef0072
:1019e8000621ef000a21ef001e00be004008de00bd
:1019f80000007800700888001e00780060088800e1
:101a08001061a8000080fa00000006000000fa003b
:101a1800b1048000f0ff28000080600000c0a00032
:101a2800b004880084e0a9008ce0a80011e1a800b7
:081a38000080fa000000060026
:020000040000fa
:0200000401f009
:04000000f7bf000046
:020000040000fa
:0200000401f009
:04000400ff7f00007a
:020000040000fa
:0200000401f009
:04000800ffff0000f6
:020000040000fa
:0200000401f009
:04001400ffffff00eb
:020000040000fa
:0200000401f009
:04001800ffff0000e6
:00000001FF
